:020000040800F2
:1000000020060020D900000835220008052200083B
:1000100000000000000000000000000000000000E0
:100020000000000000000000000000002F23000876
:1000300000000000000000002923000867250008D8
:10004000000000000000000000000000EB000008BD
:10005000EB000008FD090008070A0008110A000863
:100060000000000000000000000000000000000090
:10007000EB000008EB000008EB00000800000000A7
:1000800000000000EB00000800000000B925000897
:10009000000000000000000000000000EB0000086D
:1000A00000000000EB00000800000000352B0008F5
:1000B0000000000000000000000000000000000040
:1000C0000448854600F064F8004800473D310008C8
:1000D000C046C04620060020044880470448004728
:1000E000FEE7FEE7FEE7FEE7FEE7FEE77125000814
:1000F000C100000830B50B46014600202022012433
:1001000009E00D46D5409D4205D31D469540491B4B
:100110002546954040191546521E002DF1DC30BD94
:1001200070B500242546002801DA01244042002948
:1001300001DA01254942FFF7DDFFAC4200D0404221
:10014000002C00D0494270BD03460B439B0703D0EF
:1001500009E008C9121F08C0042AFAD203E00B788C
:100160000370401C491C521EF9D27047D2B201E004
:100170000270401C491EFBD270470022F6E710B502
:1001800013460A4604461946FFF7F0FF204610BD05
:10019000064C0125064E05E0E36807CC2B430C3CDA
:1001A00098471034B442F7D3FFF78EFF883A00081F
:1001B000A83A000870B5044600252068806804212C
:1001C00008408008002829D020688068084000285E
:1001D0000BD020688068C007C00F002805D02068B9
:1001E0008068102108432168886001F0DBF805462B
:1001F0000EE001F0D7F8401B022809D9206B10212E
:1002000008432063606B012108436063012070BDD7
:1002100020688068042108400028EAD10020F6E721
:1002200070B50446002520688068C007C00F012112
:1002300048404840002837D02068806805210840A1
:10024000012800D100E0002000280AD000BF20686B
:1002500080680221084321688860022021680860C4
:1002600009E0206B102108432063606B01210843E3
:100270006063012070BD01F095F805460EE001F0C5
:1002800091F8401B022809D9206B102108432063F4
:10029000606B0121084360630120EBE72068806800
:1002A000C007C00F0028EAD10020E3E738B50446B4
:1002B0000020009020688068C007C00F01214840DE
:1002C0004840002827D12068806814490840002849
:1002D00001D1012000E00020002809D1206B10216D
:1002E00008432063606B012108436063012038BD2F
:1002F000206880680121084321688860084909480E
:100300000068FFF7F7FE009002E00098401E0090A2
:1003100000980028F9D10020E9E7000017000080CC
:1003200040420F0048000020F0B58BB00546142075
:100330000A90FF2009900A200890142007901920A5
:100340004001069032200590002004903220039056
:1003500000F09AFB04464E48844206D300200590E4
:10036000FF200490002003900EE04A48844206D308
:10037000FF200590A52004900020039004E0FF20BA
:100380000590002004900390022D04D1424884423D
:1003900001D90BB0F0BD4048844202D87D20000155
:1003A00006900A210598FFF7BBFEC0B205900A210E
:1003B0000498FFF7B5FEC0B204900A210398FFF736
:1003C000AFFEC0B2039001F023FF074657E001F0F3
:1003D0001FFF0290012D0CD10121304800F0D8FF01
:1003E000002806D100231A461946184601F0CEFF10
:1003F000CFE70298C11B0698814206D300231A4614
:100400001946184601F0C2FF3AE00020019032E0A0
:10041000012D0CD10121214800F0BAFF002806D19E
:1004200000231A461946184601F0B0FFB1E70199BA
:100430000A02501A1321FFF773FE86B27F2E02DDE7
:10044000FF20801B86B230467043C0110090F5211A
:1004500000984843C0110A3000900098C3B2039A34
:100460000499059801F092FF142000F099FA019880
:10047000401CC0B2019001981428C9DB00BFA6E758
:1004800000BF0548844201D800F0C8FA00BF80E7E9
:10049000B50E0000710C0000F609000000040050C9
:1004A00000B587B000BF2D48406B022108432B499F
:1004B00048630846406B02210840019000BF00BF1E
:1004C000274803900220049005900120029002A981
:1004D000244800F083FE052000F0D8FF00221146DA
:1004E000052000F0DFFF00BF1C48406B02210843DD
:1004F0001A4948630846406B02210840019000BF3A
:1005000000BF1748039002200490002005900420AB
:10051000029002A9134800F061FE062000F0B6FF29
:1005200000221146062000F0BDFF00BF0B48406BC3
:1005300004210843094948630846406B04210840E8
:10054000019000BF00BF00200390022004900290A1
:1005500002A9054800F042FE07B000BD00100240AD
:1005600000001110000400500008005000B58DB0CC
:10057000242104A8FFF701FE0020009001900290C2
:1005800003900F200490FF20013008900020099074
:100590000B48008880B20A90002005900B900690CE
:1005A00004A801F005F907200090002001900290B6
:1005B00003900021684600F09FFF0DB000BD0000D1
:1005C0000001FF1F30B587B005460C462048214981
:1005D00008600846C4604560002181600161416196
:1005E000816101F09DFC60200090601C0190022060
:1005F000029000200490FF2001300590002006901A
:10060000059000226946134801F006FC00211148BC
:1006100001F01CFD042269460E4801F0FDFB042197
:100620000C4801F013FD082269460A4801F0F4FB6A
:100630000821084801F00AFD0C226946054801F02E
:10064000EBFB0C21034801F001FD07B030BD0000B9
:10065000002C01407C0000201FB500BF204800682E
:100660000121090508431E49086008460068012168
:1006700009050840009000BF00BF1A481A490860E9
:10068000052000074860002117488160C1600121F2
:100690000161042141610021017641768176FF21CB
:1006A000C231C1610021016241620521816200F015
:1006B0002BFB0120000302900020019001A90A48B1
:1006C00000F05EFA0120000302900920019001A9C8
:1006D000054800F055FA044800F002FA1FBD00007A
:1006E00040100240002401404C01002000B587B0BA
:1006F00001212B4800F0E6FC02212A4800F0E2FC30
:100700000421274800F0DEFC00BF2748406B012190
:100710000843254948630846406BC007C00F019055
:1007200000BF00BF00BF0846406B022108431E49BE
:1007300048630846406B02210840019000BF00BF9B
:1007400000BF1948406B0421084317494863084615
:10075000406B04210840019000BF00BF00200390BF
:100760000220049005900120029002A90C4800F09C
:1007700035FD012004900220029002A9094800F0F2
:100780002DFD8021064800F09DFC01200490802072
:10079000029002A9024800F021FD07B000BD000050
:1007A00000040050000800500010024010B501F095
:1007B0002FFD10BD70B50026FFF7F8FF044600F0CE
:1007C000ABF8054652480078854208D0002D01D08C
:1007D000052600E006264E480570304670BD00F044
:1007E0009FF84C49887308460078030002F0D0FB5C
:1007F0000604142E4B4F78844648807B01280AD18A
:100800004448407B002806D1012042490870084630
:1008100084600020C87373E03E488068201A28284E
:1008200013D33C48807B01280CD13A48C07B002878
:100830000BD1012602203749087008468460012048
:10084000C87302E000203349087059E03148807BCA
:1008500001280AD12F488068201A7D21C9008842CA
:1008600003D305202B49087004262A48807B0028E2
:1008700008D12848407B012804D10320254908706D
:10088000084644603CE004202249087038E02148D2
:10089000807B01280FD11F48407B00280BD11D48C9
:1008A000007B401C1B4908730120087008468460C7
:1008B0000020C87313E017484068201AFA280ED3A6
:1008C0001448007B002801D1022604E01148007B77
:1008D000012800D1032600200E49087008730FE09C
:1008E0000C48807B002806D10A48407B012802D1B1
:1008F00000200849087003E000200649087000BF86
:1009000000BF0448807B03494873304666E7000017
:10091000500000208401002010B501F006FD10BD3C
:1009200010B50121014800F033FD10BD0004005056
:100930000020044908704873887348608860087311
:10094000C87370478401002010B504460B480C4959
:1009500008600846446000218160C16001618161D6
:100960000C21416101F0A8FB05480068C068202106
:10097000084303490968C86010BD00000038014001
:100980000801002008B505494143009100BF00BFA0
:1009900000994A1E00920029F9D108BDB80B000049
:1009A00001B57D22D20000995143084600F002F8BB
:1009B00008BD000071B500220E4D6C690E4E3678F0
:1009C000009D75432B460B4DA9690FE0094DA869A1
:1009D00088420BD0884202D20D1AAA1802E0251ACA
:1009E0006D18AA1801469A4200D300E0EEE700BF56
:1009F00078BD000000E000E04C00002010B50120B0
:100A000000F0DCFB10BD10B5042000F0D7FB10BDDA
:100A100010B5802000F0D2FB10BD000010B50023FF
:100A20001A461946184601F0B1FC01F0A7FCFFF781
:100A300037FD3220FFF7B4FF01F0BEF80121880333
:100A400000F03AFD01F092F8FFF750FE00231A463D
:100A50001946184601F09AFCFFF76AFF0020074983
:100A60000860032006490870FFF75AFF012802D1E9
:100A70000449087001E002F0F3FA10BD14000020F0
:100A8000290000202A00002070B5124800F08AFAE0
:100A90001149104800F024FA0E4800F031F90F49CE
:100AA000088008460588012000F0F6FA094800F0A1
:100AB00027F90A4908800846068829460C2251432E
:100AC0006422514308463146FFF72AFB0446600082
:100AD00070BD00004C01002040420F004E0000207D
:100AE00070B504460025002600BF2C20005D0128BB
:100AF00001D1022070BD01212C20015500BF2068CA
:100B0000806808404840484000282CD1206B0902EA
:100B100088430221084320632068806889070843CE
:100B20002168886000F03EFC064611E000F03AFCC7
:100B3000801B02280CD9206B022188431021084316
:100B4000206300BF00212C20015500BF0120D1E708
:100B500020688068C00FC0070028E7D1206B022101
:100B60008843206304E0206B202108432063012593
:100B700000BF00212C20015500BF2846BAE7000025
:100B8000F8B504460D46002600200090A06A002813
:100B900015D0A06A012812D0A06A02280FD0A06A3E
:100BA00003280CD0A06A042809D0A06A052806D022
:100BB000A06A062803D0A06A072800D000BF00BFA3
:100BC0002C20005D012801D10220F8BD01212C203C
:100BD000015500BF20688068042108408008002873
:100BE00079D143496868884259D02068806A2A7858
:100BF00001219140084321688862A06A002829D019
:100C0000A06A012826D0A06A022823D0A06A03285F
:100C100020D0A06A04281DD0A06A05281AD0A06A96
:100C2000062817D0A06A072814D0A8682168496947
:100C30004907490F88420DD020684069C008C000AC
:100C40002168486120684069297A4907490F0843AB
:100C5000216848612868082802D0286809283FD1FF
:100C6000244880682968082901D1090501E001218B
:100C7000890508431F4988602868082830D11E4923
:100C80001E480068FFF736FA0A214843009002E048
:100C90000098401E009000980028F9D120E02068BC
:100CA000806A2A78012191408843216888622868F7
:100CB000082802D02868092812D10E4880682968BF
:100CC000082902D1090502E005E0012189058843D0
:100CD0000849886004E0206B202108432063012636
:100CE00000BF00212C20015500BF30466DE70000F9
:100CF000011000000027014040420F004800002082
:100D000001460868006C704770B50446002600254F
:100D1000002C01D1012070BD206B002806D160633A
:100D200000212C200155204600F0B8F8206B10213E
:100D3000084000287ED1002EFCD120688068042164
:100D4000084080080028F5D1206B890188430221E2
:100D50000843206320688068C007C00F0121484015
:100D6000484000280FD12068C06818218843A16836
:100D700008432168C86020680069000100096168B3
:100D80000843216808612068C0684249084021681A
:100D9000C860207E8003617E49030843616A01299F
:100DA00002D00121090300E000210843E168084363
:100DB0002169022901D1042100E0002108430543F3
:100DC000A07E01280ED1607E002803D101200004FE
:100DD000054307E0206B202108432063606B01215D
:100DE00008436063FF21C231E069884203D0216A71
:100DF000E069084305432068C06828432168C8604B
:100E0000A06A002814D0A06A012811D0A06A022884
:100E10000ED0A06A03280BD0A06A042808D0A06ACC
:100E2000052805D0A06A062802D0A06A07280FD19D
:100E3000206800E027E04069C008C00021684861E0
:100E400020684069218D4907490F0843216848619E
:100E50002068C06810490840A84208D1002060639B
:100E6000206B0221884301210843206310E0206B9E
:100E700002218843102108432063606B012108434D
:100E80006063012604E0206B1021084320630126E3
:100E9000304640E71BC2FEFFE7FF3FC310B586B0F8
:100EA000044600BF0C48406B022108430A494863CE
:100EB0000846406B02210840009000BF00BF02209E
:100EC0000190032002900020039001A9034800F044
:100ED00085F906B010BD000000100240000400506B
:100EE000F8B504460D466069082801D1082700E0DE
:100EF0000C2700F057FA064614E0681C002811D0B1
:100F0000002D04D000F04EFA801BA8420AD9206BB5
:100F100004210843206300BF00212C20015500BF9D
:100F20000320F8BD2068006838400028E5D0206B19
:100F300001214902084320632068C0680321890217
:100F40000840002825D1607E002822D12068006852
:100F50000821084008281CD1206880680421084026
:100F6000800800280DD1206840680C218843216842
:100F70004860206BFF210131884301210843206331
:100F800007E0206B202108432063606B01210843A8
:100F90006063207E002802D10C20216808600020B8
:100FA000BFE7000070B50446002520688068042172
:100FB00008408008002828D100BF2C20005D0128AF
:100FC00001D1022070BD01212C20015500BF204617
:100FD000FFF76CF90546002D18D1206B0C4908402D
:100FE000FF210131084320630020606300BF00211E
:100FF0002C20015500BF1C202168086020688068F3
:10100000042108432168886000E002252846D9E7CA
:10101000FEF1FFFF70B50446002500BF2C20005DE7
:10102000012801D1022070BD01212C20015500BFF3
:101030002046FFF7BFF80546002D0CD12046FFF7EC
:10104000EFF80546002D06D1206BFF2101318843C2
:1010500001210843206300BF00212C20015500BF5F
:101060002846E0E710B50020C0430A49C8620020C6
:10107000C862401E086300200863401E886200208A
:101080008862401E48620020486200F0DBF90020C0
:1010900010BD00000010024070B5044600F082F957
:1010A00006462546681C002802D0054800682D1811
:1010B00000BF00F077F9801BA842FAD370BD000092
:1010C00008000020F0B502460B4600206AE001252A
:1010D000854029461940002963D0354D8608B60061
:1010E000AC598507EE0E0F25B5402C4005252D0780
:1010F000AA4201D1002505E02E4DAA4201D10125C9
:1011000000E002258607F60EB540A54223D1284D02
:1011100020352D688D43264E2036356035466D6866
:101120008D437560224D603D2D688D43204E603E9D
:10113000356035466D688D4375608507EE0E0F2569
:10114000B5402C461A4D8608B600AD59A543184E39
:101150008708BF00F551156847000326BE40354398
:101160001560C508AE0015462035AD594607F70E87
:101170000F26BE40B543C608B60017462037BD51FE
:10118000956847000326BE40B54395605568012623
:101190008640B5435560D56847000326BE40B54339
:1011A000D560401C1D46C540002D90D1F0BD00000B
:1011B00060180240000400507047000010B504465B
:1011C0000548C0682040002804D00348C460204679
:1011D000FFF7F2FF10BD00000018024070B5034693
:1011E0000022CBE0012696400C683440002C71D0E0
:1011F0004D68022D02D04D68122D15D1D508AE00D4
:101200001D462035A8595507EE0E0F25B540064658
:10121000AE4330465607F60E0D69B5402843D50853
:10122000AD001E4620367051186856000325B540A3
:101230000646AE4330460D79AD07AD0F5600B540BA
:10124000284318604D68012D08D04D68022D05D047
:101250004D68112D02D04D68122D18D19868560096
:101260000325B5400646AE4330465600CD68B5402E
:10127000284398605868012595400646AE4330469D
:1012800010264D6835402D09954028435860D86890
:1012900056000325B5400646AE43304656008D68DD
:1012A000B5402843D860012636074D683540B54221
:1012B00063D1354D9608B600A8599507EE0E0F2557
:1012C000B5400646AE43304605252D07AB4202D158
:1012D000002506E051E02D4DAB4201D1012500E093
:1012E00002259607F60EB5402843274D9608B6000E
:1012F000A851254D203528680546A54328460126D6
:1013000036044D683540B54202D10546254328468E
:101310001D4D2035286068680546A54328460126EE
:1013200076044D683540B54202D10546254328462E
:10133000154D20356860144D603D28680546A5436D
:101340002846012636054D683540B54202D105468E
:10135000254328460C4D603D286068680546A54336
:101360002846012676054D683540B54202D105462E
:1013700025432846044D603D6860521C0D68D540E9
:10138000002D00D02EE770BD601802400004005010
:10139000024613690B40002B01D0012000E0002021
:1013A00070470000014800687047000000000020FE
:1013B00003480068034909684018014908607047FC
:1013C000000000200800002010B50024032000F0D9
:1013D00009F8002801D0012401E000F035F820468A
:1013E00010BD0000F8B50446002513480068002829
:1013F0001ED0114801687D20C000FEF77BFE074625
:1014000039460E480068FEF775FE064600F0B8FB48
:1014100000280BD1042C07D200222146401E00F0E8
:1014200041F80748046004E0012502E0012500E0DE
:1014300001252846F8BD00000800002048000020D3
:10144000040000207047000008B500BF0E48006887
:10145000012108430C49086008460068C007C00F16
:10146000009000BF00BF00BF07484038C06B89052F
:10147000084305494039C8630846C06B0904084061
:10148000009000BF00BF08BD4010024000BFC20670
:10149000D20E01219140024A116000BF7047000046
:1014A00000E100E070B504460D4616462946204688
:1014B00000F0C2FE70BD00000D4A126803239B03BA
:1014C0009A4302430A4B1A600A4A126904231A43D8
:1014D000084B1A61012901D130BF02E040BF20BF93
:1014E00020BF044A126904239A43024B1A617047D1
:1014F0000070004000ED00E070B504460D46002C81
:1015000001D1012070BD65480068C007C00FA84226
:1015100018D2624800684008400028435F490860CC
:10152000FFF740FF064607E0FFF73CFF801B5C49E2
:10153000884201D90320E5E758480068C007C00F7A
:10154000A842F1D1022120680840022815D10421C7
:1015500020680840042807D1524880680721090301
:10156000884340184F4988604E4880680F2109021F
:101570008843A16808434B4988602078C007C00FA2
:10158000002848D06068012808D146480068012139
:1015900089040840002822D10120B3E760680028B0
:1015A00008D140480068012189020840002816D16E
:1015B0000120A7E76068042808D13A484030C06994
:1015C0000221084000280AD101209BE7354840301D
:1015D000006A02210840002801D1012092E7314829
:1015E0008068C008C000616808432E498860FFF722
:1015F000D9FE064607E0FFF7D5FE801B2849884242
:1016000001D903207EE727488068382108406168B7
:10161000C9008842EFD121480068C007C00FA84226
:1016200018D91E4800684008400028431B4908603C
:10163000FFF7B8FE064607E0FFF7B4FE801B184927
:10164000884201D903205DE714480068C007C00F35
:10165000A842F1D1042120680840042808D111488B
:101660008068072109038843E16808430D498860C1
:1016700000F03AF80B4989680F2212021140090A5A
:101680008900094A515CC906C90EC840074908606B
:1016900007480068FFF7A6FE34E70000002002407C
:1016A0008813000000100240F834000848000020B1
:1016B0000400002001480068704700004800002036
:1016C00000B5FFF7F7FF06498968072212031140AA
:1016D000090B8900034A515CC906C90EC84000BD08
:1016E000001002403835000870B588B020222B4920
:1016F0006846FEF729FD2A488068382108400028FE
:1017000014D12748006809020840C10A01258D400C
:1017100023484068072149030840460BB1006A4648
:1017200050582946FEF7E6FC044634E01C48806821
:1017300038210840082801D11A4C2CE0184880684C
:1017400038210840202801D1840224E01448806810
:101750003821084018281DD1114840681249084016
:10176000000C12498988C905C90D884202D101249B
:10177000E40310E00A4840680B490840000C0B499C
:101780000989C905C90D884202D14B24640202E0CF
:10179000002400E00024204608B070BDD0340008CA
:1017A0000010024000366E010000FF014001FF1FE3
:1017B00070B50446002C01D1012070BD2078C0070F
:1017C000C00F00281ED0E348866838210E40082E3E
:1017D00004D16068002815D10120EEE700BF012187
:1017E00089046068884205D1DA4800680843D9490D
:1017F000086006E0D7480068012189048843D5497C
:10180000086000BF02212068084002287BD1D1482F
:101810008068382108400646002E48D1CD4800682F
:10182000012189020840002804D02069002801D144
:101830000120C2E7C7484068000C0004A1690843C2
:10184000C4494860FFF7AEFD054606E0FFF7AAFD74
:10185000401B022801D90320AFE7BE4800680121E0
:10186000890208400028F1D0002E18D1B94800683C
:101870000721C902884361690843B6490860FFF738
:1018800033FFB44989680F2212021140090A890006
:10189000B14A515CC906C90EC840B0490860B04899
:1018A0000068FFF79FFD002847D0012085E72069E9
:1018B000002829D0A74800680721C9028843616928
:1018C0000843A44908600846006889150843A149EF
:1018D0000860FFF767FD054606E0FFF763FD401B64
:1018E000022801D9032068E79A480068012189028B
:1018F00008400028F1D097484068000C0004A16916
:1019000008439449486018E092480068FF2101317B
:10191000884390490860FFF745FD054606E0FFF75C
:1019200041FD401B022801D9032046E78948006891
:101930000121890208400028F1D1082120680840CF
:1019400008286CD18348806838210840182840D185
:1019500080484030006A02210840002804D0E06935
:10196000002801D1012028E77A4840687D490840D5
:10197000218C0904084377494860FFF713FD0546A9
:1019800006E0FFF70FFD401B022801D9032014E7F2
:1019900070484030006A022108400028F1D0182E1B
:1019A0000FD1FFF7A1FE6B4989680F221202114087
:1019B000090A8900684A515CC906C90EC8406749CE
:1019C000086067480068FFF70DFD002842D001203D
:1019D000F3E6E069002823D05E484030006A012128
:1019E00008435C4940310862FFF7DCFC054606E02D
:1019F000FFF7D8FC401B022801D90320DDE655483B
:101A00004030006A022108400028F1D05148406867
:101A100054490840218C090408434E49486019E0A4
:101A20004C484030006A400840004A494031086252
:101A3000FFF7B8FC054606E0FFF7B4FC401B0228A0
:101A400001D90320B9E643484030006A022108402A
:101A50000028F1D1042120680840042877D13D48AE
:101A600080683821084020280BD13A484030C069AE
:101A70000221084000286AD0A068002867D1012010
:101A80009BE6A068002808D03248006903210904B9
:101A90008843E16808432F49086100BFA068012816
:101AA00008D12C484030C069012108432949403100
:101AB000C86121E0A06805280FD126484030C069E0
:101AC0000421084323494031C8610846C069012107
:101AD000084320494031C8610EE01E484030C069CB
:101AE000400840001B494031C8610846C0690421D4
:101AF000884318494031C86100BFA068002813D04E
:101B0000FFF750FC054607E0FFF74CFC401B164969
:101B1000884201D9032050E60E484030C0690221B6
:101B200008400028F0D012E0FFF73CFC054607E033
:101B3000FFF738FC401B0C49884201D903203CE6E2
:101B400004484030C069022108400028F0D100203C
:101B500033E6000000100240F8340008480000207E
:101B600004000020FFFF00FE881300000348006906
:101B700002210843014908617047000000E000E0CD
:101B800070B504462546681E0949884201D90120DE
:101B90000CE0681E074948610321081F00F04CFB58
:101BA00000200449886107200861002070BD000002
:101BB000FFFFFF0000E000E00348006902218843C6
:101BC000014908617047000000E000E0704770477D
:101BD0007047000010B50446002C01D1012010BD53
:101BE000A07F00280BD16077204600F047FE206AD6
:101BF000002801D1074820622046216A8847022038
:101C0000A077211D206800F0DFFC0120A0770020D4
:101C1000E5E70000191C0008704701460868C06825
:101C2000012318430B68D860086880684207520F88
:101C3000062A05D008680068012318430B6818605D
:101C40000020704770477047704710B50446206801
:101C5000006902210840400800281CD02068C068A4
:101C600008404008002816D0481F2168086101205C
:101C70002077206880698007800F002803D02046E5
:101C8000A16E884705E02046216F88472046616F96
:101C900088470020207720680069042108408008D8
:101CA00000281DD02068C06808408008002817D090
:101CB000C8432168086102202077206880690321D9
:101CC00009020840002803D02046A16E884705E09D
:101CD0002046216F88472046616F88470020207783
:101CE0002068006908210840C00800281CD020682E
:101CF000C0680840C008002816D0C84321680861A1
:101D0000042020772068C0698007800F002803D056
:101D10002046A16E884705E02046216F884720466F
:101D2000616F8847002020772068006910210840F3
:101D3000000900281DD02068C0680840000900285C
:101D400017D0C84321680861082020772068C0693F
:101D5000032109020840002803D02046A16E8847CD
:101D600005E02046216F88472046616F88470020A4
:101D7000207720680069C007C00F01214840484013
:101D800000280CD02068C06808404840484000281F
:101D900005D0C81E216808612046A16D88472068CB
:101DA000006980210840C00900280CD02068C06864
:101DB0000840C009002806D0C8432168086188206F
:101DC0000159204688472068006940210840800961
:101DD00000280BD02068C06808408009002805D082
:101DE000C843216808612046216E88472068006941
:101DF00020210840400900280CD02068C068084015
:101E00004009002806D0C843216808618020015994
:101E10002046884710BD704770B504460D461646EB
:101E200000BF607F012801D1022070BD01206077D2
:101E300000BF0220A077002E06D0042E1BD0082E53
:101E400033D00C2E62D147E02946206800F000FC18
:101E500020688069082108432168886120688069BA
:101E600004218843216888612068806929690843C2
:101E7000216888614BE02946206800F02FFC20682B
:101E800080690121C902084321688861206880694E
:101E90000121890288432168886120688069296955
:101EA000090208432168886131E02946206800F072
:101EB00063FC2068C069082108432168C861206864
:101EC000C069042188432168C8612068C069296904
:101ED00008432168C8611AE02946206800F098FC90
:101EE0002068C0690121C90208432168C8612068CF
:101EF000C0690121890288432168C8612068C069DE
:101F00002969090208432168C86100E000BF00BFD9
:101F10000120A07700BF0020607700BF00BF84E7EA
:101F200010B50446002C01D1012010BDA07F00286F
:101F30000BD16077204600F0A1FCA06B002801D1F6
:101F40000748A0632046A16B88470220A077211D87
:101F5000206800F039FB0120A0770020E5E70000B1
:101F6000651F000810B586B00446354920688842D0
:101F700064D100BF33480068C91408433149086080
:101F800008460068C9140840009000BF00BF00BFA9
:101F90002C484038406B012108432A4940394863A6
:101FA0000846406BC007C00F009000BF00BF00BFD5
:101FB0000846406B012108432249403948630846DE
:101FC000406BC007C00F009000BF00BF00BF0846B5
:101FD000406B012108431B49403948630846406B68
:101FE000C007C00F009000BF00BF02200290049005
:101FF00000200390202001900220059001A90520D7
:102000000007FFF7EBF802200190059001A90520D9
:102010000007FFF7E3F8102001900220059001A9C6
:1020200005200007FFF7DAF88020019002200590D4
:1020300001A905200007FFF7D1F800BF06B010BDC9
:10204000002C0140401002407047704770B50446B4
:102050000E4601223146206800F0E8FA1049206857
:10206000884203D00F492068884201D1012000E056
:102070000020002806D02068406C0121C9030843D5
:10208000216848642068806845076D0F062D05D0DB
:10209000206800680121084321680860002070BDA5
:1020A000002C01400020004010B5044600F0BAF8B2
:1020B00010BD70477047704710B50446002C01D121
:1020C000012010BDA069002800D000E000BF3D2025
:1020D000005D002805D100213C200155204600F07C
:1020E00031F824213D2001552068C06801214903B1
:1020F00088432168C860204600F04AFC206A002816
:1021000002D0204600F028FC206800690121C902A5
:102110008843216808612068406908218843216854
:1021200048612068C0680121490308432168C860EC
:102130000020206420213D2001553E200155002033
:10214000BFE7000010B586B004462B4920688842DE
:1021500050D100BF2948406B0221084327494863FA
:102160000846406B02210840009000BF00BF00BF3E
:102170002248406B0843214948630846406B0221CE
:102180000840009000BF00BF00BF1C4840300068FE
:102190004903084319494031086008460068012195
:1021A00089030840009000BF00BF1020019002206A
:1021B000029000200390022004900120059001A9C4
:1021C0000F48FFF70BF8202001900220029000201A
:1021D0000390022004900120059001A90848FEF711
:1021E000FDFF012200211B20FFF75CF91B20FFF7F8
:1021F0004DF900BF06B010BD00380140001002408C
:102200000004005000BFFEE7002070470020704728
:1022100010B5FFF7C7F810BD01480068704700000F
:102220001000002002480068401C01490860704707
:10223000100000207047000010B5002819DA1A4A73
:1022400003071B0F083B9B089B00D2588307DC0E3B
:10225000FF23A3409A438B071B0E8407E40EA34081
:102260001A43114B0407240F083CA408A4001A5178
:1022700018E00E4A03231B02D21883089B00D25891
:102280008307DC0EFF23A3409A438B071B0E8407B2
:10229000E40EA3401A43054B032424021B198408AF
:1022A000A4001A5110BD00001CED00E000E100E0A8
:1022B00010B5002819DA1A4A03071B0F083B9B08C0
:1022C0009B00D2588307DC0EFF23A3409A438B0761
:1022D0001B0E8407E40EA3401A43114B0407240F7E
:1022E000083CA408A4001A5118E00E4A03231B025C
:1022F000D21883089B00D2588307DC0EFF23A3402B
:102300009A438B071B0E8407E40EA3401A43054B28
:10231000032424021B198408A4001A5110BD0000D4
:102320001CED00E000E100E07047002070477047BE
:102330000FB468460099012914D002290DD0032951
:1023400006D0042913D10C4A01691268116400BF38
:10235000094AC1681268D16300BF074A81681268E0
:10236000916300BF044A41681268516300BF00BF17
:1023700000BF04B0704700007C00002010B5024888
:10238000FEF748FE10BD00004C010020FFB587B0ED
:102390001C46079961430846FF21FDF7C1FE80B244
:1023A0000690089961430846FF21FDF7B9FE80B207
:1023B0000590099961430846FF21FDF7B1FE80B2FF
:1023C00004900698FF2801DDFF2000E006980690A3
:1023D0000598FF2801DDFF2000E00598059004988E
:1023E000FF2801DDFF2000E0049804906421069896
:1023F00048430004000E0390059848430004000E73
:102400000290049848430004000E01900398081AB3
:10241000C6B20298081AC5B20198081AC7B2642E4B
:1024200001DD642000E030460646642D01DD6420B5
:1024300000E028460546642F01DD642000E03846B0
:1024400007463B463246294604200095FFF770FFB9
:102450000BB0F0BDFFB587B01C4607996143084635
:10246000FF21FDF75DFE85B2089961430846FF2113
:10247000FDF756FE86B2099961430846FF21FDF734
:102480004FFE87B2FF2D01DDFF2000E02846054604
:10249000FF2E01DDFF2000E030460646FF2F01DD64
:1024A000FF2000E038460746FF21491B6423109AAD
:1024B0009A1A514308461946FDF732FE401985B273
:1024C000FF21891B6423109A9A1A51430846194622
:1024D000FDF726FE801986B2FF21C91B6423109ADE
:1024E0009A1A514308461946FDF71AFEC01987B2D9
:1024F000642068430004000E0690642070430004CA
:10250000000E0590642078430004000E04906421BE
:102510000698081AC0B203900598081AC0B2029033
:102520000498081AC0B201900398642801DD642061
:1025300000E0039803900298642801DD642000E025
:10254000029802900198642801DD642000E001985F
:1025500001900298009001460420019B039AFFF726
:10256000E7FE0BB0F0BD10B5FEF722FF10BD000076
:1025700010B50D484068000C00040C490968084378
:102580000949486008464068094908400749403100
:1025900089880904084304494860C80305498860DC
:1025A0006420FEF7EFF910BD001002400001FF1F8C
:1025B000FFFF00FE00ED00E010B50248FFF745FB0D
:1025C00010BD00009401002010B50268154B984220
:1025D00005D170241346A3431A464B681A43114B86
:1025E000984202D0104B984206D10324240213468D
:1025F000A3431A46CB681A4380241346A3434C696D
:1026000023431A4602608B68C3620B688362054BE2
:10261000984202D0044B984201D10B690363012315
:10262000436110BD002C01400020004070B5CD0674
:10263000ED0E0124AC402346046A9C430462046A04
:10264000CE06F60E1546B5402C43046270BD000060
:1026500070B5056A6D086D000562026A4368846999
:1026600070262546B5432C46A408A4000D682C43CB
:1026700002261546B5432A468D682A43154DA842C1
:1026800000D103E0144DA8420AD100BF0826154628
:10269000B5432A46CD682A4304261546B5432A4643
:1026A0000C4DA84202D00C4DA8420CD1FF26013699
:1026B0001D46B5432B4676001D46B5432B464D6956
:1026C0002B438D692B43436084614D6845630262EF
:1026D00070BD0000002C01400020004070B5056A6C
:1026E0001026B5430562026A4368846907263603EB
:1026F0002546B5432C46032636022546B5432C46CF
:102700000D682D022C4320261546B5432A468D68B8
:102710002D012A43164DA84200D103E0154DA842D1
:102720000BD10AE080261546B5432A46CD682D0117
:102730002A4340261546B5432A460D4DA84202D0ED
:102740000C4DA8420ED10126B6021D46B5432B46BC
:1027500076001D46B5432B464D69AD002B438D6970
:10276000AD002B43436084614D688563026270BD98
:10277000002C01400020004070B5056AFF2601369C
:10278000B5430562026A4368C46970262546B543AD
:102790002C46A408A4000D682C4301267602154699
:1027A000B5432A468D682D022A43174DA84200D111
:1027B00003E0164DA8420CD10BE00126F6021546A7
:1027C000B5432A46CD682D022A4376101546B543F7
:1027D0002A460D4DA84202D00C4DA8420ED101262A
:1027E00036031D46B5432B4676001D46B5432B46A2
:1027F0004D692D012B438D692D012B434360C4612D
:102800004D68C563026270BD002C0140002000408D
:1028100070B5056A01263603B5430562036A44684C
:10282000C269072636031546B5432A4603263602F3
:102830001546B5432A460D682D022A430126760324
:102840001D46B5432B468D682D032B43094DA842E9
:1028500002D0094DA84207D10126B6032546B5434B
:102860002C464D69AD012C434460C2614D6805643E
:10287000036270BD002C0140002000400E498165BC
:102880000E49C1650E4901660E4941660E498166D1
:102890000E49C1660E4901670E4941670E498167BD
:1028A0000E49C1670E4A80210A500E4A84210A50FF
:1028B0000D4A88210A507047A9200008B32000085B
:1028C000B5200008B7200008471C0008491C000874
:1028D000171E0008492000084B200008451C00086E
:1028E000CF1B0008D11B0008CD1B000808B500BF96
:1028F000154800680121C9030843134908600846C8
:1029000000680121C9030840009000BF00BF0F48C4
:102910000F49086017210E48C16063200C494860C8
:1029200000210B48816001614161FFF753F91320D9
:1029300001218140074A116000BF0021FFF7B8FC68
:102940000348FFF76AF908BD40100240002000402C
:102950009401002000E100E04022016A11400029BA
:1029600015D00168496992019143426A1143026896
:10297000516101221203416A914208D101684969FB
:10298000032252039143826A1143026851617047E6
:10299000FEB5044620680069012149038843E168C7
:1029A0000843216808612169A068084361690843F8
:1029B00002902068C0685E49084002990843216877
:1029C000C860E0690290206840690121C90288431B
:1029D000029908432168486120684069032109027F
:1029E0008843A1690843216848610121C902E0695F
:1029F00088424ED1FEF764FE0546626851001922F6
:102A00006A431046FDF776FB06466421FDF772FB2C
:102A100007016268510019226A431046FDF76AFBFC
:102A200006466268510019226A431046FDF762FBB0
:102A300064210090FDF75EFB64214843301AC0001A
:102A400032300190FDF756FBF821084040003F1856
:102A50006268510019226A431046FDF74BFB064697
:102A60006268510019226A431046FDF743FB642156
:102A70000090FDF73FFB64214843301AC00032301C
:102A80000190FDF737FB4007400F38182168886038
:102A90004CE0FEF715FE05466268910019226A4374
:102AA0001046FDF727FB06466421FDF723FB0701CF
:102AB0006268910019226A431046FDF71BFB064627
:102AC0006268910019226A431046FDF713FB6421E6
:102AD0000090FDF70FFB64214843301A00013230AB
:102AE0000190FDF707FBF02108403F186268910054
:102AF00019226A431046FDF7FDFA06466268910006
:102B000019226A431046FDF7F5FA64210090FDF79B
:102B1000F1FA64214843301A000132300190FDF788
:102B2000E9FA0007000F381821688860FEBD000030
:102B3000F3E9FFFF074800680068202108402028CB
:102B400007D1044909684968C8B202490968486060
:102B500000BF704708010020F0B58BB0FFF75CFBA9
:102B60000A90FFF755FB0990FB4909980968401A3C
:102B70007D21C900884202D3F74909980860F748C7
:102B8000007841014018F6494018401CF549097881
:102B9000405CC000F449441800200890F3490A98AA
:102BA0000968884205D3F1490A980968401A0790D4
:102BB00008E0EE4800680021C943091A0A9808187D
:102BC000401C0790A088002805D101200890E74903
:102BD0000A98086019E0A1880798814215D8012059
:102BE0000890A08841000798814206D9A088DF4953
:102BF00009684018DD49086002E0DC490A9808606D
:102C0000DB480068401CDA490860089800286FD04B
:102C100000250026002006902078030000F0B8F977
:102C2000060417396E90C116607841004018D149EA
:102C30000D5C607841004018CE49401846786078B5
:102C400041004018CB4940188078069073E1A17884
:102C5000C7480068FDF74EFACFB26078602148435C
:102C6000C549401879007918455C6078602148436F
:102C7000C149401879007918401846786078602179
:102C80004843BD494018790079184018807806906B
:102C900051E10521B6480068FDF72CFA0591059829
:102CA000002826D10521B2480068FDF723FA0490D8
:102CB000A178FDF71FFACFB2607818214843AF49D9
:102CC000401879007918455C607818214843AB4971
:102CD00040187900791840184678607818214843E0
:102CE000A64940187900791840188078069004E0C9
:102CF0002FE100250026002006901CE1A1789C48C9
:102D00000068FDF7F7F9CFB26078062148439C4987
:102D1000401879007918455C607806214843984945
:102D200040187900791840184678607806214843A1
:102D30009349401879007918401880780690FAE095
:102D4000A1788B480068FDF7D5F9CFB2552F0ADA84
:102D500078003818FF21081AC5B200267800381804
:102D6000C0B206901CE0AA2F0DDA38465538C7B21B
:102D7000002578003818C6B278003818FF21081AE4
:102D8000C0B206900CE03846AA38C7B278003818AE
:102D9000C5B278003818FF21081AC6B20020069084
:102DA000C9E060783021484376494018008DC0B2B0
:102DB000059060783021484372494018808C401C4F
:102DC00005994843C0B20490694804990068FDF72A
:102DD00091F907466078302250436A4A11583846C4
:102DE000FDF788F90391607830225043654A115805
:102DF0000398401CFDF77EF9029163480499FDF7A2
:102E00008FF907465A4804990068FDF773F94F4354
:102E1000642138460097FDF76DF9019054480499F4
:102E20000068FDF767F90F46607830225043554A35
:102E30008018406A411C3846FDF75CF9002975D1BD
:102E40006178302251434F4A8918091D039A920034
:102E500089584A008918474A515C6423019A9A1A92
:102E60005143627830235A43464BD218121D029BBD
:102E70009B00D2585300D2183E4B9A5C019B5A4398
:102E800088186421FDF736F9C5B2617830225143C4
:102E90003C4A8918091D039A920089584A008918EA
:102EA000344A891849786423019A9A1A51436278FE
:102EB00030235A43334BD218121D029B9B00D25829
:102EC0005300D2182B4BD2185278019B5A438818C2
:102ED0006421FDF70FF9C6B2617830225143294AC7
:102EE0008918091D039A920089584A008918214AB5
:102EF000891889786423019A9A1A51436278302399
:102F00005A43204BD218121D029B9B00D2585300EB
:102F1000D218184BD2189278019B5A438818642112
:102F2000FDF7E8F8C0B2069004E0FFE700250026B0
:102F30000020069000BF00BFA01D08490978405C32
:102F400000901248037831462846069AFFF782FA25
:102F500000BF0BB0F0BD00004000002028000020A2
:102F60005400002021000020883900083C00002087
:102F700024000020E837000878350008583700089A
:102F8000D037000808380008102700002200002071
:102F900030B47446641E2578641CAB4204D3635D70
:102FA0005B00E31830BC18471D46F8E702E008C88C
:102FB000121F08C1002AFAD170477047002001E0B3
:102FC00001C1121F002AFBD17047000070B50D48E7
:102FD0000078410140180C490C5C601EC5B200BF6E
:102FE00021460A480078401CFDF79AF8C8B2074904
:102FF000087008460078A842F2D000200449086012
:1030000070BD000028000020540000202100002096
:10301000240000200E4A12785301D2180D4B985C00
:10302000421ED1B200BF0C4A1278002A03D1421EC0
:10303000094B1A7004E0084A1278521E064B1A70A7
:10304000054A12788A42EED00022044B1A6070477B
:10305000280000205400002021000020240000202F
:10306000002001490870704750000020F0B585B07D
:1030700014200490FF2003901E200290FFF7C4F854
:10308000002821D00F240025002614211C480068A8
:10309000FDF730F8009100990A02501A1321FDF74C
:1030A0003FF887B27F2F02DDFF20C01B87B2384672
:1030B00078434002000C0190E12101984843C0117F
:1030C0001E3080B201900AE0FFF7A0F8002803D07C
:1030D00000240725002602E0FF240025FF26019892
:1030E000C3B2324629462046FFF750F9044800682B
:1030F000401C034908602820FDF752FC05B0F0BDD4
:103100004400002070B5002407250026FF23324626
:1031100029462046FFF73AF92820FDF741FC70BD0B
:1031200070B504460448055D2B46FF221146104643
:10313000FFF72CF970BD0000F03400080EB5FDF764
:1031400091FFFEF741F9FDF711FAE1204002FDF78A
:10315000FBFB63211720FDF735FAFFF7C7FBFDF7EF
:103160007BFAB44802900127012001900125B24862
:10317000B2490978405CB24908700020B149087032
:10318000B1490860FDF74AFCB048007800904FE173
:10319000FDF710FB0446FFF73BF80646052C07D168
:1031A000AA48007800900020A849087001273FE154
:1031B000062C14D1A548007800280FD100980328C8
:1031C00006D1A2490870A24806600020029005E0DE
:1031D0009E480078009001209C49087028E19D4895
:1031E0000078012807D103209849087000209A49E7
:1031F0000870984908709548007800287ED001280A
:1032000069D002287BD003287AD12300FFF7C0FEC3
:1032100005510427160560005BE0012D02D1002056
:103220008849087000208849086001208749087093
:103230008A4908700020FDF777F84AE0012D02D195
:1032400000208049087000207F49086001207F49E4
:103250000870824908700020FDF766F839E0FFF732
:1032600064F8002803D000207849087020E07A48EC
:103270000078002809D1FDF757F8754806607648B0
:103280000078401C7449087012E0734800780128E7
:103290000ED1002070490870012D01D169490870D4
:1032A0000020694908600120684908706B4908706E
:1032B0000FE067480068002809D065480168029857
:1032C0000818B04203D85B480290FDF7A7FB00BF87
:1032D00000BF00BF9BE0022C26D0032C21D0042C81
:1032E00025D100231A4619461846FFF74FF8012D3D
:1032F00002D1002053490870002002E01CE05EE08B
:1033000081E051490860FFF710F8002806D0002737
:103310000320009000204D49087001E0FDF77EFB7E
:1033200086E0FFF777FE03E0FFF750FE00E000BF06
:1033300000BFFFF711FC6AE0002C22D0022C04D061
:10334000032C0CD0042C1BD10AE0012F03D1012047
:103350003E49087002E00127032000902DE02CE098
:1033600000231A4619461846FFF710F8012D02D11E
:1033700000203449087000203349086000271CE011
:1033800000BFFEF741FF002806D0012F01D1FFF753
:103390006DFE012001900FE0FEF738FF00280BD0F2
:1033A000012F01D1FFF7AEFE002F03D101980128B4
:1033B00000D101270220019000BF00BF27E0022CAE
:1033C00002D0042C1CD10BE025480078401C80075B
:1033D000800F2349087008460078FFF7A1FE10E02F
:1033E0001F48007800F042F8012018490870012DAC
:1033F00002D100201349087000201349086000E042
:1034000000BF00BF03E003201049087000BF00BFE9
:103410001448006814494018864208D3FEF7F4FEA9
:10342000002802D10220FCF77FFF0E48066000BF93
:10343000AEE60000CA080000F434000823000020B3
:10344000220000202100002024000020290000206C
:10345000140000202A00002019000020180000207D
:10346000200000201C00002060EA000010B5044687
:103470001548005D1549087008460378FF2211467B
:103480001046FEF783FFC820FDF78AFA00231A468C
:1034900019461846FEF77AFFC820FDF781FA0B4857
:1034A0000378FF2211461046FEF770FFC820FDF793
:1034B00077FA00231A4619461846FEF767FFC82018
:1034C000FDF76EFA10BD0000F03400082200002065
:1034D00000000000000000000000000000000000EC
:1034E00000366E0100000000000000000000000037
:1034F000FF804010FF80401000000000000000002E
:1035000000000000000000000000000000000000BB
:1035100000000000000000000100000002000000A8
:103520000300000004000000060000000700000087
:10353000080000000900000000000000000000007A
:103540000000000000000000010000000200000078
:103550000300000004000000000000000000000064
:10356000000000000000000000366E0100000000B6
:1035700000000000000000008C00007E00117100BF
:10358000236300345600464800573B00692D007AFB
:1035900020008B12009D0500AE000FA800259700AB
:1035A0003B86005274006863007E5100944000AB7B
:1035B0002E00C11D00D70C05DE0012C80020B2008D
:1035C0002D9C003B8600486F0056590063430071F4
:1035D0002D007E17008C0000726A00746A00746A05
:1035E00000746A00746A00386A00386A00386A0039
:1035F000386A00386A00006A84006A84006A8400BD
:103600006A84006A84000084000084000084000052
:1036100084000084380084380084380084380084B2
:10362000380084740084740084740084740084748A
:10363000008474000074000000000000000000001E
:103640000000000000000000000001000002000077
:103650000400000700000B00001200001B000029FE
:1036600000003B00005300007200009A0000B320ED
:1036700000C83B00DA5100E96400F47100FB7B00F4
:10368000FF7F00FF8300FF9300FFAA00FFC800FF39
:10369000EB00FFFF11FFFFFF4000504300524900C5
:1036A0005954006762007773008B80009A800592FE
:1036B000800C7F80166780204D802D31803C1380E8
:1036C0004800805A00807005808007807B058070EC
:1036D0000580660280580080440080340080280005
:1036E000801602800A027A000C6800215900314DD0
:1036F000003D45004640004B80859A6F739A5F629B
:103700009A50529A3E419A2E309A1F1E9A0F0F9A43
:1037100000009A000F88001E7500306000414D00C7
:10372000523B006225007313008500007313006292
:103730002500523B00414D003060001E75000F888F
:1037400000009A0F0F9A1F1E9A2E309A3E419A50EF
:10375000529A5F629A6F739AFF0000FF8000FFFF2A
:103760000000FF0000FFFF0040FF8000FFFF00FFA0
:10377000FF4000FF0040FF0080FF00FF8000FFFFD0
:1037800000FFFF0080FF0040FF0000FF4000FF80BF
:1037900000FFFF00FFFFFFFFFF00FF8000FF400072
:1037A0000000FF0080FF00FFFF80FFFFFFFFFF80A2
:1037B000FFFF00FFFF0080FFFF000000FF00000090
:1037C000FFFF000000FF000000FFFF000000FF00FF
:1037D00090004B00AE9490570047AE004052A500B9
:1037E000B0964D8B006300A37D00466400007828EE
:1037F000005A41000096000073730000B43C00AA18
:103800003C3C3C00000000000400000001000000FF
:10381000020000000700000001000000000000009E
:103820000000000000000000000000000000000098
:10383000050000009A0B00000400000006000000D4
:103840000500000008000000060000000000000065
:103850000000000000000000000000000000000068
:10386000050000009A0B00000400000004000000A6
:103870000300000009000000040000000000000038
:103880000000000000000000000000000000000038
:10389000050000009A0B0000040000000500000075
:1038A0000700000003000000050000000000000009
:1038B0000000000000000000000000000000000008
:1038C000050000009A0B000003000000010000004A
:1038D00008000000060000000000000000000000DA
:1038E00000000000000000000000000000000000D8
:1038F00001000000A086010002000000020000009C
:1039000007000000000000000000000000000000B0
:1039100000000000000000000000000000000000A7
:103920000100000050C30000020000000100000080
:103930000400000000000000000000000000000083
:103940000000000000000000000000000000000077
:1039500001000000F0490200080000000100000022
:103960000600000004000000030000000500000045
:10397000070000000800000009000000000000002F
:1039800001000000204E000001002000E20464005D
:10399000010120001E0064000102200018006400E4
:1039A000010320001E0064000104200014006400D4
:1039B000020008001E006400020108001E006400EE
:1039C000020208001E006400020308001E006400DA
:1039D000020408001E00640003000200A60964003F
:1039E00003010200A609640003020200A6096400A4
:1039F00003030200A6096400050004001E00640021
:103A0000050104001E006400050204001E0064009D
:103A1000050304001E00640005040400E8036400BC
:103A200005050400F401640005060400DC056400DB
:103A300005070400C80064000000010000006400E5
:103A400000010100000064000002010000006400A9
:103A50000003010000006400000401000000640095
:103A60000005010000006400000601000000640081
:103A7000000701000000640000080100000064006D
:103A80000009010000006400A83A000800000020BE
:103A90007C000000AC2F0008243B00087C000020C4
:103AA000A4050000BC2F0008000000000400000076
:103AB0000100000000000000000000000000000005
:103AC0000100000000000000000080000000000075
:103AD00000010000000000000000000002000000E3
:103AE00001000000000000000000000000000000D5
:103AF00000366E01180000000000000020000102E6
:103B0000030405060708090A0B0C0D0E0F1011120D
:103B1000131415161718191A1B1C1D1E000000007F
:043B200000000000A1
:04000005080000C12E
:00000001FF
