:020000040800F2
:1000000060070020D9000008E921000891210008BC
:1000100000000000000000000000000000000000E0
:100020000000000000000000000000004D22000859
:10003000000000000000000031220008F123000849
:10004000000000000000000000000000EB000008BD
:10005000EB0000085D0B0008670B0008710B00083F
:100060000000000000000000000000000000000090
:10007000EB000008EB000008EB00000800000000A7
:1000800000000000EB000008000000004924000808
:10009000000000000000000000000000EB0000086D
:1000A00000000000EB00000800000000E527000849
:1000B0000000000000000000000000000000000040
:1000C0000448854600F0B0F9004800473D2C000880
:1000D000C046C046600700200448804704480047E7
:1000E000FEE7FEE7FEE7FEE7FEE7FEE7F92300088E
:1000F000C100000830B50B46014600202022012433
:1001000009E00D46D5409D4205D31D469540491B4B
:100110002546954040191546521E002DF1DC30BD94
:1001200070B500242546002801DA01244042002948
:1001300001DA01254942FFF7DDFFAC4200D0404221
:10014000002C00D0494270BD03460B439B0703D0EF
:1001500009E008C9121F08C0042AFAD203E00B788C
:100160000370401C491C521EF9D27047D2B201E004
:100170000270401C491EFBD270470022F6E710B502
:1001800013460A4604461946FFF7F0FF204610BD05
:10019000024670B54A40D30FDB0740002DD04A001D
:1001A0002AD0010E140E000212020919400A520A46
:1001B0008418E50104465443000A120A2E045043F1
:1001C000A4194219200CC543AA18120C0125AD032D
:1001D000521C521912047F39240400D0521C1043BF
:1001E00001D44000491EC2B20C06C0092018401CB0
:1001F0004008802A02D003E0002070BD4008400083
:10020000002900DA0020184370BD70B54B005B0870
:1002100003430BD04B005C0D002633466542B341CF
:10022000D417AD1AA34102DB0020014670BD1205B0
:100230003018514170BD10B500229623114600F0D0
:100240005AF810BD0EB505490291002100910A46E9
:100250000B46019100F095F803B000BD3304000097
:10026000410040020122400AD205090E80187F2970
:1002700001DA00207047962903DC9622511AC84003
:1002800070479639884070474A0009030123090BDB
:100290001B051943094B10B5520D9A4201DA002093
:1002A00010BD064B34339A4203DC9A1A00F00AF868
:1002B00010BD03495118884010BD0000FF03000025
:1002C000CDFBFFFF10B5202A04DB0846203AD040C2
:1002D000002110BD0B46D340D0402024A21A9140EB
:1002E0000843194610BD002904DA401C490001D119
:1002F00040084000704770B40024050C05D110245C
:10030000000402D1002921D01124050E01D10002E0
:100310000834050F01D10001241D850F01D1800093
:10032000A41C002801DB4000641C002908D0202503
:100330002E1B0D46F540A14000D001212943084362
:1003400001061B1B000ADB1D02D5002070BC704794
:10035000DB05181880180029F8DA401C4900F5D18F
:1003600070BC40084000704710B5002B08DA00242C
:10037000401C614192185B411A4301D14008400082
:1003800010BDF0B51FB482B005460C0003D008467E
:1003900002F0EEFA02E002F0EBFA203002460090A2
:1003A0002146284600F052F8049B059A04460F4661
:1003B00018431143084314D0184610431BD000982B
:1003C00040210A1A18460599FFF77CFF05460E469C
:1003D000009A0599049800F039F8084305D00120E7
:1003E00004E02046394607B0F0BD0020C1170543A0
:1003F0000E432C43374300990E986305401A790544
:10040000E40A00220C43FD0A0A3002D5002001460E
:10041000E9E70105101969410C9C0D9D001969411E
:10042000FFF7A2FFDFE70000064C0125064E05E0BE
:10043000E36807CC2B430C3C98471034B442F7D305
:10044000FFF742FEF83700081838000810B5202AD8
:1004500004DB0146203A9140002010BD914020234A
:100460009C1A0346E3401943904010BD70B58C18A8
:100470000578401C6B075B0F01D10378401C2A11E3
:1004800006D10278401C03E006780E70401C491C1F
:100490005B1EF9D12B0705D40023521E0DD40B701F
:1004A000491CFAE70378401CCB1A921C03E01D7824
:1004B0000D70491C5B1C521EF9D5A142D8D30020F7
:1004C00070BD70B5044600688168490720D5816811
:1004D00010264907002905DA8168C90702D081681A
:1004E0003143816001F0DEF805460DE001F0DAF8F5
:1004F000401B022808D9206B30432063606B012128
:1005000008436063084670BD206880684007EDD4EA
:10051000002070BDF8B5044600688168C943C9076A
:1005200021D18168052211401025012601290ED113
:10053000826802210A4382602068016001F0B2F8FB
:1005400007460CE001F0AEF8C01B022807D9206B6B
:1005500028432063606B304360630120F8BD20684E
:100560008068C007EED10020F8BD000008B500216A
:10057000009101688A68D243D2071BD08B680E4A6B
:1005800013400122002B08D0016B10231943016393
:10059000416B11434163012008BD886810438860A6
:1005A000074806490068FFF7A5FD00E0401E0090DF
:1005B0000028FBD1002008BD1700008040420F003A
:1005C00048000020F0B5192789B006467F010025B4
:1005D00000F070FB38490446884202D30020FF2512
:1005E00006E03648844202D3FF20A52500E0FF2024
:1005F000002103913249022E01D18C422AD8304980
:100600008C4201D87D273F010A21FFF773FD00903E
:100610000A212846FFF76EFD019001F043F804908F
:1006200001F040F80546012E05D10121254801F0D1
:1006300033F8002838D00498281AB8420CD3002385
:100640001A461946184601F027FE1D48844201D873
:1006500000F094FA09B0F0BD0025012E05D101216A
:10066000184801F019F800281ED02802401B132159
:10067000FFF740FD7F2802D9FF21081A80B24043CE
:100680004002000CF5214843C0090A30C3B2039A66
:100690000199009801F000FE142000F03BFA6D1C57
:1006A000EDB2142DD9D3BBE700231A4619461846DC
:1006B00001F0F2FDCEE70000B50E0000710C000065
:1006C000C409000000040050F0B5254D87B0686BE8
:1006D000022420436863686B224F2040059001216B
:1006E000384600F0E5FE01201F4E00900294694656
:1006F00001960394384600F045FF052001F02AF8E2
:10070000012000F007FA052001F02EF80022114622
:10071000052001F033F8686B20436863686B04219F
:1007200020400590384600F0C3FE002003900420CE
:100730000090019602946946384600F023FF062097
:1007400001F008F8012000F0E5F9062001F00CF8AE
:1007500000221146062001F011F807B0F0BD00009C
:10076000001002400004005000001110054A002053
:1007700081180968491C00D0FEE7001D8028F7D3C6
:1007800070470000005F000800B587B000200590AA
:1007900002200090064801900120029005A96846B9
:1007A00000F004FD002800D0FEE707B000BD000007
:1007B000005F000870B50A4D084E084C2946803687
:1007C00008602A462146012000F0D4FD002801D10E
:1007D00080348035B442F4D370BD0000005F00085F
:1007E000A00000200148006870470000005F00087A
:1007F00010B5044600F048FEFFF7C6FFFFF7B6FF4E
:100800002046FFF7D7FF00F0A7FD10BD30B51F4A07
:100810000D4687B01C490024131D116031C31461BB
:1008200054611046946101F091FB602000906D1CB2
:1008300002200195029004940694002269460594D2
:10084000124801F020FB0021104801F0EFFB0422C8
:1008500069460E4801F017FB04210C4801F0E6FB45
:1008600008226946094801F00EFB0821074801F0FB
:10087000DDFB0C226946054801F005FB0C2103480D
:1008800001F0D4FB07B030BD002C0140B8010020BE
:100890007FB51B480268012109050A430260006810
:1008A0000024084003901848164901600321846021
:1008B0000907C4604160042201214261016104769C
:1008C00044768176FF210462C2314462C161052110
:1008D000816200F0F5FA01252D0369460A48019569
:1008E000009400F063FA09200090694601950648DB
:1008F00000F05CFA044800F017FA02F009FC7FBD32
:10090000401002400024014088020020F0B587B06A
:1009100001211F4800F0CCFD1E4F0221384600F097
:10092000C7FD04211A4800F0C3FD1B48416B012597
:1009300029434163416B29400591416B02242143C6
:100940004163416B21400591416B04263143416372
:10095000406B029430400590002001900095039474
:10096000052000F0F7FE6946094800F00BFE6946D5
:1009700038460295009400F005FE6946044800964A
:10098000029400F0FFFD062000F0E4FE07B0F0BD89
:1009900000040050000800500010024010B500F0A4
:1009A00081FE10BDF8B50024FFF7F8FF054601F001
:1009B00041FC3F4A1178884207D0002801D0052128
:1009C00000E0062110700846F8BD00F075F83949BE
:1009D000002288730F7801263B0001F0E0FF060437
:1009E0000D1E34365F1C01285FD14B7B002B5CD180
:1009F0000E708D60CA7358E08B68EB1A282B54D3A5
:100A0000012808D1CA7B002A4FD1012402220A7092
:100A10008D60CE7349E00A7047E0012802D00028BB
:100A20000AD042E08A687D23AA1ADB009A423CD3AE
:100A300005220A70042438E04A7B012A35D10322BA
:100A40000A704D6031E00422E5E7012802D14B7BBA
:100A5000002B11D04B68EB1AFA2B26D30B7B002B03
:100A60000ED0012B0ED0022B0ED0032B0ED0042B58
:100A70000ED0052B0ED00EE00B7B5B1C0B73B7E783
:100A8000022408E0032406E0072404E0082402E02E
:100A9000092400E00A240A700A7306E0002804D141
:100AA0004B7B012B01D10A700C2448732046F8BD02
:100AB0005C000020C002002010B50121014800F0B8
:100AC000EBFD10BD0004005004480021017041738B
:100AD0008173416081600173C1737047C00200205F
:100AE00010B50B4C0949216060600020A060E060F7
:100AF0002061A0610C206061204601F0C0FA2068EE
:100B0000C16820221143C16010BD000000380140BF
:100B10004402002001B57D210098C900484300F03F
:100B200001F808BD71B50B4B00225D690A48009CB5
:100B300000789969444398698842FCD0884201D280
:100B4000091A01E02E1A71188A180146A242F2D33E
:100B500078BD000000E000E04C00002010B501204E
:100B600000F004FD10BD10B5042000F0FFFC10BD26
:100B700010B5802000F0FAFC10BD000070B5002315
:100B80001A461946184601F087FB01F07DFBFFF776
:100B90009BFD3220FFF7BEFF01F082F801218803A0
:100BA00000F0F0FD01F05CF8FFF7B0FE00231A46FC
:100BB0001946184601F070FBFFF786FF0A4C002526
:100BC000032065616072FFF777FF012809D001F00B
:100BD0009DFFE07A002801D0E572257102F098FAB5
:100BE00070BD0120A072F4E70C0000200549002030
:100BF0004860054841690422114341610348C10628
:100C000008607047A00100200020024021433412F8
:100C1000054A0021516005494A6902231A434A6185
:100C2000FF21016070470000A00100200020024069
:100C300070B50D4C0022636901252B436361EFF30E
:100C4000108372B60125ED0440C9521C40C0D2B2D7
:100C50001F2A04D0202AF7D383F3108870BD666959
:100C60002E436661F0E700000020024003494A6914
:100C7000CB141A434A61FF210160704700200240F3
:100C800070B5044600F00EFD0519084C05E000F0B3
:100C900009FDA84201D3032070BD2069C043C003F1
:100CA000F5D503482061002070BD000000200240FF
:100CB0001180000010B500F001F810BDF8B5002655
:100CC00001240A2700F0EEFC0025144800F010FA79
:100CD0001349124800F0BAF9104800F0EDF8014647
:100CE000104801800088641C86196D1CE4B2BD4266
:100CF000EBDB611E3046FFF7FDF90A490839496808
:100D0000002905D04B2212015043FFF7F3F9009060
:100D100000F0C8FC00984000F8BD000088020020E8
:100D200040420F0058000020F8B504460020254638
:100D300020350090287B012815D0012028732068D9
:100D40008168C943C90726D0216BFF220132914334
:100D50000226314321638168D2051143816000F08E
:100D6000A1FC07460FE00220F8BD00F09BFCC01B71
:100D7000022808D9206B1021B043084320630020CB
:100D800028730120F8BD206880680028EDDB206B07
:100D9000B043206305E0206B20210843206301203D
:100DA0000090002028730098F8BD0000F8B50025D9
:100DB000044620340095227B012A37D00122227379
:100DC00003689E68760765D4374F4E68BE424BD0A5
:100DD0009E6A0F78BA4016439E62826A002A1FD02C
:100DE000012A1DD0022A1BD0032A19D0042A17D0A9
:100DF000052A15D0062A13D0072A11D002688B685D
:100E000056697607760FB3420AD05369DB08DB00D8
:100E10005361006842690B7A5B075B0F1A434261BA
:100E20000A68082A04D0092A02D038E00220F8BD56
:100E30001E488368082A07D0012292051343836065
:100E40000868082803D02AE00122D205F6E71948ED
:100E500017490068FFF74EF90A21484300E0401E99
:100E600000900028FBD11AE0986A0E78B2409043B7
:100E700098620968082901D0092910D10B488268B5
:100E8000082904D0012189058A43826007E00121F5
:100E9000C905F9E7016B20221143016301250020F8
:100EA00020732846F8BD0000011000000027014013
:100EB00040420F00480000200068006C70470000AE
:100EC000F8B500250446002803D0206B002802D086
:100ED00008E00120F8BD002060632C210855204661
:100EE00000F09AF8206B1022C00600287EDB2068F4
:100EF000816849077AD4216B13019943022319436E
:100F000021638168C943C9070CD0C168182399437C
:100F1000A3681943C1602068016963680901090970
:100F2000194301612068C168394B1940C160217EB5
:100F3000E06889030843617E666A4B03012E02D094
:100F40000126360300E00026334318432369022BB1
:100F500006D000231843A67E0123012E02D00AE00A
:100F60000423F7E7002924D0216B20263143216395
:100F7000616B19436163E1690E46FF3EC23E02D0D8
:100F8000266A314308432168CE680643CE60A16AD1
:100F9000002912D0012910D002290ED003290CD02B
:100FA00004290AD0052908D0062906D0072904D02B
:100FB0000FE0012109040843DDE721684E69F608C6
:100FC000F6004E6121684E69278D7F077F0F3E43F3
:100FD0004E612168C9680F4E3140814209D100201D
:100FE0006063206B80088000401C00E00CE0206300
:100FF00008E0206B0221884310432063606B184394
:10100000606301252846F8BD206B10432063F8E794
:101010001BC2FEFFE7FF3FC300B50A4887B0426B23
:1010200002210A434263406B00910840059003206F
:101030000190002002906946034800F0A3FA07B02F
:1010400000BD00000010024000040050F8B5044646
:1010500040690D46082804D00C2600F023FB074603
:1010600013E00826F9E7681C0FD0002D04D000F02B
:1010700019FBC01BA84208D9206B04210843206338
:101080000020203420730320F8BD2068006830421F
:10109000E9D0206B01214902084320632068C16820
:1010A00009058A0F0C21002A1AD1627E002A17D165
:1010B0000268120714D5826853070122002B08DB4F
:1010C00043688B434360206B1302984310432063B3
:1010D00006E0206B202318432063606B104360639D
:1010E000207E002801D1206801600020F8BD0000AA
:1010F00070B504460068806840071ED42546203538
:10110000287B012819D0012028732046FFF72EFAEA
:10111000002811D1216B0A4A1140FF2201321143EC
:10112000216300216163297322681C2111602168F9
:101130008A6804231A438A6070BD022070BD0000D3
:10114000FEF1FFFF70B5054604462035287B0128D7
:1011500007D001262E732046FFF7B3F9002802D0EE
:101160000CE0022070BD2046FFF7D4F9002805D11D
:10117000216BFF2201329143314321630021297306
:1011800070BD000010B500210748C943C1620022AC
:10119000C26201630263816282624162426200F064
:1011A000C1FA002010BD000000100240F8B504464E
:1011B00064480E4601780125012968D0012101709B
:1011C000614840680004410F604803688A00604934
:1011D0008A581168CF05FF0DBC4663452AD1436884
:1011E0000F01BF0DBB4225D103698903C90D8B4295
:1011F00020D183685168CF05FF0DBB421AD1C36867
:101200000901090D8B4215D1416993689B039B0B22
:1012100099420FD18169D3689B039B0B994209D1F5
:10122000C36911698FB2BB4204D1036A8900890C7A
:101230008B4220D06146016011680901890D41602F
:1012400011688903C90D01619188C905C90D8160C3
:1012500051680901090DC16091688903890B4161D9
:10126000D1688903890B8161118A89B2C1611169D1
:101270008900890C01627D202168C000012908D005
:101280000027FF43022915D0032933D055E002205F
:10129000F8BD0446FFF7F4FC00284ED1FFF7A6FC8A
:1012A0002046FFF7EDFC05462A4841690422914398
:1012B000416142E07D20C000FFF7E2FC00283CD104
:1012C000376067680FE03846FFF7A2FC7D20C0005A
:1012D000FFF7D6FC05461F48426902218A43426156
:1012E000002D1FD18037A0686168C0014018B84246
:1012F000E9D822E07D20C000FFF7C2FC00281CD105
:101300003760E76813E03846FFF7B0FC7D20C00087
:10131000FFF7B6FC05460F484269C1148A43426193
:10132000002D01D0376008E0012000033F1820693C
:10133000E16800034018B842E5D802480021017076
:101340002846F8BDA0010020001002400021024004
:10135000F831000800200240054901204A69C3070E
:101360001A434A614969002900DA002070470000E9
:1013700000200240F7B53F4C0F46207801285ED090
:10138000012020703C4840683C4900040D68400F33
:1013900082003B4880580268D305DB0D9D422AD16C
:1013A0004D681601B60DB54225D10D699203D20DD7
:1013B000954220D18D684268D605F60DB5421AD106
:1013C000CD681201120D954215D14A698568AD03A9
:1013D000AD0BAA420FD18A69C568AD03AD0BAA4215
:1013E00009D1CD69026996B2B54204D10D6A920065
:1013F000920C95421FD00B6002681201920D4A6058
:1014000002689203D20D0A618288D205D20D8A60E9
:1014100042681201120DCA6082689203920B4A61FF
:10142000C2689203920B8A61028A92B2CA61006911
:101430008000800C0862780603D00120FEBD0220E7
:10144000FEBD7D25ED002846FFF71AFC00280DD1D2
:1014500038460299FFF7ECFB2846FFF711FC0949D3
:101460004A69520852004A610028E9D100212170DE
:10147000FEBD0000A001002000100240002102403B
:10148000F831000800200240064900204A69002A7D
:1014900007DA054A8A60054A8A604969002900DA44
:1014A000012070470020024023016745AB89EFCD42
:1014B000F0B5002350E001249C4022460A404AD067
:1014C0009E08274DB60075192F6EAC469D07EE0E8F
:1014D0000F25B540AE463D4005273F07B84201D134
:1014E000002705E01F4FB84201D1012700E0022785
:1014F000B740AF4214D11A4E8036356895433560F7
:10150000756895437560164E356895433560756806
:101510009543756065462D6E724695436246156625
:1015200005685E000322B24015430560DD08AD008A
:101530002D182E6AAC465D07EF0E0F25BD40AE4359
:1015400065462E628568954385604568A54345607C
:10155000C4689443C4605B1C0A46DA40ABD1F0BD5A
:1015600000180240000400507047000010B5044904
:10157000CA68024202D0C860FFF7F6FF10BD000043
:1015800000180240F0B500237CE0224601249C4074
:10159000A446224075D04C68022C01D0122C0CD1EC
:1015A000DC08A40027183C6A5D07ED0E0F26AE404C
:1015B000B4430E69AE4026433E6205685E000324D4
:1015C000B4400F79A543BF07BF0FB7402F43076053
:1015D0004D68012D05D0022D03D0112D01D0122D03
:1015E0000ED18568CF68A543B7402F438760476811
:1015F0006546AF430D79ED06ED0F9D403D434560D7
:10160000C568A5438C68B4402C43C4604C68E400B2
:1016100037D59D081E4CAD002F193C6E9D07EE0E70
:101620000F25B540AC4305252D07A84201D1002563
:1016300005E0184DA84201D1012500E00225B54082
:101640002543134E3D66124D80352C684F689443F8
:10165000FF0300D514432C606C684F689443BF03AC
:1016600000D514436C6034684D689443ED0200D596
:101670001443346074684D689443AD0200D514433C
:1016800074605B1C0A681446DA4000D07DE7F0BD48
:1016900000180240000400500069084000D00120FA
:1016A000704700000148806870470000000000207B
:1016B00002488168426889188160704700000020F4
:1016C00010B50024032000F009F8002801D00124FF
:1016D00001E000F029F8204610BD000070B50F4E63
:1016E000002471680546002915D07D20C000FEF752
:1016F00001FD01460A480068FEF7FCFC00F0B8FA5C
:10170000002808D1042D06D200222946401E00F0F0
:1017100035F8356000E00124204670BD000000204F
:10172000480000207047000008B509480168012200
:101730001143016000681040009005484038C26BBA
:1017400001040A43C263C06B0840009008BD00005A
:1017500040100240C106C90E0120884001490860BE
:101760007047000080E100E0C106C90E01208840FA
:10177000014908607047000000E100E010B500F08A
:1017800035FD10BD10B50B4B1A680324A403A2430A
:1017900002431A60084803690422134303610129C4
:1017A00006D040BF20BF20BF01699143016110BD39
:1017B00030BFF9E70070004000ED00E0F8B50F46DB
:1017C000060041D04A4D2868C007C00FB84213D266
:1017D00028684008400038432860FFF763FF04464C
:1017E00005E0FFF75FFF011B424881425CD8286893
:1017F000C007C00FB842F4D130683F4C81070DD507
:10180000400704D5A068072109030843A060A06829
:101810000F2109028843B1680843A0603078C007EF
:101820002DD07068012808D0002809D032494031F5
:1018300004280BD0096A890704E02168490301E004
:1018400021684905002903DB0120F8BDC969F2E7D9
:10185000A168C908C9000143A160FFF723FF0090F8
:1018600006E0FFF71FFF0099411A224881421BD86A
:10187000A068382108407168C9008842F1D1286801
:10188000C007C00FB84217D9194801684908490074
:1018900039430160FFF706FF054607E0FFF702FF47
:1018A000411B1448814201D90320F8BD104800684B
:1018B000C007C00FB842F1D13078400706D5A06804
:1018C000072109038843F1680843A06000F030F85D
:1018D000A1683C2289091140084A515CC906C90E19
:1018E000C8400749086007480068FFF7F7FEF8BDE1
:1018F0000020024088130000001002403C32000823
:101900004800002000000020064807490068896858
:101910001C22890A1140054A515CC906C90EC840FB
:101920007047000048000020001002409C32000870
:1019300010B588B0202221496846FEF705FC204AF0
:1019400090688006400F11D090688006400F0128F3
:101950001BD090688006410F0120C003042912D0DB
:1019600091688906490F032911D024E010680121EC
:101970008004400F814050686A460004400F800098
:101980001058FEF7B7FB08B010BD0E48FBE75168D2
:10199000C901CB0D0C498C88E405E40DA342F2D0BB
:1019A00050680989C001C905C00DC90D884202D11E
:1019B0004B204002E7E70020E5E70000183200086E
:1019C0000010024000366E014001FF1FF8B5040010
:1019D00072D020789B4DC1073820002911D0AF6804
:1019E0000740082F07D00121626889048A422A68CB
:1019F00005D10A4304E061680029E9D001E08A4387
:101A00002A602178890766D5AF68074012D0FF2089
:101A100021690130002929684FD00722D202914361
:101A2000626911432960296801432960FFF73AFE82
:101A3000064637E02868400502D520690028C7D04F
:101A40006868A169000C000408436860FFF72AFE7B
:101A5000064604E0FFF726FE801B02287ED8286891
:101A60004005F7D528680721C90288436169084302
:101A70002860FFF75DFFA9683C2289091140724A7E
:101A8000515CC906C90EC8407049086070480068BA
:101A9000FFF724FE00280FD11DE0FFF703FE801B97
:101AA0000228DBD828684005F7D56868A169000CD2
:101AB0000004084368600EE099E081432960FFF765
:101AC000F1FD064604E0FFF7EDFD801B022845D836
:101AD00028684005F7D420785E4E000760D5A868D6
:101AE0008006400F03280AD0E0690028306A48D0F9
:101AF000012108433062FFF7D5FD074636E0306A22
:101B0000800702D5E069002878D06868524908400B
:101B1000218C090408436860FFF7C4FD009005E0CC
:101B2000FFF7C0FD0099401A022817D8306A8007D5
:101B3000F6D5182F0CD1FFF7FBFEA9683C228909C6
:101B40001140414A515CC906C90EC8403F4908606E
:101B50003F480068FFF7C2FD002800E06BE04DD170
:101B60001EE0FFF79FFDC01B022864D8306A800783
:101B7000F7D5686838490840218C09040843686033
:101B80000EE0400840003062FFF78CFD074604E09D
:101B9000FFF788FDC01B02284DD8306A8007F7D4B4
:101BA000207840074CD5A8688006400F04281FD035
:101BB000A168042000290BD0296903221204914353
:101BC000E26811432961A168012919D005291CD0B7
:101BD000F16949084900F161F1698143F161A06847
:101BE0001E4C00281ED0FFF75DFD054616E005E0FF
:101BF000F069800724D5A068002821D10120F8BD14
:101C0000F06901210843F061E9E7F1690143F161FD
:101C1000F6E7FFF747FD401BA0420CD8F0698007AC
:101C2000F7D50DE0FFF73EFD054606E0FFF73AFD6C
:101C3000401BA04201D90320F8BDF0698007F5D40C
:101C40000020F8BD001002403C320008480000208F
:101C50000000002040100240FFFF00FE881300003B
:101C600002480169022211430161704700E000E06F
:101C7000094910B5401E884201D9012010BD074C0A
:101C800060610321081F00F0B1FA0020A061072065
:101C90002061002010BD0000FFFFFF0000E000E019
:101CA00002480169022291430161704700E000E0AF
:101CB000704770477047000010B5040003D0A07F44
:101CC000002802D00EE0012010BD002060772046E1
:101CD00000F0C2FC206A002801D1074820620146BA
:101CE000204688470220A077211D206800F0B4FB21
:101CF0000120A077002010BDFD1C0008704702687D
:101D0000D36801210B43D360006882685207520FE9
:101D1000062A02D002680A4302600020704770471A
:101D20007047704770B50446006801690025C943D3
:101D30008907002914DBC168C943890710D4E91E4B
:101D400001610120207720688069800701D0A16EA1
:101D500003E0216F20468847616F2046884725773A
:101D600020680169C943490716D4C168C9434907B6
:101D700012D40421C94301610220207720688069C0
:101D80008005800F01D0A16E03E0216F20468847B7
:101D9000616F20468847257720680169C943090794
:101DA00015D4C168C943090711D40821C943016189
:101DB000042020772068C069800701D0A16E03E06D
:101DC000216F20468847616F204688472577206825
:101DD0000169C943C90616D4C168C943C90612D4EA
:101DE0001021C9430161082020772068C06980055F
:101DF000800F01D0A16E03E0216F20468847616FFC
:101E000020468847257720680169C943C90708D15A
:101E1000C168C943C90704D1891E0161A16D20466B
:101E20008847206801692546C9430906803500298D
:101E300009DBC168C943090605D48021C943016192
:101E4000A9682046884720680169C943490609D422
:101E5000C168C943490605D44021C9430161216EC7
:101E60002046884720680169C943890609D4C168AA
:101E7000C943890605D42021C94301612968204648
:101E8000884770BD7047F8B50446407F0D4601286D
:101E90000ED0012060770220A07704260827002AB0
:101EA00008D0042A15D0082A28D00C2A49D134E0B9
:101EB0000220F8BD206800F005FB206881693943E5
:101EC000816120688169B1438161206881692A69E3
:101ED00011E0206800F02AFB206881690122D2020B
:101EE00011438161206881695210914381612068AA
:101EF00081692A6912021143816122E0206800F0A1
:101F000049FB2068C1693943C1612068C169B14397
:101F1000C1612068C1692A6911E0206800F070FB86
:101F20002068C1690122D2021143C1612068C169E0
:101F300052109143C1612068C1692A69120211439C
:101F4000C1610120A07700206077F8BD10B50400C2
:101F500003D0A07F002802D00EE0012010BD002099
:101F60006077204600F078FBA06B002801D107487D
:101F7000A0630146204688470220A077211D2068E3
:101F800000F06AFA0120A077002010BD911F000820
:101F900030B50068224987B088423ED121480268A6
:101FA000C1140A4302600068084005901D4840388B
:101FB000426B01210A434263426B0A400592426B25
:101FC0000A434263426B0A400592426B0A434263F2
:101FD000406B022408400590002002902020052537
:101FE0002D07009001940394694604942846FFF756
:101FF000C9FA0094694628460494FFF7C3FA1020F2
:102000000090694604942846FFF7BCFA80200090AF
:10201000694604942846FFF7B5FA07B030BD0000C2
:10202000002C0140401002407047704710B5044634
:102030000068012200F038FA0B492068884202D07B
:102040000A49884204D1416C0122D2031143416400
:10205000206881684907490F062903D001680122D9
:1020600011430160002010BD002C01400020004001
:1020700010B500F0B1F810BD704770477047F8B563
:10208000040006D025462035687F0026002802D0AF
:1020900005E00120F8BD2E77204600F037F8242017
:1020A00068772068C16801277F03B943C160204673
:1020B00000F036FB206A002813D0400611D52268B4
:1020C00051697810636A814319435161616A8142A1
:1020D00007D121684869032252039043A26A104342
:1020E0004861206801690122D202914301612068A0
:1020F00041690822914341612068C1683943C16048
:10210000266420206877A8770020F8BDF0B5006825
:102110001C4987B0884233D11B48416B02242143BC
:102120004163416B21400591416B21434163406B09
:102130002040059014484030026861030A43026061
:1021400000680025084005901020694631C10F4FF6
:1021500001266946384604960394FFF713FA2020B7
:10216000694631C16946384604960394FFF70AFA76
:10217000012200211B20FFF701FB1B20FFF7F4FACF
:1021800007B0F0BD003801400010024000040050CC
:10219000FEE7000010B502210448FFF77DFA002891
:1021A00001D0002010BD012010BD0000000800502B
:1021B00010B504210648FFF76FFA012805D1022166
:1021C0000448FFF769FA012800D0002010BD000084
:1021D000000400500008005002480169491C0161D8
:1021E000704700000C000020704700008307FF22AA
:1021F000DB0E9A408907090E994000280BDA000788
:10220000000F0838830808489B001818C3699343D7
:102210000B43C3617047830804489B001B18186870
:10222000904308431860704700ED00E000E400E0D0
:102230007047000010B504210348FFF72DFA01286C
:1022400000D0002010BD00000004005070470000C6
:102250000FB400990B4801290ED0022909D0032997
:1022600004D004290BD1026804991164026803990F
:10227000D16302680299916300680199416304B0D7
:1022800070470000B801002010B50248FEF75AFF61
:1022900010BD000088020020F8B51F460D46164606
:1022A0007843FF21FDF726FF044628467843FF21A7
:1022B000FDF720FF054630467843FF21FDF71AFF62
:1022C000FF2C00D9FF24FF2D00D9FF25FF2800D9BE
:1022D000FF20642164234C434D43220A290A5843BA
:1022E000000A9A1A591A181AD2B2C9B2C3B2642A89
:1022F00000D96422642900D96421642B00D96423A5
:1023000004200091FFF7A4FFF8BDF8B50C46069E27
:10231000079917460546FF2B08D00026F643802B69
:102320001ED0402B1ED01F2B1FD03AE0FDF783FF9D
:102330003146FDF72DFFFDF793FF85B22046FDF7EF
:102340007AFF3146FDF724FFFDF78AFF84B2384655
:10235000FDF771FF3146FDF71BFFFDF781FF1FE021
:1023600005291ED1FDF76EFF03E0FDF76BFF012687
:10237000F6433246FDF749FFFDF786FF85B220465A
:10238000FDF760FF3246FDF740FFFDF77DFF84B2A9
:102390003846FDF757FF3246FDF737FFFDF774FF6C
:1023A00087B2FF2D00D9FF25FF2C00D9FF24FF2F76
:1023B00000D9FF2764226420642145434C43280A46
:1023C000210A57431446101AC2B2601A3B0AC1B21E
:1023D000E01AC3B2642A00D96422642900D96421B6
:1023E000642B00D9642304200091FFF731FFF8BD6E
:1023F00010B5FFF75DF910BD08B50E4841680E4AEB
:10240000090C126809041143416041680B4A1140EC
:10241000094A403292881204114341600849C003BE
:1024200088600848009000BF0098411E0091FAD2D1
:1024300008BD0000001002400001FF1FFFFF00FE6A
:1024400000ED00E0E093040010B50248FFF76AFCDD
:1024500010BD0000D002002030B50268104B114CB6
:10246000984204D17025AA434D682A4301E0A04256
:1024700004D103252D02AA43CD682A438025AA430F
:102480004D692A4302608A68C2620A688262984281
:1024900001D0A04201D1096901630121416130BD30
:1024A000002C01400020004010B5CB06DB0E0121BE
:1024B000046A99408C430462016A9A4011430162A4
:1024C00010BD0000F0B5026A520852000262056AAF
:1024D000436882697024A24392080C6892001443F6
:1024E000022295438A68104E2A430E4DA84201D01D
:1024F000B04206D10827BA43CF6817430422974356
:102500003A46A84201D0B04206D103252D02AB4382
:102510004D691D438B692B43436084614968416366
:102520000262F0BD002C01400020004070B5026A3C
:1025300010239A430262046A4368826973252D025C
:10254000AA430D682D021543202294438A68120184
:1025500022430E4CA04207D18024A243CC684026DF
:1025600024012243B24302E0094CA04208D10324D3
:10257000A402A3434C69A4001C438B699B00234322
:102580004360856149688163026270BD002C01402F
:102590000020004030B5026AFF2301339A430262F3
:1025A000046A4368C2697025AA4392080D689200C4
:1025B00015430122520294438A68120222430E4CB0
:1025C000A04207D1C414A243CC68240222430415BC
:1025D000A24302E0094CA04208D103242403A343F0
:1025E0004C6924011C438B691B0123434360C56173
:1025F0004968C163026230BD002C014000200040E8
:1026000030B5026A01231B039A430262036A4268DF
:10261000C46973252D02AC430D682D0225430124A6
:102620006403A3438C6824031C43094B984202D0E3
:10263000084B984205D101239B039A434B699B01A8
:102640001A434260C56149680164046230BD0000FC
:10265000002C0140002000400D4981650D49C165F5
:102660000D4901660D4941660D4981660D49C166F6
:102670000D4901670D4941670D4981670D49C167E2
:102680000D49803001600D4941600D4981607047FE
:1026900071200008792000087B2000087D200008B8
:1026A000211D0008231D0008851E000829200008A0
:1026B0002B2000081F1D0008B31C0008B51C0008D3
:1026C000B11C000808B5114802680121C9030A437A
:1026D00002600068084000900E480D490160172113
:1026E000C160632141600021816001614161FFF7A8
:1026F000E3FA01200849C00408600848016809029B
:10270000090A01600348FFF7FAFA08BD40100240C9
:1027100000200040D002002000E100E010E400E0D2
:1027200070B5044600680169012252039143E268D2
:10273000114301612169A068084361690843216868
:10274000CA68274B1A400243CA602068E16943699E
:102750000122D20293430B43436120684169032362
:102760001B029943A36919434161E06990421AD160
:10277000FFF7CAF86168192249005043FDF7BAFC17
:1027800005466421FDF7B6FC060164214843281A7A
:10279000C0003230FDF7AEFCF8210140490071184D
:1027A0004007400F18E0FFF7AFF861681922890071
:1027B0005043FDF79FFC05466421FDF79BFC060195
:1027C00064214843281A00013230FDF793FCF021C0
:1027D000014071180007000F08182168886070BD5B
:1027E000F3E9FFFF044800680168890602D54168E3
:1027F000C9B241607047000044020020FEB5554D4B
:102800002E69FEF74FFF296B7D22411AD2009142BB
:1028100000D32863E8794F4A410140184E49127AA3
:1028200040182979401840780C2148434B494418F6
:10283000E96A701A012A03D1464800220272A08870
:10284000A288002A08D082427ED8530083424148A1
:1028500005D95118C16203E03E48C66204E0C66271
:102860003C48016A491C0162002720783E463D46EB
:102870000090030000F093F806040B162E3E2A5B2E
:102880006078410041183648475C08181BE0314821
:10289000A178006AFDF72EFC607860225043C9B22F
:1028A000304A21E02B480521006AFDF723FC00296E
:1028B0003DD1A178FDF71EFC6278182042432A48DA
:1028C000C9B2101811E04678857830E02148A17827
:1028D000006AEFE71F48A178006AFDF70BFC6078FB
:1028E00006225043214AC9B280184A008918475C21
:1028F0004018E8E71748A178006AFDF7FBFBC8B26B
:10290000FF21552804D242008018091ACFB206E0F0
:10291000AA2806D2553842008018C6B2081AC5B295
:1029200005E0AA3842008018C7B2081AC6B20948A2
:102930006278837900999B001B199B68029200932F
:10294000019143792A4600E003E031463846FFF71B
:10295000DCFCFEBD0C0000205D000020F43500080A
:10296000D4350008BC320008FC340008BC3500082F
:102970002021020C01D010211046020A01D010467D
:102980000839020901D01046091F820801D01046FB
:10299000891E420801D0881E7047081A704730B45B
:1029A0007446641E2578641CAB4200D21D46635DEC
:1029B0005B00E31830BC184702E008C8121F08C1CA
:1029C000002AFAD170477047002001E001C1121FB0
:1029D000002AFBD170470000F8B5104C0025E079C3
:1029E000410140180E490E5CE07A002802D0E572E1
:1029F0002571F8BD20793146401CFDF77BFBC8B23C
:102A00000127761E2071B04204D1E7722573FEF7CC
:102A100049FEA06225622772F8BD00000C0000206C
:102A20005D000020F8B5114C0026E0794101401806
:102A30000F490D5CE07A002803D0E672AD1E2571C7
:102A4000F8BD207929464019401EFDF769FBC8B240
:102A500001276D1E2071A84204D1E7722673FEF78C
:102A600021FEA06226622772F8BD00000C00002043
:102A70005D00002002480121C2799143C171704775
:102A80000C000020F8B50026FF240F46354600282C
:102A90000FD0012804D0022805D0032806D008E072
:102AA000B4263C2405E00024B42502E0BC26002422
:102AB000692564232A4621463046FFF7EDFB012FA6
:102AC00023D100231A4619461846FFF7E5FBC82014
:102AD000FEF720F864232A4621463046FFF7DCFB48
:102AE000C820FEF717F800231A4619461846FFF7C4
:102AF000D3FBC820FEF70EF864232A462146304651
:102B0000FFF7CAFBC820FEF705F8F8BD0149002011
:102B1000087070475C000020F8B5FFF73BFB002809
:102B20001AD01A4800250F262C461421406BFDF7B9
:102B3000E1FA0802401A1321FDF7DCFA7F2802D9D6
:102B4000FF21081A80B240434002000CE1214843B3
:102B5000C0091E3087B20AE0FFF72AFB002803D025
:102B600000260725344602E0FF2600253446FBB246
:102B7000224629463046FFF78FFB0448416B491C2B
:102B800041632820FDF7C6FFF8BD00000C000020BF
:102B900010B5002007210246FF23FFF77DFB282008
:102BA000FDF7B8FF10BD000010B50449FF220B5C13
:102BB00011461046FFF770FB10BD000038320008C8
:102BC000F8B500282DD001282DD002282DD00328BB
:102BD0002FD0042825D0002600250024164F1421CC
:102BE000B86BFDF787FA0802401A1321FDF782FA45
:102BF0007F2802D9FF21081A80B240434002000C0E
:102C0000E1214843C0091E30C3B22246294630465E
:102C1000FFF742FBB86B401CB8632820FDF77AFF32
:102C2000F8BD0F26D8E7002604E0002635460F241D
:102C3000D4E70F260F25D0E70C0000208EB0FEF75A
:102C4000A1FAFEF73DFD24216846FDF796FA00241F
:102C50000A940F200090FF20099401300490FA4854
:102C60000B940C9405940088019480B2079406900C
:102C700002946846FEF7AAFE072009900A940B9476
:102C800000210C9409A8FEF799FDFDF7ABFD059016
:102C9000E1204002FDF724FF63211720FDF7B6FD78
:102CA000FFF710FD00231A4619461846FFF7F4FAFD
:102CB000FDF7EEFD0020FDF7FDFF3220FDF72AFFB6
:102CC000E24801900120039006900490E14FE04813
:102CD000F9780025405C78713C7102953C62FDF703
:102CE00015FEFFF7A7FA00281FD0DB48059981429F
:102CF00008D00125D8490598884203D0042078726D
:102D00000020B872787A0090FDF74CFE0646FEF778
:102D1000C9FC0446787A042824D0052E08D0062E53
:102D20000CD0B87A012818D01CE0FDF727FFE1E7A6
:102D300000900020787201200390E5E70028E3D19D
:102D40000099032903D0009001207872DCE703206A
:102D5000787200207C610190D6E703207872002011
:102D60007870B872072D03D104207872082504907A
:102D7000787A0300FFF713FE07F9AAF75205F6F574
:102D8000F400052D02D1012078720625049804284C
:102D90000AD0052819D0B61E3300FFF700FE08261A
:102DA000282F353539262635B61E3300FFF7F7FDB7
:102DB00008050705080805050508082524E06D1C19
:102DC0000A2D21D10120049016E0A34D2846FDF7DD
:102DD0000FFD05950120787202980025012801D188
:102DE00000203871002038620EE06D1C0CE0002DD0
:102DF00002D0012810D0F8E7012505E0002DFBD016
:102E00000228F2D1032004900498FFF7D9FE54E180
:102E1000002DF1D00328E8D10520F4E73300FFF7B7
:102E2000BEFD0B491E130D0D1E1E1E323B411E0022
:102E300000203862012078723870BEE002980128C4
:102E4000F6D100203871F3E7FFF7F4F9002801D03C
:102E50000020A6E07878002802D0012808D02CE1D4
:102E60000020FDF7AFFB7C617878401C787024E18E
:102E7000002078700299012900D138713862012050
:102E80007872387019E1022078720320F8700A20F5
:102E9000FDF740FEF878D3E000210298FFF7F2FD3D
:102EA00006207EE0F8790021801CC0B2FFF7EAFD21
:102EB000052076E078690028A9D001994018A04241
:102EC00003D862480190FDF759FEF6E0022E23D0A8
:102ED000032E1ED0042E02D00C2E24D116E0002387
:102EE0001A4619461846FFF7D7F90120B870002492
:102EF0003C62FFF79FF9002805D0002003900320D3
:102F000000907C7200E7FDF739FEFDE60020B87006
:102F100009E0FFF787FD06E0FFF75EFD4E490598E3
:102F2000884200D06D1CF87A002816D0B86A211AA1
:102F30004A4881420FD3F879410140184849095C59
:102F4000387B491E401CFDF7EBF839730020BC624A
:102F5000386201203872387B3871FFF74FFCACE0E3
:102F6000BFE09EE086E061E0FFE7022E0BD0032E7B
:102F700019D0042E25D0FFF70DF900283BD0039877
:102F8000012831D032E00398012804D001200390B9
:102F90000320009091E00298012801D100203871AF
:102FA0000120787289E0039800280DD085E0012087
:102FB000039000203862012078720020FDF702FBA8
:102FC0007BE00398012805D002980128EFD100206A
:102FD0003871ECE700231A4619461846FFF75CF9EA
:102FE00000203862039068E0FFF796FD012006900C
:102FF0000020786261E0FFF7DBF800285DD00398DD
:10300000012802D000280AD00DE01649786A8842CB
:1030100002D2401C786206E0FFF7BAFD03E0069892
:10302000012800D103900220069046E0022E02D033
:10303000042E42D118E0F878C01C8007800FF87089
:10304000FFF7B2FD39E000000001FF1FCA080000D1
:10305000383200080C00002027950000881300007B
:103060005D00002010270000F87800F097F830E0AD
:10307000002014E0022E02D0042E1ED105E0FFF73E
:10308000F9FCF879801CC0B214E0F8790121801CA9
:10309000C0B2FFF7F7FC0020387101217972386265
:1030A0000BE0022E02D0042E07D10EE0029901207F
:1030B000884302900021FFF7E5FC1349F8694018A6
:1030C000844210D300F024F81BE001210298FFF79E
:1030D000D9FC0120787202980128C9D100203871EA
:1030E000C6E703205DE70949B8694018844200D269
:1030F0000AE6FFF74FF8002802D10220FDF762FA36
:10310000BC61FC6100E6000050C3000060EA000002
:10311000FEB500251D48FEF715F81D480026019054
:10312000694600961948FDF741FE01200003092772
:103130000190694600971548FDF738FE00241348B2
:10314000FDF7D6FF13491148FDF780FF0F48FDF743
:10315000B3FE114948804888641C4519022CEEDBF7
:103160006808083948600948FDF7ECFF01200003B2
:103170000190694600960548FDF718FE0448019045
:10318000694600970148FDF711FEFEBD8802002048
:103190000110000040420F005800002010B51449F3
:1031A000144C0B5CFF22637111461046FFF774F854
:1031B000C820FDF7AFFC00231A4619461846FFF752
:1031C0006BF8C820FDF7A6FCFF2263791146104674
:1031D000FFF762F8C820FDF79DFC00231A46194648
:1031E0001846FFF759F8C820FDF794FC10BD000001
:1031F000383200080C0000201C01FF1F1C01FF1FBB
:103200001C01FF1F1C01FF1F1C01FF1F3001FF1FBE
:103210001C01FF1F1C01FF1F000000000000000038
:10322000000000000000000000366E0100000000F9
:103230000000000000000000FF80401F00000000B0
:10324000000000000000000000000000000000007E
:10325000000000000000000000000000010000006D
:10326000020000000300000004000000060000004F
:103270000700000008000000090000000000000036
:1032800000000000000000000000000000366E0199
:10329000000000000000000000000000000000002E
:1032A000000000000000000000000000010000001D
:1032B0000200000003000000040000008200008201
:1032C0000200821000821C00822A008236008240A6
:1032D00000824C00825C008270006A7600487600B2
:1032E000267600047600007620007644007668009A
:1032F000768C006C94005A94004294002894041E2A
:1033000094101A941E12942E0A944000944C008833
:103310005A007868006678005482004A80760082FD
:1033200076008276008276008276004076004076D3
:103330000040760040760040760000769400769457
:103340000076940076940076940000940000940037
:1033500000940000940000944000944000944000C9
:1033600094400094400094820094820094820094DF
:10337000820094820094820000820000000000001D
:10338000000000000000000000000000000001003C
:10339000000200000400000700000B000012000003
:1033A0001B00002900003B00005300007200009A3F
:1033B0000000B32000C83B00DA5100E96400F4715A
:1033C00000FB7B00FF7F00FF8300FF9300FFAA004C
:1033D000FFC800FFEB00FFFF11FFFFFF8276947034
:1033E0006894605894504A94403A94302C94201C2D
:1033F00094100E94000094000E82001C70002C5C4F
:10340000003A4A004A38005824006812007600004A
:103410006812005824004A38003A4A002C5C001C0C
:1034200070000E82000094100E94201C94302C9496
:10343000403A94504A9460589470689442004C44C6
:10344000004E4A0056560062620072740084820088
:103450009482068A820C78821462821E4A822A3002
:10346000823612824200825202826406827208828E
:103470006E06826606825C04824E02823E008230C4
:1034800002822402821604820A047C000C6A002054
:103490005A00304E003A460044420048820C0082F6
:1034A0001200821800821E00822400822A008230CC
:1034B00000823600823C00824000824400824A0042
:1034C000824E00825400825800825C008262008238
:1034D0005C00825800825400824E00824A0082447E
:1034E00000824000823C00823600823000822A0046
:1034F000822400821E00821800821200FF0000FF5A
:103500008000FFFF0000FF0000FFFF0040FF800081
:10351000FFFF00FFFF4000FF0040FF0080FF00FFB3
:103520008000FFFF00FFFF0080FF0040FF0000FF62
:103530004000FF8000FFFF00FFFFFFFFFF00FF8054
:1035400000FF40000000FF0080FF00FFFF80FFFF42
:10355000FFFFFF80FFFF00FFFF0080FFFF00000074
:10356000FF000000FFFF000000FF000000FFFF0061
:103570000000FF0000FFFFFF00FFFFFF0000FFFF54
:10358000FF00FFFFFF0000FFFFFF00FF7E52A83F8C
:10359000778E009D7756815CAB67428932746400F8
:1035A000A3AB8900FFFFFF000000FFFFFF0000004A
:1035B000FFFFFF000000FFFFFF00000090004B0036
:1035C000AE949000007878783C00B4B43C000014CD
:1035D000B400AE1EBC0069960000B43C00876200D7
:1035E00000E10000ADAD0000FF5A00FF5A5A5A003A
:1035F0000000000001002000E2040000448BDC3FDA
:10360000010120001E000000448BDC3F010220006D
:10361000180000000000803F010420001E00000090
:103620000000803F01032000140000006F12FB3FE8
:10363000020008001E0000000000803F0201080098
:103640001E0000000000803F020208001E00000073
:103650000000803F020308001E0000000000803FC1
:10366000020408001E0000000000803F0205080060
:103670001E0000000000803F020608001E0000003F
:103680000000803F020708002D0000000000803F7E
:1036900003000200C80000008195BB3F0301020047
:1036A000A00000008195BB3F03020200C80000009B
:1036B0008E75B93F0303020090010000423EC83FEF
:1036C00000000100000000005C8F024000010100CA
:1036D000000000003333234000020100000000001E
:1036E000000008400003010000000000CA543540FB
:1036F00000040100000000009A99D93F0005010074
:1037000000000000E2E90D4000060100000000009A
:103710006D56B53F00070100000000000000C03FEB
:1037200000080100000000000000884000090100BE
:10373000000000000000803F010120003800000070
:10374000448BDC3F01052000E2040000448BDC3F99
:10375000010420003C0000000000803F0103200025
:10376000A70000006F12FB3F05000800E204000004
:103770000000803F05010800E20400000000803FD7
:1037800005020800E20400000000803F0503080075
:10379000E20400000000803F05040800E20400008D
:1037A0000000803F05050800E20400000000803FA3
:1037B00005060800E20400000000803F0207080040
:1037C000780000000000803F03000200900100002C
:1037D0008195BB3F03010200900100008195BB3F32
:1037E00003020200900100008E75B93F030302003E
:1037F00090010000423EC83F183800080000002039
:10380000A00100006C040008A4380008A0010020FA
:10381000C0050000C829000832047201190812010D
:103820009A8011012C0510366E0118121B681A01BE
:1038300002030405060708090A0B0C0D0E0F1011F0
:10384000121314151617181921D8111B1C1D1E1F31
:10385000202122232425262728292A2111180E0277
:10386000010101896745239A785634AB091ABC09CE
:103870001ACD091ADE091AEF091AF0091A01091AF4
:1038800012091A23091A34091A45091A560919374F
:10389000193E093C40293C1AAA011A550109120C8B
:0438A000095E20009D
:04000005080000C12E
:00000001FF
