:020000040800F2
:1000000000060020D90000087D2200081122000807
:1000100000000000000000000000000000000000E0
:100020000000000000000000000000008D23000818
:10003000000000000000000071230008B524000843
:10004000000000000000000000000000EB000008BD
:10005000EB000008DD090008E7090008F1090008C5
:100060000000000000000000000000000000000090
:10007000EB000008EB000008EB00000800000000A7
:1000800000000000EB00000800000000052500084B
:10009000000000000000000000000000EB0000086D
:1000A00000000000EB00000800000000812A0008AA
:1000B0000000000000000000000000000000000040
:1000C0000448854600F064F800480047A52E000863
:1000D000C046C04600060020044880470448004748
:1000E000FEE7FEE7FEE7FEE7FEE7FEE7BD240008C9
:1000F000C100000830B50B46014600202022012433
:1001000009E00D46D5409D4205D31D469540491B4B
:100110002546954040191546521E002DF1DC30BD94
:1001200070B500242546002801DA01244042002948
:1001300001DA01254942FFF7DDFFAC4200D0404221
:10014000002C00D0494270BD03460B439B0703D0EF
:1001500009E008C9121F08C0042AFAD203E00B788C
:100160000370401C491C521EF9D27047D2B201E004
:100170000270401C491EFBD270470022F6E710B502
:1001800013460A4604461946FFF7F0FF204610BD05
:10019000064C0125064E05E0E36807CC2B430C3CDA
:1001A00098471034B442F7D3FFF78EFF9436000817
:1001B000B436000870B50446002520688068042124
:1001C00008408008002829D020688068084000285E
:1001D0000BD020688068C007C00F002805D02068B9
:1001E0008068102108432168886001F0E1F8054625
:1001F0000EE001F0DDF8401B022809D9206B102128
:1002000008432063606B012108436063012070BDD7
:1002100020688068042108400028EAD10020F6E721
:1002200070B50446002520688068C007C00F012112
:1002300048404840002837D02068806805210840A1
:10024000012800D100E0002000280AD000BF20686B
:1002500080680221084321688860022021680860C4
:1002600009E0206B102108432063606B01210843E3
:100270006063012070BD01F09BF805460EE001F0BF
:1002800097F8401B022809D9206B102108432063EE
:10029000606B0121084360630120EBE72068806800
:1002A000C007C00F0028EAD10020E3E738B50446B4
:1002B0000020009020688068C007C00F01214840DE
:1002C0004840002827D12068806814490840002849
:1002D00001D1012000E00020002809D1206B10216D
:1002E00008432063606B012108436063012038BD2F
:1002F000206880680121084321688860084909480E
:100300000068FFF7F7FE009002E00098401E0090A2
:1003100000980028F9D10020E9E7000017000080CC
:1003200040420F0048000020F0B58BB00546142075
:100330000A90FF2009900A200890142007901920A5
:100340004001069032200590002004903220039056
:10035000284600F089FB04464E48844206D300201C
:100360000590FF200490002003900EE04A4884424C
:1003700006D3FF200590A52004900020039004E000
:10038000FF200590002004900390022D04D14348E3
:10039000844201D90BB0F0BD4048844202D87D2090
:1003A000000106900A210598FFF7BAFEC0B2059039
:1003B0000A210498FFF7B4FEC0B204900A21039802
:1003C000FFF7AEFEC0B2039001F046FF074657E0CC
:1003D00001F042FF0290012D0CD10121304800F0C4
:1003E000DDFF002806D100231A461946184601F001
:1003F000FDFFCFE70298C11B0698814206D3002378
:100400001A461946184601F0F1FF3AE00020019023
:1004100032E0012D0CD10121214800F0BFFF00285E
:1004200006D100231A461946184601F0DFFFB1E74E
:1004300001990A02501A1321FFF772FE86B27F2E2D
:1004400002DDFF20801B86B230467043C011009051
:10045000F52100984843C0110A3000900098C3B2BB
:10046000039A0499059801F0C1FF142000F088FA5E
:100470000198401CC0B2019001981428C9DB00BF4C
:10048000A6E700BF0548844201D800F0B7FA00BFD4
:1004900080E70000B50E0000710C0000C4090000E8
:1004A0000004005000B587B000BF2248406B022115
:1004B0000843204948630846406B022108400190E8
:1004C00000BF00BF1C48039002200490059001204B
:1004D000029002A9194800F087FE052000F0DCFF19
:1004E00000221146052000F0E3FF00BF1148406BD9
:1004F000022108430F4948630846406B0221084027
:10050000019000BF00BF0C4803900220049000201F
:1005100005900420029002A9084800F065FE06201C
:1005200000F0BAFF00221146062000F0C1FF07B01C
:1005300000BD000000100240000011100004005037
:1005400000B58DB0242104A8FFF717FE002000900D
:100550000190029003900F200490FF20013008903A
:10056000002009900B48008880B20A900020059076
:100570000B90069004A801F021F9072000900020BC
:100580000190029003900021684600F0BBFF0DB07F
:1005900000BD00000001FF1F30B587B005460C46C6
:1005A0002048214908600846C460456000218160F8
:1005B00001614161816101F0B9FC60200090601C23
:1005C00001900220029000200490FF20013005904D
:1005D00000200690059000226946134801F022FC95
:1005E0000021114801F038FD042269460E4801F04F
:1005F00019FC04210C4801F02FFD082269460A4825
:1006000001F010FC0821084801F026FD0C22694683
:10061000054801F007FC0C21034801F01DFD07B05F
:1006200030BD0000002C0140580000201FB500BF65
:10063000204800680121090508431E490860084652
:100640000068012109050840009000BF00BF1A485A
:100650001A4908600320000748600021174881609C
:10066000C1600121016104214161002101764176CF
:1006700001218176FF21C231C16100210162416205
:100680000521816200F05CFB012000030290002044
:10069000019001A9094800F08FFA0120000302909F
:1006A0000920019001A9054800F086FA034800F0EE
:1006B00033FA1FBD401002400024014028010020F1
:1006C00000B587B00121294800F002FD0221284829
:1006D00000F0FEFC0421254800F0FAFC00BF25488C
:1006E000406B01210843234948630846406BC0071B
:1006F000C00F019000BF00BF00BF0846406B022141
:1007000008431C4948630846406B02210840019099
:1007100000BF00BF00BF1748406B042108431549C4
:1007200048630846406B04210840019000BF00BFA9
:10073000002003900220049005900120029002A95D
:100740000A4800F051FD012004900220029002A905
:10075000074800F049FD022004900420029002A9FD
:10076000024800F041FD07B000BD00000004005049
:10077000000800500010024010B501F06DFD10BDE2
:1007800070B50026FFF7F8FF044600F0B5F80546FF
:1007900057480078854208D0002D01D0052600E09A
:1007A000062653480570304670BD00F0A9F851493F
:1007B000887308460078030002F0AAFA060414368B
:1007C0005F63828E4B48807B01280AD14948407B79
:1007D000002806D10120474908700846846000209F
:1007E000C8737DE043488068201A28281BD34148FD
:1007F000807B012814D13F48C07B002813D10126FB
:1008000002203C490870084684600120C8730846ED
:10081000007B022807D1032600200870087302E03D
:100820000020344908705BE03248807B01280AD1FF
:1008300030488068201A7D21C900884203D30520F2
:100840002C49087004262B48807B002814D12948A5
:10085000407B012810D12748007B022805D10326C0
:10086000002024490870087306E00320214908701D
:10087000084644600120087332E004201D490870D6
:100880002EE01C48807B01280FD11A48407B0028AD
:100890000BD11848007B401C1649087301200870D2
:1008A000084684600020C87309E012484068201A96
:1008B000FA2804D3022600200E49087008730FE0BE
:1008C0000C48807B002806D10A48407B012802D1D1
:1008D00000200849087003E000200649087000BFA6
:1008E00000BF0448807B0349487330465CE7000042
:1008F000540000206001002010B501F03BFD10BD48
:1009000010B50121014800F049FD10BD0004005060
:100910000020044908704873887348608860087331
:10092000C87370476001002010B504460B480C499D
:1009300008600846446000218160C16001618161F6
:100940000C21416101F0BEFB05480068C068202110
:10095000084303490968C86010BD00000038014021
:10096000E400002008B505494143009100BF00BFE5
:1009700000994A1E00920029F9D108BDB80B000069
:1009800001B57D22D20000995143084600F002F8DB
:1009900008BD000071B500220E4D6C690E4E367810
:1009A000009D75432B460B4DA9690FE0094DA869C1
:1009B00088420BD0884202D20D1AAA1802E0251AEA
:1009C0006D18AA1801469A4200D300E0EEE700BF76
:1009D00078BD000000E000E04C00002010B50120D0
:1009E00000F0F2FB10BD10B5042000F0EDFB10BDCF
:1009F00010B5802000F0E8FB10BD000010B500230A
:100A00001A461946184601F0F1FC01F0E7FCFFF721
:100A100049FD3220FFF7B4FF01F0D4F8012188032B
:100A200000F050FD01F0A8F8FFF74AFE00231A4637
:100A30001946184601F0DAFCFFF76AFF0020074963
:100A40000860032006490870FFF75AFF012802D109
:100A50000449087001E002F0B7F910BD140000204D
:100A60002800002029000020F0B585B000260024D1
:100A700001270A20049000F09BFC039000200190C5
:100A800024E0224800F0AAFA2149204800F044FA64
:100A900000901E4800F050F91E4908801B4800F0E5
:100AA0009DFA1B49194800F037FA0090174800F0EA
:100AB00043F9184948800846008886190846408846
:100AC0000419781CC7B20198401C01900499019840
:100AD0008842D6DB791E3046FFF70CFB0646791EAE
:100AE0002046FFF707FB0446002C09D031460C22B4
:100AF00051436422514308462146FFF7FBFA05465D
:100B000000F056FC0290680005B0F0BD28010020FE
:100B100040420F005000002070B50446002500261A
:100B200000BF2C20005D012801D1022070BD0121F1
:100B30002C20015500BF206880680840484048408C
:100B400000282CD1206B090288430221084320632E
:100B500020688068890708432168886000F028FCC5
:100B6000064611E000F024FC801B02280CD9206B03
:100B70000221884310210843206300BF00212C205C
:100B8000015500BF0120D1E720688068C00FC00771
:100B90000028E7D1206B02218843206304E0206B0A
:100BA000202108432063012500BF00212C2001558E
:100BB00000BF2846BAE70000F8B504460D460026F7
:100BC00000200090A06A002815D0A06A012812D049
:100BD000A06A02280FD0A06A03280CD0A06A0428BB
:100BE00009D0A06A052806D0A06A062803D0A06A0A
:100BF000072800D000BF00BF2C20005D012801D1D4
:100C00000220F8BD01212C20015500BF206880681A
:100C1000042108408008002879D143496868884247
:100C200059D02068806A2A780121914008432168C0
:100C30008862A06A002829D0A06A012826D0A06A6C
:100C4000022823D0A06A032820D0A06A04281DD03F
:100C5000A06A05281AD0A06A062817D0A06A07281B
:100C600014D0A868216849694907490F88420DD006
:100C700020684069C008C000216848612068406958
:100C8000297A4907490F08432168486128680828DC
:100C900002D0286809283FD124488068296808299B
:100CA00001D1090501E00121890508431F49886038
:100CB0002868082830D11E491E480068FFF71AFA34
:100CC0000A214843009002E00098401E00900098DE
:100CD0000028F9D120E02068806A2A78012191401B
:100CE0008843216888622868082802D02868092873
:100CF00012D10E4880682968082902D1090502E04E
:100D000005E00121890588430849886004E0206BDB
:100D1000202108432063012600BF00212C2001551B
:100D200000BF30466DE700000110000000270140C1
:100D300040420F004800002001460868006C7047E0
:100D400070B5044600260025002C01D1012070BD9D
:100D5000206B002806D1606300212C20015520461D
:100D600000F0B8F8206B1021084000287ED1002E3A
:100D7000FCD1206880680421084080080028F5D153
:100D8000206B890188430221084320632068806822
:100D9000C007C00F01214840484000280FD12068FB
:100DA000C06818218843A16808432168C86020688A
:100DB0000069000100096168084321680861206832
:100DC000C068424908402168C860207E8003617E77
:100DD00049030843616A012902D00121090300E0A7
:100DE00000210843E16808432169022901D1042157
:100DF00000E0002108430543A07E01280ED1607E5B
:100E0000002803D101200004054307E0206B2021C6
:100E100008432063606B012108436063FF21C231F6
:100E2000E069884203D0216AE069084305432068ED
:100E3000C06828432168C860A06A002814D0A06A4E
:100E4000012811D0A06A02280ED0A06A03280BD076
:100E5000A06A042808D0A06A052805D0A06A062840
:100E600002D0A06A07280FD1206800E027E040697F
:100E7000C008C0002168486120684069218D490789
:100E8000490F0843216848612068C068104908403C
:100E9000A84208D100206063206B02218843012111
:100EA0000843206310E0206B02218843102108438F
:100EB0002063606B012108436063012604E0206B1E
:100EC0001021084320630126304640E71BC2FEFF85
:100ED000E7FF3FC310B586B0044600BF0C48406B27
:100EE000022108430A4948630846406B0221084032
:100EF000009000BF00BF022001900320029000205C
:100F0000039001A9034800F06FF906B010BD00007E
:100F10000010024000040050F8B504460D46606918
:100F2000082801D1082700E00C2700F041FA064606
:100F300014E0681C002811D0002D04D000F038FA0D
:100F4000801BA8420AD9206B04210843206300BFFC
:100F500000212C20015500BF0320F8BD2068006847
:100F600038400028E5D0206B012149020843206366
:100F70002068C068032189020840002825D1607ECE
:100F8000002822D1206800680821084008281CD1C8
:100F90002068806804210840800800280DD120685E
:100FA00040680C21884321684860206BFF21013193
:100FB000884301210843206307E0206B2021084378
:100FC0002063606B012108436063207E002802D10A
:100FD0000C20216808600020BFE7000070B50446BF
:100FE000002520688068042108408008002828D156
:100FF00000BF2C20005D012801D1022070BD01211D
:101000002C20015500BF2046FFF750F90546002D62
:1010100018D1206B0C490840FF210131084320639F
:101020000020606300BF00212C20015500BF1C2060
:10103000216808602068806804210843216888606E
:1010400000E002252846D9E7FEF1FFFF70B504460F
:10105000002500BF2C20005D012801D1022070BDB9
:1010600001212C20015500BF2046FFF7A3F80546BB
:10107000002D0CD12046FFF7D3F80546002D06D1F0
:10108000206BFF210131884301210843206300BF09
:1010900000212C20015500BF2846E0E710B50020B4
:1010A000C0430A49C8620020C862401E086300208D
:1010B0000863401E886200208862401E486200204B
:1010C000486200F0C5F9002010BD00000010024089
:1010D000F0B502460B4600206AE00125854029460E
:1010E0001940002963D0354D8608B600AC598507F4
:1010F000EE0E0F25B5402C4005252D07AA4201D143
:10110000002505E02E4DAA4201D1012500E002256F
:101110008607F60EB540A54223D1284D20352D680F
:101120008D43264E2036356035466D688D4375609B
:10113000224D603D2D688D43204E603E3560354622
:101140006D688D4375608507EE0E0F25B5402C4602
:101150001A4D8608B600AD59A543184E8708BF0042
:10116000F551156847000326BE4035431560C50894
:10117000AE0015462035AD594607F70E0F26BE4086
:10118000B543C608B60017462037BD5195684700DD
:101190000326BE40B5439560556801268640B54399
:1011A0005560D56847000326BE40B543D560401C56
:1011B0001D46C540002D90D1F0BD000060180240D2
:1011C000000400507047000010B504460548C06890
:1011D0002040002804D00348C4602046FFF7F2FFF7
:1011E00010BD00000018024070B503460022CBE09D
:1011F000012696400C683440002C71D04D68022DB9
:1012000002D04D68122D15D1D508AE001D462035EF
:10121000A8595507EE0E0F25B5400646AE43304699
:101220005607F60E0D69B5402843D508AD001E4699
:1012300020367051186856000325B5400646AE4367
:1012400030460D79AD07AD0F5600B5402843186004
:101250004D68012D08D04D68022D05D04D68112D27
:1012600002D04D68122D18D1986856000325B5405C
:101270000646AE4330465600CD68B54028439860D8
:101280005868012595400646AE43304610264D6805
:1012900035402D09954028435860D86856000325ED
:1012A000B5400646AE43304656008D68B5402843EB
:1012B000D860012636074D683540B54263D1354DBB
:1012C0009608B600A8599507EE0E0F25B5400646BC
:1012D000AE43304605252D07AB4202D1002506E07E
:1012E00051E02D4DAB4201D1012500E002259607CA
:1012F000F60EB5402843274D9608B600A851254D57
:10130000203528680546A5432846012636044D6841
:101310003540B54202D10546254328461D4D2035AE
:10132000286068680546A5432846012676044D686E
:101330003540B54202D1054625432846154D203596
:101340006860144D603D28680546A543284601267F
:1013500036054D683540B54202D10546254328463D
:101360000C4D603D286068680546A5432846012667
:1013700076054D683540B54202D1054625432846DD
:10138000044D603D6860521C0D68D540002D00D0B2
:101390002EE770BD60180240000400500246136939
:1013A0000B40002B01D0012000E00020704700001E
:1013B00001480068704700000000002003480068F2
:1013C000034909684018014908607047000000207F
:1013D0000800002010B50024032000F009F80028C0
:1013E00001D0012401E000F035F8204610BD0000D6
:1013F000F8B5044600251348006800281ED011489F
:1014000001687D20C000FEF775FE074639460E488C
:101410000068FEF76FFE064600F0B8FB00280BD10F
:10142000042C07D200222146401E00F041F8074854
:10143000046004E0012502E0012500E001252846C2
:10144000F8BD000008000020480000200400002033
:101450007047000008B500BF0E480068012108432E
:101460000C49086008460068C007C00F009000BF24
:1014700000BF00BF07484038C06B890508430549D5
:101480004039C8630846C06B09040840009000BF9B
:1014900000BF08BD4010024000BFC206D20E0121AD
:1014A0009140024A116000BF7047000000E100E077
:1014B00070B504460D4616462946204600F0E0FE6B
:1014C00070BD00000D4A126803239B039A43024338
:1014D0000A4B1A600A4A126904231A43084B1A611C
:1014E000012901D130BF02E040BF20BF20BF044A24
:1014F000126904239A43024B1A617047007000403E
:1015000000ED00E070B504460D46002C01D101202D
:1015100070BD65480068C007C00FA84218D2624875
:1015200000684008400028435F490860FFF740FF1B
:10153000064607E0FFF73CFF801B5C49884201D963
:101540000320E5E758480068C007C00FA842F1D162
:10155000022120680840022815D104212068084093
:10156000042807D15248806807210903884340189E
:101570004F4988604E4880680F2109028843A1685E
:1015800008434B4988602078C007C00F002848D026
:101590006068012808D14648006801218904084094
:1015A000002822D10120B3E76068002808D1404814
:1015B0000068012189020840002816D10120A7E710
:1015C0006068042808D13A484030C06902210840C8
:1015D00000280AD101209BE735484030006A0221EB
:1015E0000840002801D1012092E731488068C008F6
:1015F000C000616808432E498860FFF7D9FE06469F
:1016000007E0FFF7D5FE801B2849884201D9032057
:101610007EE727488068382108406168C900884211
:10162000EFD121480068C007C00FA84218D91E4852
:1016300000684008400028431B490860FFF7B8FED7
:10164000064607E0FFF7B4FE801B1849884201D91F
:1016500003205DE714480068C007C00FA842F1D11D
:10166000042120680840042808D111488068072117
:1016700009038843E16808430D49886000F03AF89F
:101680000B4989680F2212021140090A8900094A90
:10169000515CC906C90EC840074908600748006880
:1016A000FFF7A6FE34E70000002002408813000088
:1016B00000100240303200084800002004000020E2
:1016C00001480068704700004800002000B5FFF79F
:1016D000F7FF06498968072212031140090B8900A8
:1016E000034A515CC906C90EC84000BD0010024043
:1016F0007032000870B588B020222B496846FEF78A
:1017000023FD2A48806838210840002814D1274842
:10171000006809020840C10A01258D40234840683D
:10172000072149030840460BB1006A465058294634
:10173000FEF7E0FC044634E01C488068382108408D
:10174000082801D11A4C2CE018488068382108403C
:10175000202801D1840224E0144880683821084000
:1017600018281DD11148406812490840000C124940
:101770008988C905C90D884202D10124E40310E01B
:101780000A4840680B490840000C0B490989C90503
:10179000C90D884202D14B24640202E0002400E01B
:1017A0000024204608B070BD083200080010024036
:1017B00000366E010000FF014001FF1F70B50446B6
:1017C000002C01D1012070BD2078C007C00F002877
:1017D0001ED0E348866838210E40082E04D1606888
:1017E000002815D10120EEE700BF012189046068BF
:1017F000884205D1DA4800680843D949086006E004
:10180000D7480068012189048843D549086000BF92
:1018100002212068084002287BD1D1488068382105
:1018200008400646002E48D1CD48006801218902B3
:101830000840002804D02069002801D10120C2E717
:10184000C7484068000C0004A1690843C4494860C7
:10185000FFF7AEFD054606E0FFF7AAFD401B022894
:1018600001D90320AFE7BE48006801218902084082
:101870000028F1D0002E18D1B94800680721C9020C
:10188000884361690843B6490860FFF733FFB449EC
:1018900089680F2212021140090A8900B14A515C7D
:1018A000C906C90EC840B0490860B0480068FFF7D3
:1018B0009FFD002847D0012085E72069002829D016
:1018C000A74800680721C902884361690843A44901
:1018D00008600846006889150843A1490860FFF7B9
:1018E00067FD054606E0FFF763FD401B022801D9AE
:1018F000032068E79A48006801218902084000280F
:10190000F1D097484068000C0004A169084394494D
:10191000486018E092480068FF21013188439049EF
:101920000860FFF745FD054606E0FFF741FD401B57
:10193000022801D9032046E789480068012189026D
:1019400008400028F1D108212068084008286CD1FF
:101950008348806838210840182840D180484030AA
:10196000006A02210840002804D0E069002801D163
:10197000012028E77A4840687D490840218C090405
:10198000084377494860FFF713FD054606E0FFF777
:101990000FFD401B022801D9032014E77048403096
:1019A000006A022108400028F1D0182E0FD1FFF75D
:1019B000A1FE6B4989680F2212021140090A8900B1
:1019C000684A515CC906C90EC84067490860674843
:1019D0000068FFF70DFD002842D00120F3E6E06922
:1019E000002823D05E484030006A012108435C494A
:1019F00040310862FFF7DCFC054606E0FFF7D8FC43
:101A0000401B022801D90320DDE655484030006A1A
:101A1000022108400028F1D051484068544908404C
:101A2000218C090408434E49486019E04C48403075
:101A3000006A400840004A4940310862FFF7B8FC9C
:101A4000054606E0FFF7B4FC401B022801D903203D
:101A5000B9E643484030006A022108400028F1D12D
:101A6000042120680840042877D13D488068382147
:101A7000084020280BD13A484030C0690221084074
:101A800000286AD0A068002867D101209BE6A068E2
:101A9000002808D032480069032109048843E1681E
:101AA00008432F49086100BFA068012808D12C48CD
:101AB0004030C0690121084329494031C86121E013
:101AC000A06805280FD126484030C069042108438A
:101AD00023494031C8610846C069012108432049B3
:101AE0004031C8610EE01E484030C06940084000E7
:101AF0001B494031C8610846C06904218843184920
:101B00004031C86100BFA068002813D0FFF750FC27
:101B1000054607E0FFF74CFC401B1649884201D9F7
:101B2000032050E60E484030C069022108400028DA
:101B3000F0D012E0FFF73CFC054607E0FFF738FC69
:101B4000401B0C49884201D903203CE60448403040
:101B5000C069022108400028F0D1002033E60000CF
:101B6000001002403032000848000020040000202D
:101B7000FFFF00FE881300000348006902210843AC
:101B8000014908617047000000E000E070B50446BC
:101B90002546681E0949884201D901200CE0681ECB
:101BA000074948610321081F00F06AFB002004492F
:101BB000886107200861002070BD0000FFFFFF0062
:101BC00000E000E003480069022188430149086100
:101BD0007047000000E000E0704770477047000069
:101BE00010B50446002C01D1012010BDA07F0028B3
:101BF0000BD16077204600F0E7FD206A002801D174
:101C0000074820622046216A88470220A077211DCC
:101C1000206800F07FFC0120A0770020E5E70000AD
:101C2000251C0008704701460868C0680123184356
:101C30000B68D860086880684207520F062A05D0F2
:101C400008680068012318430B681860002070477B
:101C500070477047704710B504462068006902213C
:101C60000840400800281CD02068C0680840400890
:101C7000002816D0481F21680861012020772068BD
:101C800080698007800F002803D02046A16E884716
:101C900005E02046216F88472046616F8847002075
:101CA00020772068006904210840800800281DD0A2
:101CB0002068C06808408008002817D0C843216801
:101CC000086102202077206880690321090208400A
:101CD000002803D02046A16E884705E02046216FEA
:101CE00088472046616F8847002020772068006978
:101CF00008210840C00800281CD02068C06808409F
:101D0000C008002816D0C843216808610420207745
:101D10002068C0698007800F002803D02046A16E8C
:101D2000884705E02046216F88472046616F884735
:101D30000020207720680069102108400009002851
:101D40001DD02068C06808400009002817D0C8438B
:101D500021680861082020772068C06903210902F2
:101D60000840002803D02046A16E884705E02046A1
:101D7000216F88472046616F8847002020772068C0
:101D80000069C007C00F01214840484000280CD01E
:101D90002068C068084048404840002805D0C81E58
:101DA000216808612046A16D88472068006980216C
:101DB0000840C00900280CD02068C0680840C0094D
:101DC000002806D0C84321680861882001592046B0
:101DD00088472068006940210840800900280BD00E
:101DE0002068C06808408009002805D0C8432168E1
:101DF00008612046216E884720680069202108403C
:101E0000400900280CD02068C0680840400900281C
:101E100006D0C843216808618020015920468847C0
:101E200010BD704770B504460D46164600BF607F72
:101E3000012801D1022070BD0120607700BF02207F
:101E4000A077002E06D0042E1BD0082E33D00C2EE7
:101E500062D147E02946206800F0A0FB2068806935
:101E6000082108432168886120688069042188432B
:101E70002168886120688069296908432168886130
:101E80004BE02946206800F0CFFB206880690121E3
:101E9000C90208432168886120688069012189029C
:101EA000884321688861206880692969090208439C
:101EB0002168886131E02946206800F003FC206831
:101EC000C069082108432168C8612068C0690421ED
:101ED00088432168C8612068C0692969084321686E
:101EE000C8611AE02946206800F038FC2068C06903
:101EF0000121C90208432168C8612068C069012125
:101F0000890288432168C8612068C069296909027B
:101F100008432168C86100E000BF00BF0120A0772E
:101F200000BF0020607700BF00BF84E710B5044603
:101F3000002C01D1012010BDA07F00280BD16077BB
:101F4000204600F041FCA06B002801D10748A063A7
:101F50002046A16B88470220A077211D206800F051
:101F6000D9FA0120A0770020E5E70000711F0008E2
:101F700010B586B0044635492068884264D100BF58
:101F800033480068C91408433149086008460068AE
:101F9000C9140840009000BF00BF00BF2C48403863
:101FA000406B012108432A49403948630846406B89
:101FB000C007C00F009000BF00BF00BF0846406BC5
:101FC000012108432249403948630846406BC00755
:101FD000C00F009000BF00BF00BF0846406B01214A
:101FE00008431B49403948630846406BC007C00F8F
:101FF000009000BF00BF02200290049000200390D8
:10200000202001900220059001A905200007FFF77C
:10201000EBF802200190059001A905200007FFF7C9
:10202000E3F8102001900220059001A90520000787
:10203000FFF7DAF8802001900220059001A9052021
:102040000007FFF7D1F800BF06B010BD002C01401B
:10205000401002407047704770B504460E4601229A
:102060003146206800F088FA10492068884203D081
:102070000F492068884201D1012000E0002000289B
:1020800006D02068406C0121C903084321684864D8
:102090002068806845076D0F062D05D02068006810
:1020A0000121084321680860002070BD002C014018
:1020B0000020004010B5044600F0D8F810BD70476D
:1020C0007047704710B50446002C01D1012010BDA7
:1020D000A069002800D000E000BF3D20005D00287E
:1020E00005D100213C200155204600F031F8242183
:1020F0003D2001552068C0680121490388432168BB
:10210000C860204600F0EAFB206A002802D0204682
:1021100000F0C8FB206800690121C90288432168DA
:102120000861206840690821884321684861206867
:10213000C0680121490308432168C8600020206469
:1021400020213D2001553E2001550020BFE7000021
:1021500010B586B004462B492068884250D100BF94
:102160002948406B02210843274948630846406BD1
:1021700002210840009000BF00BF00BF2248406B12
:102180000843214948630846406B022108400090FB
:1021900000BF00BF00BF1C4840300068490308432F
:1021A0001949403108600846006801218903084048
:1021B000009000BF00BF102001900220029000207C
:1021C0000390022004900120059001A90F48FFF719
:1021D0000BF82020019002200290002003900220A2
:1021E00004900120059001A90848FEF7FDFF012297
:1021F00000211B20FFF75CF91B20FFF74DF900BF02
:1022000006B010BD0038014000100240000400502C
:1022100000BFFEE710B502210448FFF7BFF8002811
:1022200001D1012010BD0020FCE700000008005093
:1022300010B504210648FFF7B1F8012806D10221A4
:102240000448FFF7ABF8012800D110BD0020FCE7DF
:10225000000400500008005010B5FFF7A9F810BDA9
:102260000148006870470000100000200248006824
:10227000401C0149086070471000002070470000B2
:1022800010B5002819DA1A4A03071B0F083B9B08F0
:102290009B00D2588307DC0EFF23A3409A438B0791
:1022A0001B0E8407E40EA3401A43114B0407240FAE
:1022B000083CA408A4001A5118E00E4A03231B028C
:1022C000D21883089B00D2588307DC0EFF23A3405B
:1022D0009A438B071B0E8407E40EA3401A43054B59
:1022E000032424021B198408A4001A5110BD000005
:1022F0001CED00E000E100E010B5002819DA1A4AF0
:1023000003071B0F083B9B089B00D2588307DC0E7A
:10231000FF23A3409A438B071B0E8407E40EA340C0
:102320001A43114B0407240F083CA408A4001A51B7
:1023300018E00E4A03231B02D21883089B00D258D0
:102340008307DC0EFF23A3409A438B071B0E8407F1
:10235000E40EA3401A43054B032424021B198408EE
:10236000A4001A5110BD00001CED00E000E100E0E7
:102370007047000010B504210348FFF70FF801284B
:1023800000D110BD0020FCE70004005070470000A1
:102390000FB468460099012914D002290DD00329F1
:1023A00006D0042913D10C4A01691268116400BFD8
:1023B000094AC1681268D16300BF074A8168126880
:1023C000916300BF044A41681268516300BF00BFB7
:1023D00000BF04B0704700005800002010B502484C
:1023E000FEF734FE10BD000028010020FFB587B0C5
:1023F0001C46079961430846FF21FDF791FE80B214
:102400000690089961430846FF21FDF789FE80B2D6
:102410000590099961430846FF21FDF781FE80B2CE
:1024200004900698FF2801DDFF2000E00698069042
:102430000598FF2801DDFF2000E00598059004982D
:10244000FF2801DDFF2000E0049804906421069835
:1024500048430004000E0390059848430004000E12
:102460000290049848430004000E01900398081A53
:10247000C6B20298081AC5B20198081AC7B2642EEB
:1024800001DD642000E030460646642D01DD642055
:1024900000E028460546642F01DD642000E0384650
:1024A00007463B463246294604200095FFF770FF59
:1024B0000BB0F0BD10B5FEF781FF10BD10B50D4893
:1024C0004068000C00040C49096808430949486049
:1024D000084640680949084007494031898809048D
:1024E000084304494860C803054988606420FEF732
:1024F00039FA10BD001002400001FF1FFFFF00FE6F
:1025000000ED00E010B50248FFF7A5FB10BD00008C
:102510007001002010B50268154B984205D1702457
:102520001346A3431A464B681A43114B984202D0F4
:10253000104B984206D1032424021346A3431A46A3
:10254000CB681A4380241346A3434C6923431A469D
:1025500002608B68C3620B688362054B984202D0AD
:10256000044B984201D10B6903630123436110BD01
:10257000002C01400020004070B5CD06ED0E012476
:10258000AC402346046A9C430462046ACE06F60EFD
:102590001546B5402C43046270BD000070B5056A55
:1025A0006D086D000562026A4368846970262546DD
:1025B000B5432C46A408A4000D682C4302261546FA
:1025C000B5432A468D682A43154DA84200D103E041
:1025D000144DA8420AD100BF08261546B5432A4625
:1025E000CD682A4304261546B5432A460C4DA84219
:1025F00002D00C4DA8420CD1FF2601361D46B54332
:102600002B4676001D46B5432B464D692B438D69FD
:102610002B43436084614D684563026270BD0000D6
:10262000002C01400020004070B5056A1026B5431B
:102630000562026A43688469072636032546B54366
:102640002C46032636022546B5432C460D682D023E
:102650002C4320261546B5432A468D682D012A4372
:10266000164DA84200D103E0154DA8420BD10AE057
:1026700080261546B5432A46CD682D012A434026BB
:102680001546B5432A460D4DA84202D00C4DA8422E
:102690000ED10126B6021D46B5432B4676001D46D7
:1026A000B5432B464D69AD002B438D69AD002B43DF
:1026B000436084614D688563026270BD002C0140F7
:1026C0000020004070B5056AFF260136B54305625B
:1026D000026A4368C46970262546B5432C46A4089F
:1026E000A4000D682C43012676021546B5432A4600
:1026F0008D682D022A43174DA84200D103E0164DE4
:10270000A8420CD10BE00126F6021546B5432A4635
:10271000CD682D022A4376101546B5432A460D4D45
:10272000A84202D00C4DA8420ED1012636031D4608
:10273000B5432B4676001D46B5432B464D692D010A
:102740002B438D692D012B434360C4614D68C563E4
:10275000026270BD002C01400020004070B5056A87
:1027600001263603B5430562036A4468C269072639
:1027700036031546B5432A46032636021546B543A9
:102780002A460D682D022A43012676031D46B543CD
:102790002B468D682D032B43094DA84202D0094DCD
:1027A000A84207D10126B6032546B5432C464D69FC
:1027B000AD012C434460C2614D680564036270BD85
:1027C000002C0140002000400E4981650E49C16582
:1027D0000E4901660E4941660E4981660E49C16681
:1027E0000E4901670E4941670E4981670E49C1676D
:1027F0000E4A80210A500E4A84210A500D4A88212F
:102800000A507047B5200008BF200008C12000080A
:10281000C3200008531C0008551C0008231E000894
:102820005520000857200008511C0008DB1B000839
:10283000DD1B0008D91B000808B500BF154800685B
:102840000121C903084313490860084600680121B3
:10285000C9030840009000BF00BF0F480F4908603F
:1028600017210E48C16063200C49486000210B48C5
:10287000816001614161FFF7B3F9132001218140BB
:10288000074A116000BF0021FFF736FD0348FFF73C
:10289000CAF908BD4010024000200040700100202D
:1028A00000E100E04022016A1140002915D00168D2
:1028B000496992019143426A1143026851610122C0
:1028C0001203416A914208D1016849690322520307
:1028D0009143826A1143026851617047FEB5044614
:1028E00020680069012149038843E16808432168A1
:1028F00008612169A0680843616908430290206863
:10290000C0685E490840029908432168C860E069D0
:102910000290206840690121C90288430299084356
:102920002168486120684069032109028843A16940
:102930000843216848610121C902E06988424ED1FB
:10294000FEF7C4FE05466268510019226A4310462C
:10295000FDF7D0FB06466421FDF7CCFB070162685A
:10296000510019226A431046FDF7C4FB064662680F
:10297000510019226A431046FDF7BCFB6421009008
:10298000FDF7B8FB64214843301AC0003230019093
:10299000FDF7B0FBF821084040003F186268510085
:1029A00019226A431046FDF7A5FB064662685100EE
:1029B00019226A431046FDF79DFB64210090FDF744
:1029C00099FB64214843301AC00032300190FDF772
:1029D00091FB4007400F3818216888604CE0FEF7F3
:1029E00075FE05466268910019226A431046FDF79C
:1029F00081FB06466421FDF77DFB070162689100BB
:102A000019226A431046FDF775FB0646626891007D
:102A100019226A431046FDF76DFB64210090FDF713
:102A200069FB64214843301A000132300190FDF700
:102A300061FBF02108403F186268910019226A4347
:102A40001046FDF757FB06466268910019226A435B
:102A50001046FDF74FFB64210090FDF74BFB64210E
:102A60004843301A000132300190FDF743FB000764
:102A7000000F381821688860FEBD0000F3E9FFFFF1
:102A800007480068006820210840202807D1044931
:102A900009684968C8B202490968486000BF7047C0
:102AA000E4000020F0B587B0FFF7DAFB0690FFF7EF
:102AB000D3FB05908C4905980968401A7D21C9000F
:102AC000884202D388490598086088480078062122
:102AD00048438749441800200490864906980968AD
:102AE000884205D3834906980968401A039008E094
:102AF000804800680021C943091A06980818401C3C
:102B00000390A088002805D10120049079490698F7
:102B1000086019E0A1880398814215D8012004902B
:102B2000A08841000398814206D9A08871490968AC
:102B300040187049086002E06E49069808606E48C7
:102B40000068401C6C490860049800287ED000256D
:102B50000026002002902078030000F0D9F8050438
:102B600017396589BA0060784100401863490D5CE7
:102B7000607841004018614940184678607841000B
:102B800040185E49401880780290A2E0A1785A4827
:102B90000068FDF7AFFACFB260786021484358492A
:102BA000401879007918455C6078602148435449A1
:102BB00040187900791840184678607860214843B9
:102BC0004F4940187900791840188078029080E0C9
:102BD000002001900198002821D1A1784648006882
:102BE000FDF788FACFB2607818214843454940186C
:102BF00079007918455C60781821484341494018AC
:102C000079007918401846786078182148433D4982
:102C100040187900791840188078029003E0002568
:102C200000260020029054E0A17833480068FDF7A8
:102C300061FACFB2607806214843334940187900E1
:102C40007918455C60780621484300E04AE02E4947
:102C50004018790079184018467860780621484372
:102C6000294940187900791840188078029030E09E
:102C7000A17821480068FDF73DFACFB2552F0ADA56
:102C800078003818FF21081AC5B2002678003818D5
:102C9000C0B202901CE0AA2F0DDA38465538C7B2F0
:102CA000002578003818C6B278003818FF21081AB5
:102CB000C0B202900CE03846AA38C7B27800381883
:102CC000C5B278003818FF21081AC6B20020029059
:102CD00000BF00BF0D48037831462846029AFFF72F
:102CE00085FB00BF07B0F0BD4000002021000020A0
:102CF000FE3500083C00002024000020E0350008DC
:102D0000B032000850350008C83500082200002005
:102D100030B47446641E2578641CAB4204D3635DF2
:102D20005B00E31830BC18471D46F8E702E008C80E
:102D3000121F08C1002AFAD170477047002001E035
:102D400001C1121F002AFBD17047000010B500BF5F
:102D50000948016809480078401CFDF7CBF9C8B262
:102D60000649087004480068401E09788842EFD080
:102D700000200349086010BD9036000821000020A3
:102D80002400002000BF0D480078002805D10C4821
:102D90000078401E0949087004E008480078401E89
:102DA0000649087006480068401E044909788842B0
:102DB000E9D000200349086070470000210000208E
:102DC0009036000824000020002001490870704758
:102DD00054000020F0B585B014200490FF2003902B
:102DE0001E200290FFF716FA002821D00F2400259C
:102DF000002614211C480068FDF77CF90091009919
:102E00000A02501A1321FDF78BF987B27F2F02DDDA
:102E1000FF20C01B87B2384678434002000C019067
:102E2000E12101984843C0111E3080B201900AE0B0
:102E3000FFF7FEF9002803D000240725002602E052
:102E4000FF240025FF260198C3B2324629462046BA
:102E5000FFF7CCFA04480068401C034908602820AA
:102E6000FDF78EFD05B0F0BD4400002070B50024D4
:102E700007250026FF23324629462046FFF7B6FAEB
:102E80002820FDF77DFD70BD70B504460448055D42
:102E90002B46FF2211461046FFF7A8FA70BD00002E
:102EA000283200081CB5FEF7F9F8FEF793FAFDF793
:102EB00047FBE1204002FDF737FD63211720FDF7B6
:102EC0006BFBFFF7B9FCFDF7B1FBA84F0126012012
:102ED0000190A748A7490978405CA74908700020DD
:102EE000A6490870A6490860FDF788FDA548007846
:102EF000009039E1FDF744FC0446FFF7ADF90546C3
:102F0000052C07D19F480078009000209D4908704B
:102F1000012629E1062C13D19A48007800280ED109
:102F20000098032805D19749087097480560002745
:102F300005E094480078009001209249087013E160
:102F400092480078012807D103208E49087000209C
:102F50008F4908708D4908708A48007800287CD015
:102F600001285ED0022879D0032878D12300FFF70A
:102F7000CFFE054804211305550050E000207F498D
:102F800008707F49086001207E49087081490870F7
:102F90000020FDF7C9F942E000207849087078491F
:102FA00008600120774908707A4908700020FDF711
:102FB000BBF934E0FFF7DEF9002803D000207149A7
:102FC00008701DE072480078002809D1FDF7ACF9BF
:102FD0006D4805606E480078401C6D4908700FE030
:102FE0006B48007801280BD10020694908706349BB
:102FF00008706349086001206249087065490870DB
:103000000DE061480068002807D05F480068C019DB
:10301000A84202D8554FFDF7F1FC00BF00BF00BF2A
:1030200091E0022C22D0032C1DD0042C21D10023AE
:103030001A4619461846FFF7D9F900204F4908707B
:103040004F490860FFF796F9002809D000260320B1
:10305000009000204B49087004E00FE04EE06EE065
:10306000FDF7CCFC80E0FFF78DFE03E0FFF76EFE7E
:1030700000E000BF00BFFFF715FD64E0002C1FD08B
:10308000022C04D0032C0CD0042C18D10AE0012E01
:1030900003D101203B49087002E001260320009083
:1030A0002AE029E000231A4619461846FFF79EF940
:1030B0000020324908703249086000261CE000BF39
:1030C000FFF7A8F8002806D0012E01D1FFF782FEF5
:1030D000012001900FE0FFF7ABF800280BD0012E84
:1030E00001D1FFF7C3FE002E03D10198012800D1C2
:1030F00001260220019000BF00BF24E0022C02D074
:10310000042C19D10BE024480078401C8007800F64
:103110002149087008460078FFF7B6FE0DE01E480A
:10312000007800F03FF8012016490870002013498C
:1031300008701349086000E000BF00BF03E00320EF
:103140001049087000BF00BF1448006814494018B7
:10315000854208D3FFF75EF8002802D10220FDF770
:10316000E3F80E48056000BFC4E60000CA0800008E
:103170002C32000823000020220000202100002023
:103180002400002028000020140000202900002036
:103190001900002018000020200000201C00002042
:1031A00060EA000010B504461548005D1549087036
:1031B00008460378FF2211461046FFF717F9C8208A
:1031C000FDF7DEFB00231A4619461846FFF70EF9F5
:1031D000C820FDF7D5FB0B480378FF2211461046A7
:1031E000FFF704F9C820FDF7CBFB00231A46194668
:1031F0001846FFF7FBF8C820FDF7C2FB10BD000022
:10320000283200082200002000000000000000001A
:10321000000000000000000000366E010000000009
:103220000000000000000000FF804010FF80401000
:10323000000000000000000000000000000000008E
:10324000000000000000000000000000000000007E
:103250000100000002000000030000000400000064
:103260000600000007000000080000000900000040
:10327000000000000000000000000000000000004E
:103280000100000002000000030000000400000034
:10329000000000000000000000000000000000002E
:1032A00000366E0100000000000000000000000079
:1032B000820000820200821000821C00822A0082AA
:1032C0003600824000824C00825C008270006A7688
:1032D00000487600267600047600007620007644CA
:1032E00000766800768C006C94005A94004294003A
:1032F0002894041E94101A941E12942E0A944000CE
:10330000944C00885A007868006678005482004A1D
:103310008076008276008276008276008276004097
:1033200076004076004076004076004076000076D9
:10333000940076940076940076940076940000943D
:103340000000940000940000940000944000944019
:1033500000944000944000944000948200948200C5
:103360009482009482009482009482000082000083
:10337000827694706894605894504A94403A94309D
:103380002C94201C94100E94000094000E82001CBB
:1033900070002C5C003A4A004A3800582400681239
:1033A000007600006812005824004A38003A4A00AB
:1033B0002C5C001C70000E82000094100E94201CE7
:1033C00094302C94403A94504A9460589470689485
:1033D00042004C44004E4A0056560062620072742D
:1033E000008482009482068A820C78821462821E93
:1033F0004A822A3082361282420082520282640657
:10340000827208826E06826606825C04824E0282A6
:103410003E00823002822402821604820A047C006A
:103420000C6A00205A00304E003A460044420048E0
:10343000820C00821200821800821E008224008208
:103440002A00823000823600823C008240008244A2
:1034500000824A00824E00825400825800825C0042
:10346000826200825C00825800825400824E008298
:103470004A00824400824000823C00823600823052
:1034800000822A00822400821E008218008212001C
:10349000000000000000000000000000000000002C
:1034A000000000000000000000000000000000001C
:1034B000000000000000000000000000000000000C
:1034C00000000000000000000000000000000000FC
:1034D00000000000000000000000000000000000EC
:1034E00000000000000000000000000000000000DC
:1034F00000000000000000000000000000000000CC
:1035000000000000000000000000000000000000BB
:1035100000000000000000000000000000000000AB
:10352000000000000000000000000000000000009B
:10353000000000000000000000000000000000008B
:10354000000000000000000000000000000000007B
:10355000FF0000FF8000FFFF0000FF0000FFFF00F2
:1035600040FF8000FFFF00FFFF4000FF0040FF0022
:1035700080FF00FF8000FFFF00FFFF0080FF004092
:10358000FF0000FF4000FF8000FFFF00FFFFFFFF84
:10359000FF00FF8000FF40000000FF0080FF00FFF1
:1035A000FF80FFFFFFFFFF80FFFF00FFFF0080FFA6
:1035B000603280305A6C00785A426246824E3268DD
:1035C00026583E007C82680090004B00AE949057D5
:1035D0000047AE004052A500B0964D8B006300A39B
:1035E000BC0069960000B43C0087620000E1000066
:1035F000ADAD0000FF5A00FF5A5A5A00000001000A
:103600002000E20401012000380001022000E20451
:1036100001032000E20401042000A70002000800CA
:10362000E20402010800E20402020800E2040203CC
:103630000800E20402040800E20403000200C409D6
:1036400003010200C40903020200C40903030200CB
:10365000C409000001000000000101000000000298
:103660000100000000030100000000040100000050
:103670000005010000000006010000000007010035
:103680000000000801000000000901000000000027
:1036900018000000B43600080000002058000000A8
:1036A0002C2D00080C37000858000020A805000049
:1036B0003C2D000800000000040000000100000094
:1036C00000000000000000000000000001000000F9
:1036D0000000000000008000000000000100000069
:1036E00000000000000000000200000001000000D7
:1036F00000000000000000000000000000366E0125
:0C370000180000000000000000000000A5
:04000005080000C12E
:00000001FF
