:020000040800F2
:1000000018070020D90000085D2C0008F12B00081B
:1000100000000000000000000000000000000000E0
:100020000000000000000000000000006D2D00082E
:100030000000000000000000512D00087130000891
:10004000000000000000000000000000EB000008BD
:10005000EB000008550E00085F0E0008690E00084E
:100060000000000000000000000000000000000090
:10007000EB000008EB000008EB00000800000000A7
:1000800000000000EB00000800000000C130000884
:10009000000000000000000000000000EB0000086D
:1000A00000000000EB000008000000003D360008E2
:1000B0000000000000000000000000000000000040
:1000C0000448854600F004FA00480047713B0008E8
:1000D000C046C0461807002004488047044800472F
:1000E000FEE7FEE7FEE7FEE7FEE7FEE77930000801
:1000F000C100000830B50B46014600202022012433
:1001000009E00D46D5409D4205D31D469540491B4B
:100110002546954040191546521E002DF1DC30BD94
:1001200070B500242546002801DA01244042002948
:1001300001DA01254942FFF7DDFFAC4200D0404221
:10014000002C00D0494270BD03460B439B0703D0EF
:1001500009E008C9121F08C0042AFAD203E00B788C
:100160000370401C491C521EF9D27047D2B201E004
:100170000270401C491EFBD270470022F6E710B502
:1001800013460A4604461946FFF7F0FF204610BD05
:10019000024670B54A40D30FDB0740002DD04A001D
:1001A0002AD0010E140E000212020919400A520A46
:1001B0008418E50104465443000A120A2E045043F1
:1001C000A4194219200CC543AA18120C0125AD032D
:1001D000521C521912047F39240400D0521C1043BF
:1001E00001D44000491EC2B20C06C0092018401CB0
:1001F0004008802A02D003E0002070BD4008400083
:10020000002900DA0020184370BD0000F0B51FB4CB
:1002100088B00B990998002448400999C00F4900FB
:1002200049080991C0070B990090490049080B91B2
:1002300009990898A64608431CD00B990A980843C8
:1002400018D0099801244000420D4800410D09983A
:1002500024050003000B204309900B980003000BBA
:1002600020430B9050181C4940180022019014465E
:10027000104605E0002001460DB0F0BD032801DA6C
:10028000034600E003239C46C11A0AAE0AE05F0061
:1002900008ADED5B4F00F75B7D430027AA187C415A
:1002A000491C5B1E6145F2DD410004AB5A5221043A
:1002B000120C0A43240C401C0828DFDB0198029032
:1002C0000099704601910090059B049A0799069841
:1002D00000F0ABF8D0E700000DFCFFFF10B50022E6
:1002E0009623114600F05BF810BD00000EB50549DD
:1002F0000291002100910A460B46019100F095F809
:1003000003B000BD33040000410040020122400A56
:10031000D205090E80187F2901DA0020704796293E
:1003200003DC9622511AC8407047963988407047BE
:100330004A0009030123090B1B051943094B10B59A
:10034000520D9A4201DA002010BD064B34339A4216
:1003500003DC9A1A00F00AF810BD034951188840CE
:1003600010BD0000FF030000CDFBFFFF10B5202AE9
:1003700004DB0846203AD040002110BD0B46D34094
:10038000D0402024A21A91400843194610BD0029EC
:1003900004DA401C490001D140084000704770B4A5
:1003A0000024050C05D11024000402D1002921D01D
:1003B0001124050E01D100020834050F01D10001FE
:1003C000241D850F01D18000A41C002801DB400002
:1003D000641C002908D020252E1B0D46F540A140A5
:1003E00000D001212943084301061B1B000ADB1D25
:1003F00002D5002070BC7047DB0518188018002952
:10040000F8DA401C4900F5D170BC40084000704744
:1004100010B5002B08DA0024401C614192185B41A2
:100420001A4301D14008400010BDF0B51FB482B09E
:1004300005460C0003D0084603F052FA02E003F030
:100440004FFA2030024600902146284600F052F82C
:10045000049B059A04460F4618431143084314D0E1
:10046000184610431BD0009840210A1A18460599D7
:10047000FFF77CFF05460E46009A0599049800F0A8
:1004800039F8084305D0012004E02046394607B07A
:10049000F0BD0020C11705430E432C43374300999C
:1004A0000E986305401A7905E40A00220C43FD0A00
:1004B0000A3002D500200146E9E70105101969411B
:1004C0000C9C0D9D00196941FFF7A2FFDFE70000BA
:1004D000064C0125064E05E0E36807CC2B430C3C97
:1004E00098471034B442F7D3FFF7EEFDDC4500081F
:1004F000FC45000810B5202A04DB0146203A914053
:10050000002010BD914020239C1A0346E34019436C
:10051000904010BD70B58C180578401C6B075B0FC0
:1005200001D10378401C2A1106D10278401C03E057
:1005300006780E70401C491C5B1EF9D12B0705D4B0
:100540000023521E0DD40B70491CFAE70378401C9F
:10055000CB1A921C03E01D780D70491C5B1C521EC7
:10056000F9D5A142D8D3002070BD70B5044600254E
:1005700020688068042108408008002829D020686D
:100580008068084000280BD020688068C007C00F32
:10059000002805D020688068102108432168886001
:1005A00001F0F6FB05460EE001F0F2FB401B0228CD
:1005B00009D9206B102108432063606B0121084397
:1005C0006063012070BD2068806804210840002815
:1005D000EAD10020F6E770B504460025206880685F
:1005E000C007C00F012148404840002837D020688C
:1005F000806805210840012800D100E00020002883
:100600000AD000BF20688068022108432168886002
:1006100002202168086009E0206B10210843206354
:10062000606B012108436063012070BD01F0B0FBE5
:1006300005460EE001F0ACFB401B022809D9206BF7
:10064000102108432063606B01210843606301208F
:10065000EBE720688068C007C00F0028EAD10020BF
:10066000E3E7000038B50446002000902068806869
:10067000C007C00F012148404840002827D120680A
:10068000806814490840002801D1012000E00020C2
:10069000002809D1206B102108432063606B0121E1
:1006A00008436063012038BD206880680121084349
:1006B00021688860084909480068FFF71BFD009021
:1006C00002E00098401E009000980028F9D1002018
:1006D000E9E700001700008040420F004C000020B6
:1006E000F0B58BB0054614200A90FF2009900A202F
:1006F00008901420079019204001069032200590A0
:100700000020049032200390284600F061FC04464B
:100710004E48844206D300200590FF20049000201C
:1007200003900EE04A48844206D3FF200590A5209E
:1007300004900020039004E0FF2005900020049026
:100740000390022D04D14348844201D90BB0F0BD7F
:100750004048844202D87D20000106900A21059875
:10076000FFF7DEFCC0B205900A210498FFF7D8FC21
:10077000C0B204900A210398FFF7D2FCC0B20390E4
:1007800002F05AFA074657E002F056FA0290012D9D
:100790000CD10121304801F0F1FA002806D10023E4
:1007A0001A461946184602F011FBCFE70298C11B02
:1007B0000698814206D300231A461946184602F0CD
:1007C00005FB3AE00020019032E0012D0CD101211F
:1007D000214801F0D3FA002806D100231A46194611
:1007E000184602F0F3FAB1E701990A02501A1321F0
:1007F000FFF796FC86B27F2E02DDFF20801B86B2BB
:1008000030467043C0110090F52100984843C01154
:100810000A3000900098C3B2039A0499059802F038
:10082000D5FA142000F0E8FA0198401CC0B20190FB
:1008300001981428C9DB00BFA6E700BF0548844221
:1008400001D800F017FB00BF80E70000B50E0000E4
:10085000710C0000C40900000004005000B587B00E
:1008600000BF2248406B02210843204948630846E4
:10087000406B02210840019000BF00BF1C4803905C
:100880000220049005900120029002A9194801F06D
:100890009BF9052001F0F0FA00221146052001F035
:1008A000F7FA00BF1148406B022108430F49486323
:1008B0000846406B02210840019000BF00BF0C4871
:1008C000039002200490002005900420029002A9C9
:1008D000084801F079F9062001F0CEFA002211460D
:1008E000062001F0D5FA07B000BD0000001002405C
:1008F00000001110000400500020002109E0064A09
:10090000821811680022D243914201D000BFFEE755
:10091000001D8028F3D37047005F000800B587B042
:1009200000200690022001900648029001200390CA
:1009300006A901A800F080FE002801D000BFFEE754
:1009400007B000BD005F0008F8B50546094C094F27
:100950008037094E3046056008E0324621460120C6
:1009600000F0A8FF002801D180348036BC42F4D3C7
:10097000F8BD0000005F00085C0000200021024A72
:100980008A18106870470000005F000810B5044620
:1009900001F074F8FFF7C2FFFFF7AEFF2046FFF744
:1009A000D3FF00F075FF10BD00B58DB0242104A861
:1009B000FFF7E3FB002000900190029003900F20CE
:1009C0000490FF2001300890002009900B48008817
:1009D00080B20A90002005900B90069004A801F0C8
:1009E000DDFB072000900020019002900390002181
:1009F000684601F077FA0DB000BD00000001FF1F4E
:100A000030B587B005460C462048214908600846A5
:100A1000C46045600021816001614161816101F034
:100A200075FF60200090601C019002200290002061
:100A30000490FF20013005900020069005900022D0
:100A40006946134801F0DEFE0021114801F0F4FF71
:100A5000042269460E4801F0D5FE04210C4801F03D
:100A6000EBFF082269460A4801F0CCFE082108483D
:100A700001F0E2FF0C226946054801F0C3FE0C219B
:100A8000034801F0D9FF07B030BD0000002C014041
:100A9000740100201FB500BF20480068012109052E
:100AA00008431E49086008460068012109050840FE
:100AB000009000BF00BF1A481A49086003200007D1
:100AC0004860002117488160C16001210161042153
:100AD000416100210176417601218176FF21C231F9
:100AE000C1610021016241620521816200F0DCFBED
:100AF0000120000302900020019001A9094800F0A4
:100B00000FFB0120000302900920019001A9054874
:100B100000F006FB034800F0B3FA1FBD401002408E
:100B2000002401404402002000B587B0012129487B
:100B300000F0BEFF0221284800F0BAFF042125483A
:100B400000F0B6FF00BF2548406B01210843234950
:100B500048630846406BC007C00F019000BF00BF4C
:100B600000BF0846406B022108431C494863084601
:100B7000406B02210840019000BF00BF00BF174832
:100B8000406B04210843154948630846406B042123
:100B90000840019000BF00BF002003900220049095
:100BA00005900120029002A90A4801F00DF80120E9
:100BB00004900220029002A9074801F005F80220E3
:100BC00004900420029002A9024800F0FDFF07B043
:100BD00000BD00000004005000080050001002405A
:100BE00010B502F029F810BD70B50026FFF7F8FF28
:100BF000044600F0BDF805465B480078854208D001
:100C0000002D01D0052600E0062657480570304625
:100C100070BD00F0B1F855498873084600780300AC
:100C200002F075FE0604142E4B4F8A964F48807BC7
:100C300001280AD14D48407B002806D101204B49AC
:100C40000870084684600020C87385E047488068C3
:100C5000201A282813D34548807B01280CD143480B
:100C6000C07B00280BD101260220404908700846AD
:100C700084600120C87302E000203C4908706BE0EA
:100C80003A48807B01280AD138488068201A7D21A3
:100C9000C900884203D3052034490870042633482C
:100CA000807B002808D13148407B012804D10320F3
:100CB0002E490870084644604EE004202B49087015
:100CC0004AE02A48807B01280FD12848407B002831
:100CD0000BD12648007B401C244908730120087072
:100CE000084684600020C87325E020484068201A28
:100CF000FA2820D31D48007B002801D1022616E0E7
:100D00001A48007B012801D1032610E01748007B18
:100D1000022801D107260AE01448007B032801D1EC
:100D2000082604E01148007B042800D10926002091
:100D30000E49087008730FE00C48807B002806D12C
:100D40000A48407B012802D100200849087003E0CE
:100D500000200649087000BF00BF0448807B03499B
:100D60004873304654E70000580000207C02002001
:100D700010B501F0EFFF10BD10B50121014800F0E2
:100D8000FDFF10BD000400500020044908704873A6
:100D90008873486088600873C87370477C020020BD
:100DA00010B504460B480C49086008464460002111
:100DB0008160C160016181610C21416101F072FEBD
:100DC00005480068C0682021084303490968C860D5
:100DD00010BD0000003801400002002008B50549A0
:100DE0004143009100BF00BF00994A1E00920029B4
:100DF000F9D108BDB80B000001B57D22D2000099E1
:100E00005143084600F002F808BD000071B5002209
:100E10000E4D6C690E4E3678009D75432B460B4D7A
:100E2000A9690FE0094DA86988420BD0884202D217
:100E30000D1AAA1802E0251A6D18AA1801469A423E
:100E400000D300E0EEE700BF78BD000000E000E066
:100E50005000002010B5012000F0A6FE10BD10B516
:100E6000042000F0A1FE10BD10B5802000F09CFE13
:100E700010BD000010B500231A461946184601F0AF
:100E8000A5FF01F09BFFFFF7E9FC3220FFF7B4FF5D
:100E900001F088FB0121880301F004F801F05CFBFC
:100EA000FFF742FE00231A461946184601F08EFF4E
:100EB000FFF76AFF00200749086003200649087011
:100EC000FFF75AFF012802D10449087001E002F03F
:100ED0008FFD10BD14000020290000202A000020F2
:100EE0000020064948600648406904210843044937
:100EF00048610448C1060860704700005C0100209A
:100F000000200240214334120021054A5160054966
:100F1000496902221143034A5161FF210160704770
:100F20005C01002000200240F0B502460B46002084
:100F300014461D46104E766901273E430E4F7E61D2
:100F400000BFEFF31086314672B60EE02E682660C1
:100F50002D1D241D461CF0B21F2806D1064E7669B1
:100F60000127FF043E43044F7E612028EED300BFDB
:100F700081F3108800BFF0BD002002400449496998
:100F80000122D2021143024A5161FF2101607047E0
:100F90000020024070B5044600F0FAFE051905E095
:100FA00000F0F6FEA84201D3032070BD0648006998
:100FB000012109040840000C0028F1D1034802492E
:100FC00008610020F1E700000020024011800000CD
:100FD000F0B585B00026002401270A20049000F017
:100FE000D7FE03900020019024E0224800F0AAFAE6
:100FF0002149204800F044FA00901E4800F050F9C2
:101000001E4908801B4800F09DFA1B49194800F052
:1010100037FA0090174800F043F91849488008460D
:1010200000888619084640880419781CC7B20198C0
:10103000401C0190049901988842D6DB791E304605
:10104000FFF758F80646791E2046FFF753F8044686
:10105000002C09D031460C225143642251430846EA
:101060002146FFF747F8054600F092FE029068001F
:1010700005B0F0BD4402002040420F0054000020A3
:1010800070B504460025002600BF2C20005D012815
:1010900001D1022070BD01212C20015500BF206824
:1010A000806808404840484000282CD1206B090245
:1010B0008843022108432063206880688907084329
:1010C0002168886000F064FE064611E000F060FED2
:1010D000801B02280CD9206B022188431021084371
:1010E000206300BF00212C20015500BF0120D1E763
:1010F00020688068C00FC0070028E7D1206B02215C
:101100008843206304E0206B2021084320630125ED
:1011100000BF00212C20015500BF2846BAE700007F
:10112000F8B504460D46002600200090A06A00286D
:1011300015D0A06A012812D0A06A02280FD0A06A98
:1011400003280CD0A06A042809D0A06A052806D07C
:10115000A06A062803D0A06A072800D000BF00BFFD
:101160002C20005D012801D10220F8BD01212C2096
:10117000015500BF206880680421084080080028CD
:1011800079D143496868884259D02068806A2A78B2
:1011900001219140084321688862A06A002829D073
:1011A000A06A012826D0A06A022823D0A06A0328BA
:1011B00020D0A06A04281DD0A06A05281AD0A06AF1
:1011C000062817D0A06A072814D0A86821684969A2
:1011D0004907490F88420DD020684069C008C00007
:1011E0002168486120684069297A4907490F084306
:1011F000216848612868082802D0286809283FD15A
:10120000244880682968082901D1090501E00121E5
:10121000890508431F4988602868082830D11E497D
:101220001E480068FEF766FF0A214843009002E06E
:101230000098401E009000980028F9D120E0206816
:10124000806A2A7801219140884321688862286851
:10125000082802D02868092812D10E488068296819
:10126000082902D1090502E005E00121890588432A
:101270000849886004E0206B202108432063012690
:1012800000BF00212C20015500BF30466DE7000053
:10129000011000000027014040420F004C000020D8
:1012A00001460868006C704770B5044600260025AA
:1012B000002C01D1012070BD206B002806D1606395
:1012C00000212C200155204600F0B8F8206B102199
:1012D000084000287ED1002EFCD1206880680421BF
:1012E000084080080028F5D1206B8901884302213D
:1012F0000843206320688068C007C00F0121484070
:10130000484000280FD12068C06818218843A16890
:1013100008432168C860206800690001000961680D
:101320000843216808612068C06842490840216874
:10133000C860207E8003617E49030843616A0129F9
:1013400002D00121090300E000210843E1680843BD
:101350002169022901D1042100E00021084305434D
:10136000A07E01280ED1607E002803D10120000458
:10137000054307E0206B202108432063606B0121B7
:1013800008436063FF21C231E069884203D0216ACB
:10139000E069084305432068C06828432168C860A5
:1013A000A06A002814D0A06A012811D0A06A0228DF
:1013B0000ED0A06A03280BD0A06A042808D0A06A27
:1013C000052805D0A06A062802D0A06A07280FD1F8
:1013D000206800E027E04069C008C000216848613B
:1013E00020684069218D4907490F084321684861F9
:1013F0002068C06810490840A84208D100206063F6
:10140000206B0221884301210843206310E0206BF8
:1014100002218843102108432063606B01210843A7
:101420006063012604E0206B10210843206301263D
:10143000304640E71BC2FEFFE7FF3FC310B586B052
:10144000044600BF0C48406B022108430A49486328
:101450000846406B02210840009000BF00BF0220F8
:101460000190032002900020039001A9034800F09E
:10147000ABFB06B010BD000000100240000400509D
:10148000F8B504460D466069082801D1082700E038
:101490000C2700F07DFC064614E0681C002811D0E3
:1014A000002D04D000F074FC801BA8420AD9206BE8
:1014B00004210843206300BF00212C20015500BFF8
:1014C0000320F8BD2068006838400028E5D0206B74
:1014D00001214902084320632068C0680321890272
:1014E0000840002825D1607E002822D120680068AD
:1014F0000821084008281CD1206880680421084081
:10150000800800280DD1206840680C21884321689C
:101510004860206BFF21013188430121084320638B
:1015200007E0206B202108432063606B0121084302
:101530006063207E002802D10C2021680860002012
:10154000BFE7000070B504460025206880680421CC
:1015500008408008002828D100BF2C20005D012809
:1015600001D1022070BD01212C20015500BF204671
:10157000FFF778F80546002D18D1206B0C4908407C
:10158000FF210131084320630020606300BF002178
:101590002C20015500BF1C2021680860206880684D
:1015A000042108432168886000E002252846D9E725
:1015B000FEF1FFFF70B50446002500BF2C20005D42
:1015C000012801D1022070BD01212C20015500BF4E
:1015D0002046FEF7CAFF0546002D0CD12046FEF737
:1015E000FAFF0546002D06D1206BFF21013188430B
:1015F00001210843206300BF00212C20015500BFBA
:101600002846E0E710B50020C0430A49C862002020
:10161000C862401E086300200863401E88620020E4
:101620008862401E48620020486200F001FC0020F1
:1016300010BD000000100240F8B504460E46012718
:10164000002500BF8D480078012801D10220F8BD97
:1016500001208A49087000BF00BF894949680722F4
:1016600052031140480B874909688200864B9A58FB
:101670001288D205D20D914246D182494968820032
:101680009A5812681201920D91423DD17D49096923
:1016900082009A5812689203D20D914234D179494E
:1016A000896882009A589288D205D20D91422BD136
:1016B0007449C96882009A5852681201120D914209
:1016C00022D17049496982009A5892689203920B1C
:1016D000914219D16B49896982009A58D268920364
:1016E000920B914210D16749C96982009A58128AB7
:1016F00092B2914208D16349096A82009A581269EC
:101700009200920C914248D000BF81005E4A51582D
:101710000988C905C90D5B4A116081005A4A5158B0
:1017200009680901890D574A51608100564A51588C
:1017300009688903C90D534A11618100524A515801
:101740008988C905C90D4F4A916081004E4A515898
:1017500049680901090D4B4AD16081004A4A515834
:1017600089688903890B474A51618100464A51586B
:10177000C9688903890B434A91618100424A5158E3
:10178000098A89B23F4AD16181003F4A51580969AB
:101790008900890C3B4A116200BF00BF2068012804
:1017A00013D17D20C000FFF7F5FB00285ED1FFF7C5
:1017B00097FB7D20C000FFF7EDFB074633484069EB
:1017C000042188433149486150E02068022823D130
:1017D0007D20C000FFF7DEFB002847D1401E3060AF
:1017E000656812E02846FFF78FFB7D20C000FFF7F9
:1017F000D1FB0746254840690221884323494861B7
:10180000002F01D0356006E08035A068C001616816
:101810004018A842E6D829E02068032826D17D2078
:10182000C000FFF7B7FB002820D1401E3060E568FC
:1018300015E02846FFF7A2FB7D20C000FFF7AAFBBA
:101840000746124840690121C90288430F4948618F
:10185000002F01D0356008E0012000032D18206919
:101860000003E1684018A842E3D800BF00BF002091
:101870000249087000BF3846E9E600005C0100201C
:101880000010024000210240A44000080020024055
:10189000012007494969C2071143054A51611146B0
:1018A0004969C90FC907002900D00020704700000E
:1018B00000200240F8B507460C461646012500BF39
:1018C00069480078012801D10220F8BD012066494D
:1018D000087000BF00BF65494968072252031140E4
:1018E000480B634909688200624B9A581288D205F6
:1018F000D20D914246D15E49496882009A581268D9
:101900001201920D91423DD15949096982009A58BC
:1019100012689203D20D914234D1554989688200F0
:101920009A589288D205D20D91422BD15049C9685C
:1019300082009A5852681201120D914222D14C49EC
:10194000496982009A5892689203920B914219D188
:101950004749896982009A58D2689203920B914252
:1019600010D14349C96982009A58128A92B29142B1
:1019700008D13F49096A82009A5812699200920C74
:10198000914248D000BF81003A4A51580988C905A0
:10199000C90D374A11608100364A5158096809015A
:1019A000890D334A51608100324A515809688903D0
:1019B000C90D2F4A116181002E4A51588988C905E5
:1019C000C90D2B4A916081002A4A51584968090182
:1019D000090D274AD1608100264A51588968890338
:1019E000890B234A51618100224A5158C9688903F1
:1019F000890B1F4A916181001E4A5158098A89B298
:101A00001B4AD16181001B4A515809698900890C20
:101A1000174A116200BF00BF6006400E002801D0C7
:101A2000012052E77D20C000FFF7B4FA0546002DE3
:101A300012D131462046FFF777FA7D20C000FFF72C
:101A4000A9FA05460C484069400840000A49486127
:101A5000002D01D0284638E700BF00200249087059
:101A600000BF284631E700005C0100200010024062
:101A700000210240A4400008002002400020094943
:101A80004969C90FC90700290BD00749054A916068
:101A90000649916011464969C90FC907002900D05C
:101AA000012070470020024023016745AB89EFCD3C
:101AB000F0B502460B4600206AE001258540294624
:101AC0001940002963D0354D8608B600AC5985070A
:101AD000EE0E0F25B5402C4005252D07AA4201D159
:101AE000002505E02E4DAA4201D1012500E0022586
:101AF0008607F60EB540A54223D1284D20352D6826
:101B00008D43264E2036356035466D688D437560B1
:101B1000224D603D2D688D43204E603E3560354638
:101B20006D688D4375608507EE0E0F25B5402C4618
:101B30001A4D8608B600AD59A543184E8708BF0058
:101B4000F551156847000326BE4035431560C508AA
:101B5000AE0015462035AD594607F70E0F26BE409C
:101B6000B543C608B60017462037BD5195684700F3
:101B70000326BE40B5439560556801268640B543AF
:101B80005560D56847000326BE40B543D560401C6C
:101B90001D46C540002D90D1F0BD000060180240E8
:101BA000000400507047000010B504460548C068A6
:101BB0002040002804D00348C4602046FFF7F2FF0D
:101BC00010BD00000018024070B503460022CBE0B3
:101BD000012696400C683440002C71D04D68022DCF
:101BE00002D04D68122D15D1D508AE001D46203506
:101BF000A8595507EE0E0F25B5400646AE433046B0
:101C00005607F60E0D69B5402843D508AD001E46AF
:101C100020367051186856000325B5400646AE437D
:101C200030460D79AD07AD0F5600B540284318601A
:101C30004D68012D08D04D68022D05D04D68112D3D
:101C400002D04D68122D18D1986856000325B54072
:101C50000646AE4330465600CD68B54028439860EE
:101C60005868012595400646AE43304610264D681B
:101C700035402D09954028435860D8685600032503
:101C8000B5400646AE43304656008D68B540284301
:101C9000D860012636074D683540B54263D1354DD1
:101CA0009608B600A8599507EE0E0F25B5400646D2
:101CB000AE43304605252D07AB4202D1002506E094
:101CC00051E02D4DAB4201D1012500E002259607E0
:101CD000F60EB5402843274D9608B600A851254D6D
:101CE000203528680546A5432846012636044D6858
:101CF0003540B54202D10546254328461D4D2035C5
:101D0000286068680546A5432846012676044D6884
:101D10003540B54202D1054625432846154D2035AC
:101D20006860144D603D28680546A5432846012695
:101D300036054D683540B54202D105462543284653
:101D40000C4D603D286068680546A543284601267D
:101D500076054D683540B54202D1054625432846F3
:101D6000044D603D6860521C0D68D540002D00D0C8
:101D70002EE770BD6018024000040050024613694F
:101D80000B40002B01D0012000E000207047000034
:101D90000148006870470000000000200348006808
:101DA0000349096840180149086070470000002095
:101DB0000800002010B50024032000F009F80028D6
:101DC00001D0012401E000F035F8204610BD0000EC
:101DD000F8B5044600251348006800281ED01148B5
:101DE00001687D20C000FEF785F9074639460E4898
:101DF0000068FEF77FF9064600F0B8FB00280BD11B
:101E0000042C07D200222146401E00F041F807486A
:101E1000046004E0012502E0012500E001252846D8
:101E2000F8BD0000080000204C0000200400002045
:101E30007047000008B500BF0E4800680121084344
:101E40000C49086008460068C007C00F009000BF3A
:101E500000BF00BF07484038C06B890508430549EB
:101E60004039C8630846C06B09040840009000BFB1
:101E700000BF08BD4010024000BFC206D20E0121C3
:101E80009140024A116000BF7047000000E100E08D
:101E900070B504460D4616462946204600F0E0FE81
:101EA00070BD00000D4A126803239B039A4302434E
:101EB0000A4B1A600A4A126904231A43084B1A6132
:101EC000012901D130BF02E040BF20BF20BF044A3A
:101ED000126904239A43024B1A6170470070004054
:101EE00000ED00E070B504460D46002C01D1012044
:101EF00070BD65480068C007C00FA84218D262488C
:101F000000684008400028435F490860FFF740FF31
:101F1000064607E0FFF73CFF801B5C49884201D979
:101F20000320E5E758480068C007C00FA842F1D178
:101F3000022120680840022815D1042120680840A9
:101F4000042807D1524880680721090388434018B4
:101F50004F4988604E4880680F2109028843A16874
:101F600008434B4988602078C007C00F002848D03C
:101F70006068012808D146480068012189040840AA
:101F8000002822D10120B3E76068002808D140482A
:101F90000068012189020840002816D10120A7E726
:101FA0006068042808D13A484030C06902210840DE
:101FB00000280AD101209BE735484030006A022101
:101FC0000840002801D1012092E731488068C0080C
:101FD000C000616808432E498860FFF7D9FE0646B5
:101FE00007E0FFF7D5FE801B2849884201D903206E
:101FF0007EE727488068382108406168C900884228
:10200000EFD121480068C007C00FA84218D91E4868
:1020100000684008400028431B490860FFF7B8FEED
:10202000064607E0FFF7B4FE801B1849884201D935
:1020300003205DE714480068C007C00FA842F1D133
:10204000042120680840042808D11148806807212D
:1020500009038843E16808430D49886000F03AF8B5
:102060000B4989680F2212021140090A8900094AA6
:10207000515CC906C90EC840074908600748006896
:10208000FFF7A6FE34E7000000200240881300009E
:1020900000100240E84000084C000020040000202E
:1020A00001480068704700004C00002000B5FFF7B1
:1020B000F7FF06498968072212031140090B8900BE
:1020C000034A515CC906C90EC84000BD0010024059
:1020D0002841000870B588B020222B496846FEF7D9
:1020E00033F82A48806838210840002814D127484E
:1020F000006809020840C10A01258D402348406854
:10210000072149030840460BB1006A46505829464A
:10211000FDF7F0FF044634E01C4880683821084091
:10212000082801D11A4C2CE0184880683821084052
:10213000202801D1840224E0144880683821084016
:1021400018281DD11148406812490840000C124956
:102150008988C905C90D884202D10124E40310E031
:102160000A4840680B490840000C0B490989C90519
:10217000C90D884202D14B24640202E0002400E031
:102180000024204608B070BDC44000080010024082
:1021900000366E010000FF014001FF1F70B50446CC
:1021A000002C01D1012070BD2078C007C00F00288D
:1021B0001ED0E348866838210E40082E04D160689E
:1021C000002815D10120EEE700BF012189046068D5
:1021D000884205D1DA4800680843D949086006E01A
:1021E000D7480068012189048843D549086000BFA9
:1021F00002212068084002287BD1D148806838211C
:1022000008400646002E48D1CD48006801218902C9
:102210000840002804D02069002801D10120C2E72D
:10222000C7484068000C0004A1690843C4494860DD
:10223000FFF7AEFD054606E0FFF7AAFD401B0228AA
:1022400001D90320AFE7BE48006801218902084098
:102250000028F1D0002E18D1B94800680721C90222
:10226000884361690843B6490860FFF733FFB44902
:1022700089680F2212021140090A8900B14A515C93
:10228000C906C90EC840B0490860B0480068FFF7E9
:102290009FFD002847D0012085E72069002829D02C
:1022A000A74800680721C902884361690843A44917
:1022B00008600846006889150843A1490860FFF7CF
:1022C00067FD054606E0FFF763FD401B022801D9C4
:1022D000032068E79A480068012189020840002825
:1022E000F1D097484068000C0004A1690843944964
:1022F000486018E092480068FF2101318843904906
:102300000860FFF745FD054606E0FFF741FD401B6D
:10231000022801D9032046E7894800680121890283
:1023200008400028F1D108212068084008286CD115
:102330008348806838210840182840D180484030C0
:10234000006A02210840002804D0E069002801D179
:10235000012028E77A4840687D490840218C09041B
:10236000084377494860FFF713FD054606E0FFF78D
:102370000FFD401B022801D9032014E770484030AC
:10238000006A022108400028F1D0182E0FD1FFF773
:10239000A1FE6B4989680F2212021140090A8900C7
:1023A000684A515CC906C90EC84067490860674859
:1023B0000068FFF70DFD002842D00120F3E6E06938
:1023C000002823D05E484030006A012108435C4960
:1023D00040310862FFF7DCFC054606E0FFF7D8FC59
:1023E000401B022801D90320DDE655484030006A31
:1023F000022108400028F1D0514840685449084063
:10240000218C090408434E49486019E04C4840308B
:10241000006A400840004A4940310862FFF7B8FCB2
:10242000054606E0FFF7B4FC401B022801D9032053
:10243000B9E643484030006A022108400028F1D143
:10244000042120680840042877D13D48806838215D
:10245000084020280BD13A484030C069022108408A
:1024600000286AD0A068002867D101209BE6A068F8
:10247000002808D032480069032109048843E16834
:1024800008432F49086100BFA068012808D12C48E3
:102490004030C0690121084329494031C86121E029
:1024A000A06805280FD126484030C06904210843A0
:1024B00023494031C8610846C069012108432049C9
:1024C0004031C8610EE01E484030C06940084000FD
:1024D0001B494031C8610846C06904218843184936
:1024E0004031C86100BFA068002813D0FFF750FC3E
:1024F000054607E0FFF74CFC401B1649884201D90E
:10250000032050E60E484030C069022108400028F0
:10251000F0D012E0FFF73CFC054607E0FFF738FC7F
:10252000401B0C49884201D903203CE60448403056
:10253000C069022108400028F0D1002033E60000E5
:1025400000100240E84000084C0000200400002079
:10255000FFFF00FE881300000348006902210843C2
:10256000014908617047000000E000E070B50446D2
:102570002546681E0949884201D901200CE0681EE1
:10258000074948610321081F00F06AFB0020044945
:10259000886107200861002070BD0000FFFFFF0078
:1025A00000E000E003480069022188430149086116
:1025B0007047000000E000E070477047704700007F
:1025C00010B50446002C01D1012010BDA07F0028C9
:1025D0000BD16077204600F0D5FE206A002801D19B
:1025E000074820622046216A88470220A077211DE3
:1025F000206800F06DFD0120A0770020E5E70000D5
:1026000005260008704701460868C0680123184382
:102610000B68D860086880684207520F062A05D008
:1026200008680068012318430B6818600020704791
:1026300070477047704710B5044620680069022152
:102640000840400800281CD02068C06808404008A6
:10265000002816D0481F21680861012020772068D3
:1026600080698007800F002803D02046A16E88472C
:1026700005E02046216F88472046616F884700208B
:1026800020772068006904210840800800281DD0B8
:102690002068C06808408008002817D0C843216817
:1026A0000861022020772068806903210902084020
:1026B000002803D02046A16E884705E02046216F00
:1026C00088472046616F884700202077206800698E
:1026D00008210840C00800281CD02068C0680840B5
:1026E000C008002816D0C84321680861042020775C
:1026F0002068C0698007800F002803D02046A16EA3
:10270000884705E02046216F88472046616F88474B
:102710000020207720680069102108400009002867
:102720001DD02068C06808400009002817D0C843A1
:1027300021680861082020772068C0690321090208
:102740000840002803D02046A16E884705E02046B7
:10275000216F88472046616F8847002020772068D6
:102760000069C007C00F01214840484000280CD034
:102770002068C068084048404840002805D0C81E6E
:10278000216808612046A16D884720680069802182
:102790000840C00900280CD02068C0680840C00963
:1027A000002806D0C84321680861882001592046C6
:1027B00088472068006940210840800900280BD024
:1027C0002068C06808408009002805D0C8432168F7
:1027D00008612046216E8847206800692021084052
:1027E000400900280CD02068C06808404009002833
:1027F00006D0C843216808618020015920468847D7
:1028000010BD704770B504460D46164600BF607F88
:10281000012801D1022070BD0120607700BF022095
:10282000A077002E06D0042E1BD0082E33D00C2EFD
:1028300062D147E02946206800F08EFC206880695C
:102840000821084321688861206880690421884341
:102850002168886120688069296908432168886146
:102860004BE02946206800F0BDFC2068806901210A
:10287000C9020843216888612068806901218902B2
:1028800088432168886120688069296909020843B2
:102890002168886131E02946206800F0F1FC206859
:1028A000C069082108432168C8612068C069042103
:1028B00088432168C8612068C06929690843216884
:1028C000C8611AE02946206800F026FD2068C0692A
:1028D0000121C90208432168C8612068C06901213B
:1028E000890288432168C8612068C0692969090292
:1028F00008432168C86100E000BF00BF0120A07745
:1029000000BF0020607700BF00BF84E710B5044619
:10291000002C01D1012010BDA07F00280BD16077D1
:10292000204600F02FFDA06B002801D10748A063CE
:102930002046A16B88470220A077211D206800F067
:10294000C7FB0120A0770020E5E70000512900081F
:1029500010B586B0044635492068884264D100BF6E
:1029600033480068C91408433149086008460068C4
:10297000C9140840009000BF00BF00BF2C48403879
:10298000406B012108432A49403948630846406B9F
:10299000C007C00F009000BF00BF00BF0846406BDB
:1029A000012108432249403948630846406BC0076B
:1029B000C00F009000BF00BF00BF0846406B012160
:1029C00008431B49403948630846406BC007C00FA5
:1029D000009000BF00BF02200290049000200390EE
:1029E000202001900220059001A905200007FFF793
:1029F000EBF802200190059001A905200007FFF7E0
:102A0000E3F8102001900220059001A9052000079D
:102A1000FFF7DAF8802001900220059001A9052037
:102A20000007FFF7D1F800BF06B010BD002C014031
:102A3000401002407047704770B504460E460122B0
:102A40003146206800F076FB10492068884203D0A8
:102A50000F492068884201D1012000E000200028B1
:102A600006D02068406C0121C903084321684864EE
:102A70002068806845076D0F062D05D02068006826
:102A80000121084321680860002070BD002C01402E
:102A90000020004010B5044600F0D8F810BD704783
:102AA0007047704710B50446002C01D1012010BDBD
:102AB000A069002800D000E000BF3D20005D002894
:102AC00005D100213C200155204600F031F8242199
:102AD0003D2001552068C0680121490388432168D1
:102AE000C860204600F0D8FC206A002802D02046AA
:102AF00000F0B6FC206800690121C9028843216802
:102B0000086120684069082188432168486120687D
:102B1000C0680121490308432168C860002020647F
:102B200020213D2001553E2001550020BFE7000037
:102B300010B586B004462B492068884250D100BFAA
:102B40002948406B02210843274948630846406BE7
:102B500002210840009000BF00BF00BF2248406B28
:102B60000843214948630846406B02210840009011
:102B700000BF00BF00BF1C48403000684903084345
:102B8000194940310860084600680121890308405E
:102B9000009000BF00BF1020019002200290002092
:102BA0000390022004900120059001A90F48FFF72F
:102BB0000BF82020019002200290002003900220B8
:102BC00004900120059001A90848FEF7FDFF0122AD
:102BD00000211B20FFF75CF91B20FFF74DF900BF18
:102BE00006B010BD00380140001002400004005043
:102BF00000BFFEE710B502210448FFF7BFF8002828
:102C000001D1012010BD0020FCE7000000080050A9
:102C100010B504210648FFF7B1F8012806D10221BA
:102C20000448FFF7ABF8012800D110BD0020FCE7F5
:102C3000000400500008005010B5FFF7A9F810BDBF
:102C4000014800687047000010000020024800683A
:102C5000401C0149086070471000002070470000C8
:102C600010B5002819DA1A4A03071B0F083B9B0806
:102C70009B00D2588307DC0EFF23A3409A438B07A7
:102C80001B0E8407E40EA3401A43114B0407240FC4
:102C9000083CA408A4001A5118E00E4A03231B02A2
:102CA000D21883089B00D2588307DC0EFF23A34071
:102CB0009A438B071B0E8407E40EA3401A43054B6F
:102CC000032424021B198408A4001A5110BD00001B
:102CD0001CED00E000E100E010B5002819DA1A4A06
:102CE00003071B0F083B9B089B00D2588307DC0E91
:102CF000FF23A3409A438B071B0E8407E40EA340D7
:102D00001A43114B0407240F083CA408A4001A51CD
:102D100018E00E4A03231B02D21883089B00D258E6
:102D20008307DC0EFF23A3409A438B071B0E840707
:102D3000E40EA3401A43054B032424021B19840804
:102D4000A4001A5110BD00001CED00E000E100E0FD
:102D50007047000010B504210348FFF70FF8012861
:102D600000D110BD0020FCE70004005070470000B7
:102D70000FB468460099012914D002290DD0032907
:102D800006D0042913D10C4A01691268116400BFEE
:102D9000094AC1681268D16300BF074A8168126896
:102DA000916300BF044A41681268516300BF00BFCD
:102DB00000BF04B0704700007401002010B5024845
:102DC000FEF7F8FB10BD000044020020FFB587B0FD
:102DD0001C46079961430846FF21FDF7A1F980B21F
:102DE0000690089961430846FF21FDF799F980B2E2
:102DF0000590099961430846FF21FDF791F980B2DA
:102E000004900698FF2801DDFF2000E00698069058
:102E10000598FF2801DDFF2000E005980590049843
:102E2000FF2801DDFF2000E004980490642106984B
:102E300048430004000E0390059848430004000E28
:102E40000290049848430004000E01900398081A69
:102E5000C6B20298081AC5B20198081AC7B2642E01
:102E600001DD642000E030460646642D01DD64206B
:102E700000E028460546642F01DD642000E0384666
:102E800007463B463246294604200095FFF770FF6F
:102E90000BB0F0BDFFB58DB00E4617461C460020A6
:102EA0000B900A9009906F480078A04224D10D98A9
:102EB000FDF714FA02901699FDF76AF90390FDF7F1
:102EC00023FA80B20B903046FDF708FA029016996B
:102ED000FDF75EF90390FDF717FA80B20A903846C5
:102EE000FDF7FCF902901699FDF752F90390FDF7F2
:102EF0000BFA80B2099067E05A488078A0422DD141
:102F00000D98FDF7F3F90022574B01910090FDF762
:102F10007DF903910290FDF70BFA80B20B903046D9
:102F2000FDF7E4F90022504B01910090FDF76EF996
:102F300003910290FDF7FCF980B20A903846FDF744
:102F4000D5F90022484B01910090FDF75FF90391FC
:102F50000290FDF7EDF980B2099035E04148C07864
:102F6000A0422DD10D98FDF7C1F900223F4B0191F0
:102F70000090FDF74BF903910290FDF7D9F980B26B
:102F80000B903046FDF7B2F90022384B01910090CA
:102F9000FDF73CF903910290FDF7CAF980B20A905F
:102FA0003846FDF7A3F90022304B01910090FDF760
:102FB0002DF903910290FDF7BBF980B2099003E06F
:102FC0000D980B900A9609970B98FF2801DDFF20BA
:102FD00000E00B980B900A98FF2801DDFF2000E02D
:102FE0000A980A900998FF2801DDFF2000E009985F
:102FF000099064210B9848430004000E08900A9839
:1030000048430004000E0790099848430004000E4E
:1030100006900898081AC0B205900798081AC5B219
:103020000698081AC0B204900598642801DD64204F
:1030300000E005980590642D01DD642000E028463D
:1030400005460498642801DD642000E0049804909B
:10305000009529460420049B059AFFF789FE11B0CC
:10306000F0BD0000E44000080000E03F0000D03F59
:1030700010B5FEF793FE10BD10B50D484068000C6A
:1030800000040C490968084309494860084640683B
:10309000094908400749403189880904084304491F
:1030A0004860C803054988606420FDF797FE10BD9D
:1030B000001002400001FF1FFFFF00FE00ED00E0D6
:1030C00010B50248FFF7B7FA10BD00008C020020CF
:1030D00010B50268154B984205D170241346A343DE
:1030E0001A464B681A43114B984202D0104B984233
:1030F00006D1032424021346A3431A46CB681A437D
:1031000080241346A3434C6923431A4602608B680C
:10311000C3620B688362054B984202D0044B98420D
:1031200001D10B6903630123436110BD002C0140F1
:103130000020004070B5CD06ED0E0124AC402346C2
:10314000046A9C430462046ACE06F60E1546B54036
:103150002C43046270BD000070B5056A6D086D00F7
:103160000562026A4368846970262546B5432C4689
:10317000A408A4000D682C4302261546B5432A4630
:103180008D682A43154DA84200D103E0144DA84292
:103190000AD100BF08261546B5432A46CD682A4302
:1031A00004261546B5432A460C4DA84202D00C4DC4
:1031B000A8420CD1FF2601361D46B5432B467600AA
:1031C0001D46B5432B464D692B438D692B43436008
:1031D00084614D684563026270BD0000002C0140AF
:1031E0000020004070B5056A1026B5430562026AEA
:1031F00043688469072636032546B5432C460326D3
:1032000036022546B5432C460D682D022C43202658
:103210001546B5432A468D682D012A43164DA8420E
:1032200000D103E0154DA8420BD10AE080261546D7
:10323000B5432A46CD682D012A4340261546B5439D
:103240002A460D4DA84202D00C4DA8420ED10126AF
:10325000B6021D46B5432B4676001D46B5432B46A8
:103260004D69AD002B438D69AD002B4343608461F4
:103270004D688563026270BD002C01400020004053
:1032800070B5056AFF260136B5430562026A4368D8
:10329000C46970262546B5432C46A408A4000D68D1
:1032A0002C43012676021546B5432A468D682D0229
:1032B0002A43174DA84200D103E0164DA8420CD175
:1032C0000BE00126F6021546B5432A46CD682D02CD
:1032D0002A4376101546B5432A460D4DA84202D022
:1032E0000C4DA8420ED1012636031D46B5432B4690
:1032F00076001D46B5432B464D692D012B438D6944
:103300002D012B434360C4614D68C563026270BDEB
:10331000002C01400020004070B5056A01263603EC
:10332000B5430562036A4468C26907263603154639
:10333000B5432A46032636021546B5432A460D688C
:103340002D022A43012676031D46B5432B468D6880
:103350002D032B43094DA84202D0094DA84207D1A5
:103360000126B6032546B5432C464D69AD012C43D5
:103370004460C2614D680564036270BD002C014069
:10338000002000400E4981650E49C1650E49016665
:103390000E4941660E4981660E49C1660E490167B4
:1033A0000E4941670E4981670E49C1670E4A802167
:1033B0000A500E4A84210A500D4A88210A5070474B
:1033C000952A00089F2A0008A12A0008A32A0008BD
:1033D000332600083526000803280008352A00088F
:1033E000372A000831260008BB250008BD25000843
:1033F000B925000808B500BF154800680121C903B8
:10340000084313490860084600680121C9030840C1
:10341000009000BF00BF0F480F49086017210E48F9
:10342000C16063200C49486000210B488160016144
:103430004161FFF7C5F8132001218140074A11605F
:1034400000BF0021FFF748FC0348FFF7DCF808BD88
:1034500040100240002000408C02002000E100E00B
:103460004022016A1140002915D001684969920182
:103470009143426A11430268516101221203416A79
:10348000914208D101684969032252039143826A3B
:103490001143026851617047FEB504462068006917
:1034A000012149038843E1680843216808612169D3
:1034B000A06808436169084302902068C0685E49BB
:1034C0000840029908432168C860E06902902068BA
:1034D00040690121C9028843029908432168486173
:1034E00020684069032109028843A16908432168D3
:1034F00048610121C902E06988424ED1FEF7D6FD3C
:1035000005466268510019226A431046FCF7F2FD35
:1035100006466421FCF7EEFD07016268510019229E
:103520006A431046FCF7E6FD064662685100192220
:103530006A431046FCF7DEFD64210090FCF7DAFDDB
:1035400064214843301AC00032300190FCF7D2FDAC
:10355000F821084040003F186268510019226A4370
:103560001046FCF7C7FD06466268510019226A43FF
:103570001046FCF7BFFD64210090FCF7BBFD642101
:103580004843301AC00032300190FCF7B3FD4007C9
:10359000400F3818216888604CE0FEF787FD05462B
:1035A0006268910019226A431046FCF7A3FD0646A3
:1035B0006421FCF79FFD07016268910019226A43AC
:1035C0001046FCF797FD06466268910019226A438F
:1035D0001046FCF78FFD64210090FCF78BFD642101
:1035E0004843301A000132300190FCF783FDF0218E
:1035F00008403F186268910019226A431046FCF7A0
:1036000079FD06466268910019226A431046FCF76C
:1036100071FD64210090FCF76DFD64214843301A70
:10362000000132300190FCF765FD0007000F3818EB
:1036300021688860FEBD0000F3E9FFFF07480068CD
:10364000006820210840202807D1044909684968FA
:10365000C8B202490968486000BF704700020020F4
:10366000F0B587B0FFF7ECFA0690FFF7E5FA0590A2
:10367000904905980968401A7D21C900884202D303
:103680008C49059808608C4800780C2148438B4988
:103690004418002004908A4906980968884205D396
:1036A000874906980968401A039008E08448006832
:1036B0000021C943091A06980818401C0390A088E5
:1036C000002805D1012004907D490698086019E082
:1036D000A1880398814215D801200490A088410058
:1036E0000398814206D9A088754909684018744931
:1036F000086002E072490698086072480068401C41
:1037000070490860049800287ED00025002600201B
:1037100002902078030000F0FAF805041739658953
:10372000BA0060784100401867490D5C607841003C
:103730004018654940184678607841004018624951
:10374000401880780290A2E0A1785E480068FCF7FB
:10375000D1FCCFB26078602148435C4940187900C1
:103760007918455C607860214843584940187900D1
:1037700079184018467860786021484353494018CA
:103780007900791840188078029080E0002001903C
:103790000198002821D1A1784A480068FCF7AAFCCA
:1037A000CFB2607818214843494940187900791808
:1037B000455C6078182148434549401879007918DC
:1037C00040184678607818214843414940187900EC
:1037D000791840188078029003E000250026002028
:1037E000029054E0A17837480068FCF783FCCFB220
:1037F0006078062148433749401879007918455CBC
:1038000060780621484300E051E0324940187900D1
:103810007918401846786078062148432D494018A9
:103820007900791840188078029030E0A178254816
:103830000068FCF75FFCCFB2552F0ADA7800381821
:10384000FF21081AC5B2002678003818C0B20290CD
:103850001CE0AA2F0DDA38465538C7B2002578008B
:103860003818C6B278003818FF21081AC0B2029082
:103870000CE03846AA38C7B278003818C5B27800CC
:103880003818FF21081AC6B20020029000BF00BFFE
:1038900011480078810020460830405800900F48B9
:1038A000037831462846029AFFF7F4FA00BF07B0C2
:1038B000F0BD00004000002021000020B8440008B6
:1038C0003C000020240000209844000868410008C3
:1038D000084400088044000828000020220000203E
:1038E0002021020C01D010211046020A01D01046FE
:1038F0000839020901D01046091F820801D010467C
:10390000891E420801D0881E7047081A704730B4DB
:103910007446641E2578641CAB4204D3635D5B006F
:10392000E31830BC18471D46F8E702E008C8121F2C
:1039300008C1002AFAD170477047002001E001C198
:10394000121F002AFBD1704710B500BF094801685B
:1039500009480078401CFCF7CDFBC8B20649087046
:1039600004480068401E09788842EFD000200349CF
:10397000086010BDD8450008210000202400002068
:1039800000BF0D480078002805D10C480078401E83
:103990000949087004E008480078401E064908708C
:1039A00006480068401E044909788842E9D0002092
:1039B000034908607047000021000020D845000836
:1039C0002400002010B50446002C06D164230022F8
:1039D000FF211046FFF7FAF905E0642300223C219D
:1039E000B420FFF7F3F9C820FDF706FA10BD000078
:1039F000002001490870704758000020F0B585B0DC
:103A000014200490FF2003901E200290FFF7F2F88C
:103A1000002821D00F240025002614211C4800680E
:103A2000FCF768FB009100990A02501A1321FCF779
:103A300077FB87B27F2F02DDFF20C01B87B238469D
:103A400078434002000C0190E12101984843C011E5
:103A50001E3080B201900AE0FFF7DAF8002803D0A8
:103A600000240725002602E0FF240025FF260198F8
:103A7000C3B2324629462046FFF7A8F90448006839
:103A8000401C034908602820FDF7B6F905B0F0BDD9
:103A90004400002070B5002407250026FF2332468D
:103AA00029462046FFF792F92820FDF7A5F970BDB9
:103AB00070B504460448055D2B46FF2211461046AA
:103AC000FFF784F970BD0000E4400008FEB507462A
:103AD00000BF00BF00BF002F03D10F240025002628
:103AE00014E0012F03D100240F2500260EE0022F41
:103AF00003D1002400250F2608E0032F03D10F2453
:103B00000025002602E00024002500261421174885
:103B10000068FCF7EFFA019101990A02501A13218B
:103B2000FCF7FEFA80B2009000987F2804DDFF21A8
:103B30000098081A80B2009000984043C01102908B
:103B4000E12102984843C0111E3002900298C3B28E
:103B5000324629462046FFF739F904480068401CE0
:103B6000024908602820FDF747F9FEBD4800002003
:103B700086B0FDF747FDFEF71DF9FCF715FF0020A5
:103B80000590FCF7FBFE0590E1204002FDF708F9E7
:103B900063211720FCF734FFFFF72CFCFCF77AFFBA
:103BA000F74804900127012003900125002402908A
:103BB000F448F5490978405CF44908700020F4495C
:103BC0000870F4490860FDF755F9F34905988842F3
:103BD00005D00420F14908700020F1490870EF4831
:103BE000007801901FE2FCF7FFFF0646FFF724F87C
:103BF0000090EA48007804282DD0052E07D1E74828
:103C0000007801900020E549087001270BE2062E9C
:103C100015D1E2480078002810D10198032807D177
:103C2000DE490870DF49009808600020049005E034
:103C3000DA48007801900120D8490870F3E1D848AB
:103C40000078012807D10320D44908700020D64904
:103C50000870D3490870072C05D10420CF4908709B
:103C600003200290641CCD4800780300FFF74FFE4C
:103C700005F4F5F26904F100052C03D10120C749D0
:103C80000870641C0298032818D1B01E0300FFF7C7
:103C90003EFE08090B050D0D0607080D00BF00BF0D
:103CA00000BF00BF652402E0641C00E000BF00BF4D
:103CB000672C42D10120029000243EE002980428A3
:103CC00011D1B548FCF762FEB348059000240120ED
:103CD000B2490870012D02D10020AD4908700020C2
:103CE000AC49086029E0B01E0300FFF710FE080A87
:103CF0000C0524240607082400BF00BF00BF641C75
:103D00001AE0641C18E0002C13D00298002802D19D
:103D1000012002900EE00298012802D104200290B6
:103D200008E00298022802D10020029002E0641C00
:103D300000E0641C00E000BF00BF0298FFF7C6FE71
:103D40005EE13300FFF7E3FD0A720629180782825D
:103D5000825462827BE0012D02D100208C490870E0
:103D600000208C49086001208C4908708F49087038
:103D70000020FCF7B5FC6AE0012D02D10020844947
:103D80000870002083490860012084490870874931
:103D900008700020FCF7A4FC59E0FEF7DBFF0028C8
:103DA00003D000207D49087021E07F48007800287A
:103DB0000AD1FCF795FC7B49009808607A480078A6
:103DC000401C7949087012E07748007801280ED12C
:103DD000002075490870012D01D16D49087000203F
:103DE0006C49086001206D490870704908702EE028
:103DF00002206A4908700020634908700A20FCF715
:103E0000FBFF61480078FFF753FE20E0681CC10FFC
:103E1000091849104900411ACDB22846FFF7D2FDD2
:103E20006049009808600020049010E05D48006838
:103E300000280AD05B48016804980918009881425C
:103E400003D84F480490FDF715F800BF00BF00BF2E
:103E5000D6E0D1E0ACE000E02CE0022E1DD0032E35
:103E600018D0042E21D100231A4619461846FEF711
:103E7000ADFF002047490860FEF76CFF002806D020
:103E800000270320019000204449087001E0FCF75E
:103E9000F1FFC8E0FFF774FD08E0FFF755FD3E496C
:103EA0000598884200D0641C00E000BF00BFFFF707
:103EB000D7FBA5E0002E45D0022E04D0032E11D052
:103EC000042E3ED120E0012F08D1012D02D1002087
:103ED0002F49087001203149087002E001270320B2
:103EE00001904BE0002F0ED1012D02D10020284976
:103EF0000870012700202749086001202749087021
:103F00000020FCF7EDFB39E0012F0AD100231A460F
:103F100019461846FEF75AFF00201E490860002780
:103F20000EE0012D02D10020194908700127002060
:103F3000184908600120194908700020FCF7D0FBDF
:103F40001CE000BFFEF756FE002806D0012F01D16D
:103F5000FFF754FD012003900FE0FEF759FE002803
:103F60000BD0012F01D1FFF795FD002F03D103984E
:103F7000012800D101270220039000BF00BF3FE0CD
:103F8000CA080000E44000082000002022000020B1
:103F90002100002024000020279500002900002097
:103FA0002A00002014000020190000201800002022
:103FB000022E02D0042E1CD10BE01B480078401CBE
:103FC0008007800F1849087008460078FFF770FDD9
:103FD00010E01548007800F033F80120134908700C
:103FE000012D02D1002012490870002011490860FB
:103FF00000E000BF00BF03E003200C49087000BFD1
:1040000000BF0D49009809680C4A8918884209D3F5
:10401000FEF7F0FD002802D10220FCF761FB064903
:104020000098086000BFDEE5200000202900002085
:1040300021000020240000201C00002060EA000075
:1040400010B504461548005D154908700846037808
:10405000FF2211461046FEF7B9FEC820FCF7CCFE41
:1040600000231A4619461846FEF7B0FEC820FCF792
:10407000C3FE0B480378FF2211461046FEF7A6FE4A
:10408000C820FCF7B9FE00231A4619461846FEF769
:104090009DFEC820FCF7B0FE10BD0000E440000803
:1040A000220000201C01FF1F1C01FF1F1C01FF1F1D
:1040B0001C01FF1F1C01FF1F3001FF1F1C01FF1F00
:1040C0001C01FF1F000000000000000000000000B5
:1040D0000000000000366E0100000000000000003B
:1040E00000000000FF80401F0000000000000000F2
:1040F00000000000000000000000000000000000C0
:1041000000000000000000000100000002000000AC
:10411000030000000400000006000000070000008B
:10412000080000000900000000000000000000007E
:10413000000000000000000001000000020000007C
:104140000300000004000000000000000000000068
:10415000000000000000000000366E0100000000BA
:1041600000000000000000008200008202008210B7
:1041700000821C00822A00823600824000824C00AD
:10418000825C008270006A76004876002676000421
:10419000760000762000764400766800768C006C0D
:1041A00094005A94004294002894041E94101A9487
:1041B0001E12942E0A944000944C00885A0078688D
:1041C000006678005482004A80760082760082760B
:1041D00000827600827600407600407600407600CD
:1041E0004076004076000076940076940076940045
:1041F00076940076940000940000940000940000EF
:104200009400009440009440009440009440009436
:1042100040009482009482009482009482009482F0
:104220000094820000820000827694706894605846
:1042300094504A94403A94302C94201C94100E943C
:10424000000094000E82001C70002C5C003A4A00B2
:104250004A3800582400681200760000681200589E
:1042600024004A38003A4A002C5C001C70000E8280
:10427000000094100E94201C94302C94403A9450DA
:104280004A9460589470689442004C44004E4A002E
:104290005656006262007274008482009482068A1C
:1042A000820C78821462821E4A822A3082361282FE
:1042B0004200825202826406827208826E06826620
:1042C00006825C04824E02823E0082300282240218
:1042D000821604820A047C000C6A00205A00304EC8
:1042E000003A460044420048820C008212008218C4
:1042F00000821E00822400822A0082300082360062
:10430000823C00824000824400824A00824E008249
:104310005400825800825C00826200825C008258F5
:1043200000825400824E00824A0082440082400093
:10433000823C00823600823000822A008224008281
:104340001E00821800821200000000000000000021
:10435000000000000000000000000000000000005D
:10436000000000000000000000000000000000004D
:10437000000000000000000000000000000000003D
:10438000000000000000000000000000000000002D
:10439000000000000000000000000000000000001D
:1043A000000000000000000000000000000000000D
:1043B00000000000000000000000000000000000FD
:1043C00000000000000000000000000000000000ED
:1043D00000000000000000000000000000000000DD
:1043E00000000000000000000000000000000000CD
:1043F00000000000000000000000000000000000BD
:104400000000000000000000FF0000FF8000FFFF30
:104410000000FF0000FFFF0040FF8000FFFF00FFE3
:10442000FF4000FF0040FF0080FF00FF8000FFFF13
:1044300000FFFF0080FF0040FF0000FF4000FF8002
:1044400000FFFF00FFFFFFFFFF00FF8000FF4000B5
:104450000000FF0080FF00FFFF80FFFFFFFFFF80E5
:10446000FFFF00FFFF0080FF603280305A6C007851
:104470005A426246824E326826583E007C8268006C
:1044800090004B00AE9490570047AE004052A500FC
:10449000B0964D8B006300A3BC0069960000B43C4D
:1044A0000087620000E10000ADAD0000FF5A00FF90
:1044B0005A5A5A000000000001002000E2040000E7
:1044C000448BDC3F0101200038000000448BDC3FBE
:1044D00001022000E2040000448BDC3F01032000C5
:1044E000E2040000448BDC3F01042000A700000030
:1044F0006F12FB3F02000800E20400000000803F52
:1045000002010800E20400000000803F02020800EF
:10451000E20400000000803F02030800E204000003
:104520000000803F02040800E20400000000803F19
:1045300003000200C40900008195BB3F0301020093
:10454000C40900008195BB3F03020200C4090000BA
:104550008E75B93F03030200C4090000423EC83F04
:1045600000000100000000005C8F0240000101001B
:10457000000000003333234000020100000000006F
:10458000000008400003010000000000CA5435404C
:1045900000040100000000009A99D93F00050100C5
:1045A00000000000E2E90D400006010000000000EC
:1045B0006D56B53F00070100000000000000C03F3D
:1045C0000008010000000000000088400009010010
:1045D000000000000000803F18000000FC450008BB
:1045E000000000205C010000140500085C46000883
:1045F0005C010020BC0500003A390008413204F299
:104600000169101201CA8011310A11023051B53608
:104610006E0118180E02010101896745239A785628
:1046200034AB091ABC091ACD091ADE091AEF091AA6
:10463000F0091A01091A12091A23091A34091A452C
:10464000091A56091937193E093C40293C1AAA0192
:0C4650001A550109120C095E2000000040
:04000005080000C12E
:00000001FF
