:020000040800F2
:10000000F8050020D90000084D240008EB23000863
:1000100000000000000000000000000000000000E0
:100020000000000000000000000000007125000832
:10003000000000000000000041250008992600088B
:10004000000000000000000000000000EB000008BD
:10005000EB000008B90A0008C30A0008CD0A00082E
:100060000000000000000000000000000000000090
:10007000EB000008EB000008EB00000800000000A7
:1000800000000000EB00000800000000E926000866
:10009000000000000000000000000000EB0000086D
:1000A00000000000EB00000800000000D52C000854
:1000B0000000000000000000000000000000000040
:1000C0000448854600F064F80048004759330008AA
:1000D000C046C046F8050020044880470448004751
:1000E000FEE7FEE7FEE7FEE7FEE7FEE7A1260008E3
:1000F000C100000830B50B46014600202022012433
:1001000009E00D46D5409D4205D31D469540491B4B
:100110002546954040191546521E002DF1DC30BD94
:1001200070B500242546002801DA01244042002948
:1001300001DA01254942FFF7DDFFAC4200D0404221
:10014000002C00D0494270BD03460B439B0703D0EF
:1001500009E008C9121F08C0042AFAD203E00B788C
:100160000370401C491C521EF9D27047D2B201E004
:100170000270401C491EFBD270470022F6E710B502
:1001800013460A4604461946FFF7F0FF204610BD05
:10019000064C0125064E05E0E36807CC2B430C3CDA
:1001A00098471034B442F7D3FFF78EFF8C3F000816
:1001B000AC3F000870B50446002520688068042123
:1001C00008408008002829D020688068084000285E
:1001D0000BD020688068C007C00F002805D02068B9
:1001E0008068102108432168886001F04FF90546B6
:1001F0000EE001F04BF9401B022809D9206B1021B9
:1002000008432063606B012108436063012070BDD7
:1002100020688068042108400028EAD10020F6E721
:1002200070B50446002520688068C007C00F012112
:1002300048404840002837D02068806805210840A1
:10024000012800D100E0002000280AD000BF20686B
:1002500080680221084321688860022021680860C4
:1002600009E0206B102108432063606B01210843E3
:100270006063012070BD01F009F905460EE001F050
:1002800005F9401B022809D9206B1021084320637F
:10029000606B0121084360630120EBE72068806800
:1002A000C007C00F0028EAD10020E3E738B50446B4
:1002B0000020009020688068C007C00F01214840DE
:1002C0004840002827D12068806814490840002849
:1002D00001D1012000E00020002809D1206B10216D
:1002E00008432063606B012108436063012038BD2F
:1002F000206880680121084321688860084909480E
:100300000068FFF7F7FE009002E00098401E0090A2
:1003100000980028F9D10020E9E7000017000080CC
:1003200040420F0044000020F0B58DB00546142077
:100330000C90FF200B900A200A901420099019209D
:10034000400108903220079000200690322005904E
:1003500000F00EFC04904B490498884206D300201C
:100360000790FF200690002005900FE04649049872
:10037000884206D3FF200790A52006900020059014
:1003800004E0FF2007900020069005900A210798BE
:10039000FFF7C6FEC0B207900A210698FFF7C0FE1D
:1003A000C0B206900A210598FFF7BAFEC0B20590C8
:1003B00002F03AF8064663E002F036F80390012DA9
:1003C00011D10121314801F057F800280BD1002349
:1003D0001A461946184602F0FBF82DA0039902F0C0
:1003E000C9FD0DB0F0BD0398801B19214901884259
:1003F0000AD300231A461946184602F0E9F82EA03F
:10040000039902F0B7FDECE7002736E0012D13D188
:1004100001211E4801F030F800280DD100231A46B2
:100420001946184602F0D4F801F0FEFF014601908B
:1004300029A002F09FFDD4E73902C81B1321FFF762
:100440006FFE84B27F2C02DDFF20001B84B22046A9
:100450006043C0110290F52102984843C0110A3050
:1004600002900298C3B2059A0699079802F0B0F874
:10047000142000F0F3FA781CC7B2142FC6DB00BFBB
:100480009AE70000B50E0000710C00000004005057
:100490005B25755D204144433A20427574746F6E4C
:1004A0002072656C6561736564202D2065786974C0
:1004B000696E670D0A0000005B25755D20414443AD
:1004C0003A2054696D656F7574202D2065786974C4
:1004D000696E670D0A0000005B25755D204144438D
:1004E0003A20427574746F6E2072656C6561736535
:1004F0006420647572696E6720616E696D617469EC
:100500006F6E202D2065786974696E670D0A000092
:1005100000B587B000BF1148406B022108430F4966
:1005200048630846406B02210840019000BF00BFAD
:100530000B4803900220049005900120029002A92C
:10054000084800F0BFFE052001F014F80022114613
:10055000052001F01BF807B000BD000000100240AC
:10056000000011100004005000B58DB0242104A833
:10057000FFF703FE002000900190029003900F20EF
:100580000490FF2001300890002009900B4800885B
:1005900080B20A90002005900B90069004A801F00C
:1005A0007BF9072000900020019002900390002129
:1005B000684601F015F80DB000BD00000001FF1FF6
:1005C00030B587B005460C462048214908600846EA
:1005D000C46045600021816001614161816101F079
:1005E00013FD60200090601C01900220029000200A
:1005F0000490FF2001300590002006900590002215
:100600006946134801F07CFC0021114801F092FD7D
:10061000042269460E4801F073FC04210C4801F0E5
:1006200089FD082269460A4801F06AFC0821084849
:1006300001F080FD0C226946054801F061FC0C21A7
:10064000034801F077FD07B030BD0000002C0140E9
:10065000540000201FB500BF204800680121090593
:1006600008431E4908600846006801210905084042
:10067000009000BF00BF1A481A4908600520000713
:100680004860002117488160C16001210161042197
:1006900041610021017641768176FF21C231C1613D
:1006A0000021016241620521816200F0A1FB01206D
:1006B000000302900020019001A90A4800F0D4FA3A
:1006C0000120000302900920019001A9054800F0D3
:1006D000CBFA044800F078FA1FBD00004010024039
:1006E000002401402401002000B587B001212848E2
:1006F00000F05CFD0221274800F058FD80212448CD
:1007000000F054FD00BF2448406B012108432249FA
:1007100048630846406BC007C00F019000BF00BF90
:1007200000BF0846406B022108431B494863084646
:10073000406B02210840019000BF00BF00BF164877
:10074000406B04210843144948630846406B042168
:100750000840019000BF00BF0020039002200490D9
:1007600005900120029002A9094800F0ABFD02208B
:100770000490029002A9074800F0A4FD0220049012
:100780008020029002A9024800F09CFD07B000BD45
:1007900000040050000800500010024000B587B06F
:1007A0000121294800F002FD0221284800F0FEFC4A
:1007B0008021254800F0FAFC00BF2548406B01214C
:1007C0000843234948630846406BC007C00F0190A7
:1007D00000BF00BF00BF0846406B022108431C4910
:1007E00048630846406B02210840019000BF00BFEB
:1007F00000BF1748406B0421084315494863084669
:10080000406B04210840019000BF00BF002003900E
:100810000220049005900120029002A90A4800F0ED
:1008200051FD012004900220029002A9074800F027
:1008300049FD012004908020029002A9024800F0A6
:1008400041FD07B000BD000000040050000800504A
:100850000010024010B501F0E7FD10BD70B5002694
:10086000FFF7F8FF044600F0B5F805465748007852
:10087000854208D0002D01D0052600E00626534809
:100880000570304670BD00F0A9F8514988730846DC
:100890000078030002F07EFB060414365F63828E4C
:1008A0004B48807B01280AD14948407B002806D16B
:1008B000012047490870084684600020C8737DE025
:1008C00043488068201A28281BD34148807B012890
:1008D00014D13F48C07B002813D1012602203C4997
:1008E0000870084684600120C8730846007B02280F
:1008F00007D1032600200870087302E00020344965
:1009000008705BE03248807B01280AD1304880685B
:10091000201A7D21C900884203D305202C49087084
:1009200004262B48807B002814D12948407B0128CD
:1009300010D12748007B022805D103260020244936
:100940000870087306E003202149087008464460D7
:100950000120087332E004201D4908702EE01C4875
:10096000807B01280FD11A48407B00280BD1184802
:10097000007B401C164908730120087008468460FB
:100980000020C87309E012484068201AFA2804D3EE
:10099000022600200E49087008730FE00C48807B87
:1009A000002806D10A48407B012802D100200849CE
:1009B000087003E000200649087000BF00BF04482B
:1009C000807B0349487330465CE700004C00002000
:1009D0005C01002010B501F0B5FD10BD10B501217E
:1009E000014800F049FD10BD0004005000200449FA
:1009F000087048738873486088600873C8737047CC
:100A00005C01002010B504460B480C4908600846FC
:100A1000446000218160C160016181610C214161FC
:100A200001F0BEFB05480068C06820210843034967
:100A30000968C86010BD000000380140E0000020D7
:100A400008B505494143009100BF00BF00994A1E07
:100A500000920029F9D108BDB80B000001B57D2234
:100A6000D20000995143084600F002F808BD00008A
:100A700071B500220E4D6C690E4E3678009D75439F
:100A80002B460B4DA9690FE0094DA86988420BD090
:100A9000884202D20D1AAA1802E0251A6D18AA1867
:100AA00001469A4200D300E0EEE700BF78BD0000A7
:100AB00000E000E04800002010B5012000F0F2FB4B
:100AC00010BD10B5082000F0EDFB10BD10B5802062
:100AD00000F0E8FB10BD000010B500231A461946CF
:100AE000184601F075FDFFF7FFFD01F069FDFFF706
:100AF0000FFD3220FFF7B2FF164A174917A002F088
:100B000039FA01F0CDF80121880300F049FD01F028
:100B1000A1F8104A1832104910A002F02BFAFFF782
:100B20003DFE00231A461946184601F051FDFFF715
:100B30005DFF00200B49086003200B490870FFF798
:100B40004DFF012802D10949087001E002F064FB61
:100B500010BD0000CD020000CC3A000825732C2502
:100B6000640A00001400002024000020250000205A
:100B700070B5124800F08AFA1149104800F024FAC2
:100B80000E4800F031F90F49088008460588012019
:100B900000F0F6FA094800F027F90A4908800846EB
:100BA000068829460C2251436422514308463146A7
:100BB000FFF7B6FA0446600070BD00002401002073
:100BC00040420F004A00002070B504460025002670
:100BD00000BF2C20005D012801D1022070BD012141
:100BE0002C20015500BF20688068084048404840DC
:100BF00000282CD1206B090288430221084320637E
:100C000020688068890708432168886000F03EFCFE
:100C1000064611E000F03AFC801B02280CD9206B3C
:100C20000221884310210843206300BF00212C20AB
:100C3000015500BF0120D1E720688068C00FC007C0
:100C40000028E7D1206B02218843206304E0206B59
:100C5000202108432063012500BF00212C200155DD
:100C600000BF2846BAE70000F8B504460D46002646
:100C700000200090A06A002815D0A06A012812D098
:100C8000A06A02280FD0A06A03280CD0A06A04280A
:100C900009D0A06A052806D0A06A062803D0A06A59
:100CA000072800D000BF00BF2C20005D012801D123
:100CB0000220F8BD01212C20015500BF206880686A
:100CC000042108408008002879D143496868884297
:100CD00059D02068806A2A78012191400843216810
:100CE0008862A06A002829D0A06A012826D0A06ABC
:100CF000022823D0A06A032820D0A06A04281DD08F
:100D0000A06A05281AD0A06A062817D0A06A07286A
:100D100014D0A868216849694907490F88420DD055
:100D200020684069C008C0002168486120684069A7
:100D3000297A4907490F084321684861286808282B
:100D400002D0286809283FD12448806829680829EA
:100D500001D1090501E00121890508431F49886087
:100D60002868082830D11E491E480068FFF7C2F9DC
:100D70000A214843009002E00098401E009000982D
:100D80000028F9D120E02068806A2A78012191406A
:100D90008843216888622868082802D028680928C2
:100DA00012D10E4880682968082902D1090502E09D
:100DB00005E00121890588430849886004E0206B2B
:100DC000202108432063012600BF00212C2001556B
:100DD00000BF30466DE70000011000000027014011
:100DE00040420F004400002001460868006C704734
:100DF00070B5044600260025002C01D1012070BDED
:100E0000206B002806D1606300212C20015520466C
:100E100000F0B8F8206B1021084000287ED1002E89
:100E2000FCD1206880680421084080080028F5D1A2
:100E3000206B890188430221084320632068806871
:100E4000C007C00F01214840484000280FD120684A
:100E5000C06818218843A16808432168C8602068D9
:100E60000069000100096168084321680861206881
:100E7000C068424908402168C860207E8003617EC6
:100E800049030843616A012902D00121090300E0F6
:100E900000210843E16808432169022901D10421A6
:100EA00000E0002108430543A07E01280ED1607EAA
:100EB000002803D101200004054307E0206B202116
:100EC00008432063606B012108436063FF21C23146
:100ED000E069884203D0216AE0690843054320683D
:100EE000C06828432168C860A06A002814D0A06A9E
:100EF000012811D0A06A02280ED0A06A03280BD0C6
:100F0000A06A042808D0A06A052805D0A06A06288F
:100F100002D0A06A07280FD1206800E027E04069CE
:100F2000C008C0002168486120684069218D4907D8
:100F3000490F0843216848612068C068104908408B
:100F4000A84208D100206063206B02218843012160
:100F50000843206310E0206B0221884310210843DE
:100F60002063606B012108436063012604E0206B6D
:100F70001021084320630126304640E71BC2FEFFD4
:100F8000E7FF3FC310B586B0044600BF0C48406B76
:100F9000022108430A4948630846406B0221084081
:100FA000009000BF00BF02200190032002900020AB
:100FB000039001A9034800F085F906B010BD0000B8
:100FC0000010024000040050F8B504460D46606968
:100FD000082801D1082700E00C2700F057FA064640
:100FE00014E0681C002811D0002D04D000F04EFA47
:100FF000801BA8420AD9206B04210843206300BF4C
:1010000000212C20015500BF0320F8BD2068006896
:1010100038400028E5D0206B0121490208432063B5
:101020002068C068032189020840002825D1607E1D
:10103000002822D1206800680821084008281CD117
:101040002068806804210840800800280DD12068AD
:1010500040680C21884321684860206BFF210131E2
:10106000884301210843206307E0206B20210843C7
:101070002063606B012108436063207E002802D159
:101080000C20216808600020BFE7000070B504460E
:10109000002520688068042108408008002828D1A5
:1010A00000BF2C20005D012801D1022070BD01216C
:1010B0002C20015500BF2046FFF7F8F80546002D0B
:1010C00018D1206B0C490840FF21013108432063EF
:1010D0000020606300BF00212C20015500BF1C20B0
:1010E00021680860206880680421084321688860BE
:1010F00000E002252846D9E7FEF1FFFF70B504465F
:10110000002500BF2C20005D012801D1022070BD08
:1011100001212C20015500BF2046FFF74BF8054662
:10112000002D0CD12046FFF77BF80546002D06D197
:10113000206BFF210131884301210843206300BF58
:1011400000212C20015500BF2846E0E710B5002003
:10115000C0430A49C8620020C862401E08630020DC
:101160000863401E886200208862401E486200209A
:10117000486200F0DBF9002010BD000000100240C2
:1011800070B5044600F082F906462546681C002822
:1011900002D0054800682D1800BF00F077F9801BC9
:1011A000A842FAD370BD000008000020F0B5024646
:1011B0000B4600206AE00125854029461940002998
:1011C00063D0354D8608B600AC598507EE0E0F2565
:1011D000B5402C4005252D07AA4201D1002505E088
:1011E0002E4DAA4201D1012500E002258607F60E08
:1011F000B540A54223D1284D20352D688D43264E7C
:101200002036356035466D688D437560224D603DF2
:101210002D688D43204E603E356035466D688D43A8
:1012200075608507EE0E0F25B5402C461A4D8608D1
:10123000B600AD59A543184E8708BF00F551156893
:1012400047000326BE4035431560C508AE0015466D
:101250002035AD594607F70E0F26BE40B543C608E8
:10126000B60017462037BD51956847000326BE409B
:10127000B5439560556801268640B5435560D568ED
:1012800047000326BE40B543D560401C1D46C540FF
:10129000002D90D1F0BD0000601802400004005005
:1012A0007047000010B504460548C068204000287B
:1012B00004D00348C4602046FFF7F2FF10BD0000D1
:1012C0000018024070B503460022CBE0012696408C
:1012D0000C683440002C71D04D68022D02D04D684E
:1012E000122D15D1D508AE001D462035A859550739
:1012F000EE0E0F25B5400646AE4330465607F60EB5
:101300000D69B5402843D508AD001E462036705102
:10131000186856000325B5400646AE4330460D79A1
:10132000AD07AD0F5600B540284318604D68012D3C
:1013300008D04D68022D05D04D68112D02D04D68A2
:10134000122D18D1986856000325B5400646AE43C5
:1013500030465600CD68B54028439860586801254E
:1013600095400646AE43304610264D6835402D095F
:10137000954028435860D86856000325B540064676
:10138000AE43304656008D68B5402843D8600126EC
:1013900036074D683540B54263D1354D9608B600E5
:1013A000A8599507EE0E0F25B5400646AE433046C8
:1013B00005252D07AB4202D1002506E051E02D4D59
:1013C000AB4201D1012500E002259607F60EB5409B
:1013D0002843274D9608B600A851254D203528688A
:1013E0000546A5432846012636044D683540B542DA
:1013F00002D10546254328461D4D203528606868E2
:101400000546A5432846012676044D683540B54279
:1014100002D1054625432846154D20356860144DF8
:10142000603D28680546A5432846012636054D68D7
:101430003540B54202D10546254328460C4D603D56
:10144000286068680546A5432846012676054D684C
:101450003540B54202D1054625432846044D603D3E
:101460006860521C0D68D540002D00D02EE770BD7D
:101470006018024000040050024613690B40002B24
:1014800001D0012000E00020704700000148006802
:101490007047000000000020034800680349096805
:1014A0004018014908607047000000200800002033
:1014B00010B50024032000F009F8002801D0012411
:1014C00001E000F035F8204610BD0000F8B50446F4
:1014D00000251348006800281ED0114801687D20AF
:1014E000C000FEF707FE074639460E480068FEF7C3
:1014F00001FE064600F0B8FB00280BD1042C07D2F1
:1015000000222146401E00F041F80748046004E034
:10151000012502E0012500E001252846F8BD000074
:101520000800002044000020040000207047000054
:1015300008B500BF0E480068012108430C49086047
:1015400008460068C007C00F009000BF00BF00BF82
:1015500007484038C06B8905084305494039C863CE
:101560000846C06B09040840009000BF00BF08BDDA
:101570004010024000BFC206D20E01219140024A33
:10158000116000BF7047000000E100E070B5044644
:101590000D4616462946204600F05AFF70BD000051
:1015A0000D4A126803239B039A4302430A4B1A60B5
:1015B0000A4A126904231A43084B1A61012901D10E
:1015C00030BF02E040BF20BF20BF044A126904239D
:1015D0009A43024B1A6170470070004000ED00E032
:1015E00070B504460D46002C01D1012070BD654840
:1015F0000068C007C00FA84218D2624800684008BF
:10160000400028435F490860FFF740FF064607E0B7
:10161000FFF73CFF801B5C49884201D90320E5E7C6
:1016200058480068C007C00FA842F1D102212068C5
:101630000840022815D1042120680840042807D159
:101640005248806807210903884340184F49886041
:101650004E4880680F2109028843A16808434B491E
:1016600088602078C007C00F002848D06068012833
:1016700008D146480068012189040840002822D189
:101680000120B3E76068002808D1404800680121C4
:1016900089020840002816D10120A7E760680428C5
:1016A00008D13A484030C0690221084000280AD1D8
:1016B00001209BE735484030006A0221084000289D
:1016C00001D1012092E731488068C008C0006168FC
:1016D00008432E498860FFF7D9FE064607E0FFF76A
:1016E000D5FE801B2849884201D903207EE7274880
:1016F0008068382108406168C9008842EFD12148DC
:101700000068C007C00FA84218D91E4800684008EA
:10171000400028431B490860FFF7B8FE064607E073
:10172000FFF7B4FE801B1849884201D903205DE70A
:1017300014480068C007C00FA842F1D104212068F6
:101740000840042808D1114880680721090388430C
:10175000E16808430D49886000F03AF80B49896850
:101760000F2212021140090A8900094A515CC90678
:10177000C90EC8400749086007480068FFF7A6FE81
:1017800034E70000002002408813000000100240EF
:10179000E03A0008440000200400002001480068EE
:1017A000704700004400002000B5FFF7F7FF06492E
:1017B0008968072212031140090B8900034A515C12
:1017C000C906C90EC84000BD00100240203B0008F9
:1017D00070B588B020222B496846FEF7B5FC2A4830
:1017E000806838210840002814D127480068090281
:1017F0000840C10A01258D4023484068072149035C
:101800000840460BB1006A4650582946FEF772FC64
:10181000044634E01C48806838210840082801D17B
:101820001A4C2CE01848806838210840202801D143
:10183000840224E0144880683821084018281DD10B
:101840001148406812490840000C12498988C905AE
:10185000C90D884202D10124E40310E00A4840681F
:101860000B490840000C0B490989C905C90D88427C
:1018700002D14B24640202E0002400E00024204650
:1018800008B070BD743900080010024000366E01C7
:101890000000FF014001FF1F70B50446002C01D17C
:1018A000012070BD2078C007C00F00281ED0E3487B
:1018B000866838210E40082E04D16068002815D1B2
:1018C0000120EEE700BF012189046068884205D14C
:1018D000DA4800680843D949086006E0D74800683C
:1018E000012189048843D549086000BF022120688E
:1018F000084002287BD1D14880683821084006463C
:10190000002E48D1CD4800680121890208400028F6
:1019100004D02069002801D10120C2E7C7484068EF
:10192000000C0004A1690843C4494860FFF7AEFDFC
:10193000054606E0FFF7AAFD401B022801D9032057
:10194000AFE7BE4800680121890208400028F1D0B5
:10195000002E18D1B94800680721C902884361697F
:101960000843B6490860FFF733FFB44989680F227E
:1019700012021140090A8900B14A515CC906C90E18
:10198000C840B0490860B0480068FFF79FFD0028D4
:1019900047D0012085E72069002829D0A7480068A2
:1019A0000721C902884361690843A44908600846C1
:1019B000006889150843A1490860FFF767FD0546DF
:1019C00006E0FFF763FD401B022801D9032068E70A
:1019D0009A4800680121890208400028F1D0974800
:1019E0004068000C0004A16908439449486018E06D
:1019F00092480068FF210131884390490860FFF751
:101A000045FD054606E0FFF741FD401B022801D9D0
:101A1000032046E789480068012189020840002820
:101A2000F1D108212068084008286CD183488068DB
:101A300038210840182840D180484030006A0221EF
:101A40000840002804D0E069002801D1012028E7DF
:101A50007A4840687D490840218C09040843774949
:101A60004860FFF713FD054606E0FFF70FFD401B3A
:101A7000022801D9032014E770484030006A02218F
:101A800008400028F1D0182E0FD1FFF7A1FE6B49B6
:101A900089680F2212021140090A8900684A515CC4
:101AA000C906C90EC8406749086067480068FFF763
:101AB0000DFD002842D00120F3E6E069002823D084
:101AC0005E484030006A012108435C4940310862A9
:101AD000FFF7DCFC054606E0FFF7D8FC401B0228B8
:101AE00001D90320DDE655484030006A0221084054
:101AF0000028F1D05148406854490840218C09041D
:101B000008434E49486019E04C484030006A40089C
:101B100040004A4940310862FFF7B8FC054606E03C
:101B2000FFF7B4FC401B022801D90320B9E6434863
:101B30004030006A022108400028F1D104212068C9
:101B40000840042877D13D48806838210840202883
:101B50000BD13A484030C0690221084000286AD0C1
:101B6000A068002867D101209BE6A068002808D063
:101B700032480069032109048843E16808432F497A
:101B8000086100BFA068012808D12C484030C06916
:101B90000121084329494031C86121E0A068052896
:101BA0000FD126484030C069042108432349403101
:101BB000C8610846C0690121084320494031C86115
:101BC0000EE01E484030C069400840001B494031CB
:101BD000C8610846C0690421884318494031C8617A
:101BE00000BFA068002813D0FFF750FC054607E0AF
:101BF000FFF74CFC401B1649884201D9032050E6F0
:101C00000E484030C069022108400028F0D012E0A0
:101C1000FFF73CFC054607E0FFF738FC401B0C498A
:101C2000884201D903203CE604484030C0690221C3
:101C300008400028F0D1002033E6000000100240E8
:101C4000E03A00084400002004000020FFFF00FEEE
:101C50008813000003480069022108430149086114
:101C60007047000000E000E070B504462546681E9D
:101C70000949884201D901200CE0681E07494861E2
:101C80000321081F00F0E4FB0020044988610720BD
:101C90000861002070BD0000FFFFFF0000E000E0D1
:101CA0000348006902218843014908617047000028
:101CB00000E000E0704770477047000010B5044630
:101CC000002C01D1012010BDA07F00280BD160772E
:101CD000204600F06BFE206A002801D107482062F0
:101CE0002046216A88470220A077211D206800F045
:101CF00003FD0120A0770020E5E70000011D00089A
:101D0000704701460868C068012318430B68D86013
:101D1000086880684207520F062A05D008680068E4
:101D2000012318430B681860002070477047704704
:101D3000704710B504462068006902210840400839
:101D400000281CD02068C06808404008002816D031
:101D5000481F21680861012020772068806980077A
:101D6000800F002803D02046A16E884705E020465A
:101D7000216F88472046616F8847002020772068C0
:101D8000006904210840800800281DD02068C06830
:101D900008408008002817D0C84321680861022045
:101DA000207720688069032109020840002803D0B9
:101DB0002046A16E884705E02046216F88472046CF
:101DC000616F88470020207720680069082108405B
:101DD000C00800281CD02068C0680840C00800283F
:101DE00016D0C84321680861042020772068C069A4
:101DF0008007800F002803D02046A16E884705E0A9
:101E00002046216F88472046616F88470020207751
:101E10002068006910210840000900281DD02068B2
:101E2000C06808400009002817D0C843216808612D
:101E3000082020772068C069032109020840002893
:101E400003D02046A16E884705E02046216F8847D1
:101E50002046616F88470020207720680069C0070E
:101E6000C00F01214840484000280CD02068C068BD
:101E7000084048404840002805D0C81E2168086135
:101E80002046A16D88472068006980210840C0096C
:101E900000280CD02068C0680840C009002806D07F
:101EA000C843216808618820015920468847206876
:101EB000006940210840800900280BD02068C068D4
:101EC00008408009002805D0C843216808612046E1
:101ED000216E8847206800692021084040090028B9
:101EE0000CD02068C06808404009002806D0C843CC
:101EF00021680861802001592046884710BD70473D
:101F000070B504460D46164600BF607F012801D11A
:101F1000022070BD0120607700BF0220A077002E54
:101F200006D0042E1BD0082E33D00C2E62D147E0F1
:101F30002946206800F024FC2068806908210843B5
:101F4000216888612068806904218843216888614C
:101F50002068806929690843216888614BE0294627
:101F6000206800F053FC206880690121C902084301
:101F7000216888612068806901218902884321687D
:101F8000886120688069296909020843216888619D
:101F900031E02946206800F087FC2068C0690821EC
:101FA00008432168C8612068C0690421884321680A
:101FB000C8612068C069296908432168C8611AE0BE
:101FC0002946206800F0BCFC2068C0690121C902D4
:101FD00008432168C8612068C069012189028843DB
:101FE0002168C8612068C06929690902084321681D
:101FF000C86100E000BF00BF0120A07700BF002043
:10200000607700BF00BF84E710B50446002C01D103
:10201000012010BDA07F00280BD16077204600F082
:10202000C5FCA06B002801D10748A0632046A16B26
:1020300088470220A077211D206800F05DFB012069
:10204000A0770020E5E700004D20000810B586B01D
:10205000044635492068884264D100BF334800688F
:10206000C91408433149086008460068C91408408B
:10207000009000BF00BF00BF2C484038406B0121DA
:1020800008432A49403948630846406BC007C00FDF
:10209000009000BF00BF00BF0846406B012108430D
:1020A0002249403948630846406BC007C00F009082
:1020B00000BF00BF00BF0846406B012108431B4919
:1020C000403948630846406BC007C00F009000BF0E
:1020D00000BF022002900490002003902020019075
:1020E0000220059001A905200007FFF7EBF8022068
:1020F0000190059001A905200007FFF7E3F81020E3
:1021000001900220059001A905200007FFF7DAF8E9
:10211000802001900220059001A905200007FFF70B
:10212000D1F800BF06B010BD002C014040100240A5
:102130007047704770B504460E460122314620684C
:1021400000F00CFB10492068884203D00F4920683A
:10215000884201D1012000E00020002806D020683C
:10216000406C0121C90308432168486420688068E5
:1021700045076D0F062D05D0206800680121084332
:1021800021680860002070BD002C01400020004044
:1021900010B5044600F052F910BD70477047704703
:1021A00010B50446002C01D1012010BDA069002803
:1021B00000D000E000BF3D20005D002805D10021D7
:1021C0003C200155204600F031F824213D200155E6
:1021D0002068C0680121490388432168C8602046FF
:1021E00000F06EFC206A002802D0204600F04CFC73
:1021F000206800690121C9028843216808612068BC
:10220000406908218843216848612068C06801212D
:10221000490308432168C8600020206420213D2034
:1022200001553E2001550020BFE7000010B586B0E3
:1022300004462B492068884250D100BF2948406B92
:1022400002210843274948630846406B02210840A1
:10225000009000BF00BF00BF2248406B08432149E7
:1022600048630846406B02210840009000BF00BF51
:1022700000BF1C48403000684903084319494031F9
:10228000086008460068012189030840009000BFEB
:1022900000BF102001900220029000200390022035
:1022A00004900120059001A90F48FFF70BF82020AA
:1022B000019002200290002003900220049001204F
:1022C000059001A90848FEF7FDFF012200211B200F
:1022D000FFF75CF91B20FFF74DF900BF06B010BDFA
:1022E000003801400010024000040050FFB583B0E8
:1022F00004460D461746002001903D20005D202831
:1023000071D1002D01D0002F02D1012007B0F0BD06
:1023100001210903A068884208D12069002805D15D
:10232000E807C00F002801D00120EFE700BF3C20E4
:10233000005D012801D10220E8E701213C20015580
:1023400000BF0020206421213D200155FFF79EF8A9
:1023500001902786678601210903A068884205D17C
:102360002069002802D10026029502E02E460020B6
:1023700002901EE006980090002280212046019BDA
:1023800000F070FC002801D00320BFE7002E09D127
:1023900002980088C005C00D216848600298801C22
:1023A000029003E0307821684860761C608E401E01
:1023B0006086608E0028DDD10698009000224021C2
:1023C0002046019B00F04EFC002801D003209DE731
:1023D00020213D20015500BF00213C20015500BFB8
:1023E000002093E7FFE7022090E700BFFEE7000030
:1023F00010B502210448FFF73FF8002801D1012061
:1024000010BD0020FCE700000008005010B580213E
:102410000448FFF731F8002801D1012010BD002049
:10242000FCE700000004005010B5FFF72FF810BDC6
:102430000148006870470000100000200248006852
:10244000401C0149086070471000002070470000E0
:1024500010B5002819DA1A4A03071B0F083B9B081E
:102460009B00D2588307DC0EFF23A3409A438B07BF
:102470001B0E8407E40EA3401A43114B0407240FDC
:10248000083CA408A4001A5118E00E4A03231B02BA
:10249000D21883089B00D2588307DC0EFF23A34089
:1024A0009A438B071B0E8407E40EA3401A43054B87
:1024B000032424021B198408A4001A5110BD000033
:1024C0001CED00E000E100E010B5002819DA1A4A1E
:1024D00003071B0F083B9B089B00D2588307DC0EA9
:1024E000FF23A3409A438B071B0E8407E40EA340EF
:1024F0001A43114B0407240F083CA408A4001A51E6
:1025000018E00E4A03231B02D21883089B00D258FE
:102510008307DC0EFF23A3409A438B071B0E84071F
:10252000E40EA3401A43054B032424021B1984081C
:10253000A4001A5110BD00001CED00E000E100E015
:102540007047000010B502210748FEF795FF0028EC
:1025500005D080210548FEF78FFF002801D101201A
:1025600010BD0020FCE700000008005000040050EF
:10257000704700000FB468460099012914D0022961
:102580000DD0032906D0042913D10C4A0169126821
:10259000116400BF094AC1681268D16300BF074ACD
:1025A00081681268916300BF044A416812685163F0
:1025B00000BF00BF00BF04B07047000054000020FF
:1025C00010B50248FEF79AFD10BD0000240100205E
:1025D000FFB587B01C46079961430846FF21FDF708
:1025E0009FFD80B20690089961430846FF21FDF7E0
:1025F00097FD80B20590099961430846FF21FDF7D8
:102600008FFD80B204900698FF2801DDFF2000E0D6
:10261000069806900598FF2801DDFF2000E0059848
:1026200005900498FF2801DDFF2000E00498049045
:102630006421069848430004000E0390059848431F
:102640000004000E0290049848430004000E01901C
:102650000398081AC6B20298081AC5B20198081A57
:10266000C7B2642E01DD642000E030460646642DCA
:1026700001DD642000E028460546642F01DD64206A
:1026800000E0384607463B4632462946042000957E
:10269000FFF770FF0BB0F0BD10B5FEF7FDFE10BDEB
:1026A00010B50D484068000C00040C490968084347
:1026B00009494860084640680949084007494031CF
:1026C00089880904084304494860C80305498860AB
:1026D0006420FEF7B5F910BD001002400001FF1F95
:1026E000FFFF00FE00ED00E010B50248FFF721FB00
:1026F00010BD00006C01002010B50268154B984217
:1027000005D170241346A3431A464B681A43114B54
:10271000984202D0104B984206D10324240213465B
:10272000A3431A46CB681A4380241346A3434C693B
:1027300023431A4602608B68C3620B688362054BB1
:10274000984202D0044B984201D10B6903630123E4
:10275000436110BD002C01400020004070B5CD0643
:10276000ED0E0124AC402346046A9C430462046AD3
:10277000CE06F60E1546B5402C43046270BD00002F
:1027800070B5056A6D086D000562026A4368846968
:1027900070262546B5432C46A408A4000D682C439A
:1027A00002261546B5432A468D682A43154DA84290
:1027B00000D103E0144DA8420AD100BF08261546F7
:1027C000B5432A46CD682A4304261546B5432A4612
:1027D0000C4DA84202D00C4DA8420CD1FF26013668
:1027E0001D46B5432B4676001D46B5432B464D6925
:1027F0002B438D692B43436084614D6845630262BE
:1028000070BD0000002C01400020004070B5056A3A
:102810001026B5430562026A4368846907263603B9
:102820002546B5432C46032636022546B5432C469D
:102830000D682D022C4320261546B5432A468D6887
:102840002D012A43164DA84200D103E0154DA842A0
:102850000BD10AE080261546B5432A46CD682D01E6
:102860002A4340261546B5432A460D4DA84202D0BC
:102870000C4DA8420ED10126B6021D46B5432B468B
:1028800076001D46B5432B464D69AD002B438D693F
:10289000AD002B43436084614D688563026270BD67
:1028A000002C01400020004070B5056AFF2601366B
:1028B000B5430562026A4368C46970262546B5437C
:1028C0002C46A408A4000D682C4301267602154668
:1028D000B5432A468D682D022A43174DA84200D1E0
:1028E00003E0164DA8420CD10BE00126F602154676
:1028F000B5432A46CD682D022A4376101546B543C6
:102900002A460D4DA84202D00C4DA8420ED10126F8
:1029100036031D46B5432B4676001D46B5432B4670
:102920004D692D012B438D692D012B434360C461FB
:102930004D68C563026270BD002C0140002000405C
:1029400070B5056A01263603B5430562036A44681B
:10295000C269072636031546B5432A4603263602C2
:102960001546B5432A460D682D022A4301267603F3
:102970001D46B5432B468D682D032B43094DA842B8
:1029800002D0094DA84207D10126B6032546B5431A
:102990002C464D69AD012C434460C2614D6805640D
:1029A000036270BD002C0140002000400E4981658B
:1029B0000E49C1650E4901660E4941660E498166A0
:1029C0000E49C1660E4901670E4941670E4981678C
:1029D0000E49C1670E4A80210A500E4A84210A50CE
:1029E0000D4A88210A507047912100089B21000858
:1029F0009D2100089F2100082F1D0008311D00089F
:102A0000FF1E000831210008332100082D1D000899
:102A1000B71C0008B91C0008B51C000808B500BFA9
:102A2000154800680121C903084313490860084696
:102A300000680121C9030840009000BF00BF0F4893
:102A40000F49086017210E48C16063200C49486097
:102A500000210B48816001614161FFF72FF91320CC
:102A600001218140074A116000BF0021FFF72CFDC2
:102A70000348FFF746F908BD40100240002000401F
:102A80006C01002000E100E04022016A11400029B1
:102A900015D00168496992019143426A1143026865
:102AA000516101221203416A914208D101684969CA
:102AB000032252039143826A1143026851617047B5
:102AC000FEB5044620680069012149038843E16896
:102AD0000843216808612169A068084361690843C7
:102AE00002902068C0685E49084002990843216846
:102AF000C860E0690290206840690121C9028843EA
:102B0000029908432168486120684069032109024D
:102B10008843A1690843216848610121C902E0692D
:102B200088424ED1FEF740FE0546626851001922E8
:102B30006A431046FDF7DEFA06466421FDF7DAFA2D
:102B400007016268510019226A431046FDF7D2FA64
:102B500006466268510019226A431046FDF7CAFA18
:102B600064210090FDF7C6FA64214843301AC00082
:102B700032300190FDF7BEFAF821084040003F18BE
:102B80006268510019226A431046FDF7B3FA0646FF
:102B90006268510019226A431046FDF7ABFA6421BE
:102BA0000090FDF7A7FA64214843301AC000323084
:102BB0000190FDF79FFA4007400F381821688860A0
:102BC0004CE0FEF7F1FD05466268910019226A4368
:102BD0001046FDF78FFA06466421FDF78BFA0701D0
:102BE0006268910019226A431046FDF783FA06468F
:102BF0006268910019226A431046FDF77BFA64214E
:102C00000090FDF777FA64214843301A0001323012
:102C10000190FDF76FFAF02108403F1862689100BB
:102C200019226A431046FDF765FA0646626891006C
:102C300019226A431046FDF75DFA64210090FDF702
:102C400059FA64214843301A000132300190FDF7EF
:102C500051FA0007000F381821688860FEBD000097
:102C6000F3E9FFFFFFB581B004460D4617460A9E03
:102C700024E0701C002821D0002E05D0FEF706FCB1
:102C80000499401AB04219D92068C068FF21A131C7
:102C900088432168C8602068406940084000216876
:102CA000486120213D2001553E20015500BF0021F3
:102CB0003C20015500BF032005B0F0BD206800682E
:102CC0002840A84201D1012000E00020B842D0D025
:102CD0000020F1E70748006800682021084020280C
:102CE00007D1044909684968C8B2024909684860BF
:102CF00000BF7047E0000020F0B587B0FFF798FBF9
:102D00000690FFF791FB0590904905980968401AD5
:102D10007D21C900884202D38C49059808608C48FF
:102D20000078062148438B494418002004908A49C2
:102D300006980968884205D3874906980968401AA9
:102D4000039008E0844800680021C943091A0698E6
:102D50000818401C0390A088002805D10120049089
:102D60007D490698086019E0A1880398814215D82A
:102D700001200490A08841000398814206D9A088D0
:102D80007549096840187449086002E0724906985C
:102D9000086072480068401C704908600498002868
:102DA0006FD000250026002002902078030000F05C
:102DB000F1F8050417396E90C100607841004018A1
:102DC00067490D5C607841004018654940184678B5
:102DD0006078410040186249401880780290A9E06C
:102DE000A1785E480068FDF785F9CFB26078602170
:102DF00048435C49401879007918455C6078602147
:102E00004843584940187900791840184678607846
:102E10006021484353494018790079184018807858
:102E2000029087E005214D480068FDF763F90191A4
:102E30000198002826D1052148480068FDF75AF975
:102E40000090A178FDF756F9CFB260781821484379
:102E50004549401879007918455C60781821484345
:102E6000414940187900791840184678607818214F
:102E700048433D49401879007918401880780290FD
:102E800004E060E0002500260020029052E0A178D6
:102E900032480068FDF72EF9CFB26078062148432A
:102EA0003249401879007918455C6078062148431A
:102EB0002E49401879007918401846786078062124
:102EC00048432A49401879007918401880780290C0
:102ED00030E0A17821480068FDF70CF9CFB2552FFA
:102EE0000ADA78003818FF21081AC5B200267800DF
:102EF0003818C0B202901CE0AA2F0DDA38465538B7
:102F0000C7B2002578003818C6B278003818FF21FB
:102F1000081AC0B202900CE03846AA38C7B278004E
:102F20003818C5B278003818FF21081AC6B2002038
:102F3000029000BF00BF0E48037831462846029A2F
:102F4000FFF746FB00BF07B0F0BD00003C000020CB
:102F50001B000020AE3E00083800002020000020AA
:102F6000903E0008603B0008003E0008783E0008E4
:102F70001C0000200FB410B503A9044B044A0298AA
:102F800000F026F810BC08BC04B018473D33000818
:102F90005000002030B47446641E2578641CAB4297
:102FA00004D3635D5B00E31830BC18471D46F8E7A7
:102FB00002E008C8121F08C1002AFAD17047704702
:102FC000002001E001C1121F002AFBD17047000060
:102FD000FFB58DB00F460546002606E025280AD02D
:102FE000109A0F9990476D1C761C28780028F5D10F
:102FF000304611B0F0BD00240121674A009400E082
:1030000004436D1C2B780846203B98401042F7D1B2
:1030100028782E2815D10420044368786D1C2A28AE
:103020000AD101CF6D1C00900BE000990A22514398
:10303000303940186D1C0090287801463039092934
:10304000F3D92878692843D006DC0028D0D063283B
:103050000BD0642804D13BE073280FD075284CD0E6
:10306000109A0F999047761C94E038786946087258
:103070000020487202A80190012003E03868019006
:103080000020C0433F1D61070CD5002400E0641CF4
:1030900000998C420FDA8442F9DB0199095D00291D
:1030A000F5D108E0002400E0641C8442FCDB0199B7
:1030B000095D0029F8D1361907E0019801990078D7
:1030C000491C0191109A0F999047641EF5D261E056
:1030D0000A20019001CF002802DA40422D2102E0AF
:1030E000210504D52B216A461172012103E0E10775
:1030F00001D02021F7E70C9104E00A20019001CFD4
:1031000000210C910BA90B9108E00199FCF7F2FF4B
:103110000A460B993032491E0B910A700028F4D1EF
:103120000B9803A9081A20300190600701D5009878
:1031300001E0012000900199884203DD01460198D9
:10314000081A00E000200024009006E002A8109A6F
:10315000005D0F999047641C761C0C988442F5DB47
:1031600004E0109A30200F999047761C0099481E71
:1031700000900029F5DC08E00B980B990078491CB9
:103180000B91109A0F999047761C0199481E019057
:103190000029F1DC6D1C28E70928010010B500BFEB
:1031A0000948016809480078401CFCF7A3FFC8B231
:1031B0000649087004480068401E09788842EFD02C
:1031C00000200349086010BD403F00081B0000209C
:1031D0002000002000BF0D480078002805D10C48D1
:1031E0000078401E0949087004E008480078401E35
:1031F0000649087006480068401E0449097888425C
:10320000E9D0002003490860704700001B0000203F
:10321000403F00082000002000200149087070474E
:103220004C000020F0B585B014200490FF200390DE
:103230001E200290FFF7DCF8002821D00F24002583
:10324000002614211C480068FCF754FF00910099E7
:103250000A02501A1321FCF763FF87B27F2F02DDA9
:10326000FF20C01B87B2384678434002000C019013
:10327000E12101984843C0111E3080B201900AE05C
:10328000FFF7C4F8002803D000240725002602E039
:10329000FF240025FF260198C3B232462946204666
:1032A000FFF796F904480068401C0349086028208D
:1032B000FDF7D4FB05B0F0BD4000002070B5002440
:1032C00007250026FF23324629462046FFF780F9CE
:1032D0002820FDF7C3FB70BDF8B504460B48055D1B
:1032E0002B46FF2211461046FFF772F9642169430D
:1032F0000846FF21FCF714FF0646FFF795F807463E
:103300003246394602A0FFF735FEF8BD9439000871
:103310005B25755D204252494748544E4553533A08
:1033200020446973706C6179696E67204C657665BD
:103330006C3A2025642F3130300D0A0013B50C464D
:103340007D23DB00012269460248FEF7CFFF00988B
:103350001CBD0000E0000020FDF7F8FEFEF7A8F815
:10336000FDF702F9E1204002FDF74CFB6321172035
:10337000FDF726F9FFF752FBFDF76CF9FDF7B4F9FD
:10338000FDF7C6F8AF48B0490978405CAF4908700E
:103390000020AF490870AF490860FDF79DFBAE48BB
:1033A00006784EE1FDF75AFA0446FFF73DF8054668
:1033B000052C05D1A84806780020A749087040E1EF
:1033C000062C17D1A4480078002812D1032E06D16C
:1033D0000320A14908700120A049086004E00120F1
:1033E0009D49087008460678002099490870994957
:1033F000086026E19A480078012807D10320964901
:103400000870002097490870954908709248007824
:10341000002870D0012872D002286ED003286DD108
:103420002300FFF7B7FD055404251305650060E090
:103430000020874908708749086001208649087084
:10344000894908700020FCF76FFF52E0294687A0E9
:10345000FFF790FD00207E4908707E49086001203A
:103460007D490870804908700020FCF75DFF40E04E
:10347000FFF768F8002807D029468BA0FFF77AFDF0
:1034800000207549087021E076480078002809D1AD
:10349000FCF74AFF7148056072480078401C71498A
:1034A00008700FE06F48007801280BD100206D49AB
:1034B000087067490870674908600120664908700C
:1034C00069490870294683A0FFF754FD11E063485D
:1034D000006800280BD0614800688A49401885427E
:1034E00005D3294688A0FFF745FDFDF7F5FA00BF93
:1034F00000BF00BFA3E031E001E06FE097E0022CE5
:1035000020D0032C17D0042C23D1294686A0FFF706
:1035100031FD00231A4619461846FFF759F80020D6
:103520004B4908704B490860294688A0FFF722FDE7
:10353000FDF7D2FA85E029468FA0FFF71BFDFFF7C4
:1035400049FE07E0294698A0FFF714FDFFF726FE85
:1035500000E000BF00BFFFF7CFFB70E0002C2DD0D4
:10356000022C04D0032C11D0042C26D113E02946C0
:1035700098A0FFF7FFFC032E04D100203449087007
:103580003449086001203449087025E029469EA08E
:10359000FFF7F0FC20E02946A7A0FFF7EBFC002393
:1035A0001A4619461846FFF713F8002028490870F4
:1035B00028490860FDF790FA0EE000BFFEF718FFFB
:1035C000002802D0FFF72EFE05E0FEF71FFF0028BF
:1035D00001D0FFF773FE00BF00BF30E0022C02D025
:1035E000042C21D10FE029469DA0FFF7C3FCAC4875
:1035F0000078401C8007800FA949087008460078B1
:10360000FFF76AFE11E02946A648FFF7B3FCA4487D
:10361000007800F063F901200F49087000200C4980
:1036200008700C49086000E000BF00BF07E02946B1
:103630009DA0FFF79FFC03200749087000BF00BF53
:1036400000BFAFE6983900081D0000201C000020D4
:103650001B00002020000020240000201400002077
:103660002500002019000020180000205B25755D52
:103670002057414B453A20446F75626C652D636C51
:1036800069636B20286368617267696E6729202D02
:103690003E204368616E6765206272696768746E78
:1036A0006573730D0A0000005B25755D2057414B63
:1036B000453A2053696E676C652D636C69636B20B6
:1036C0002D3E204368617267696E67206D6F646587
:1036D0000D0A00005B25755D2057414B453A20538C
:1036E000696E676C652D636C69636B202D3E2047A6
:1036F0006F206261636B20746F20736C6565700D61
:103700000A000000CA0800005B25755D2057414B88
:10371000453A2054696D656F7574202D3E20536CB9
:103720006565700D0A0000005B25755D204E4F52E7
:103730004D414C3A204C6F6E672D7072657373204B
:103740002D3E20536C6565700D0A00005B25755D8C
:10375000204E4F524D414C3A204C6F6E672D707287
:10376000657373202D3E20536C6565702053544162
:1037700052540D0A000000005B25755D204E4F522B
:103780004D414C3A20446F75626C652D636C6963E2
:103790006B202D3E2050726576696F7573206D6FBA
:1037A00064650D0A000000005B25755D204E4F52D8
:1037B0004D414C3A2053696E676C652D636C6963AB
:1037C0006B202D3E204E657874206D6F64650D0A68
:1037D000000000005B25755D204348415247494E7B
:1037E000473A2053696E676C652D636C69636B2083
:1037F0002D3E205374617274204C4544206D6F64DB
:1038000065730D0A000000005B25755D204348418B
:103810005247494E473A20446F75626C652D636C80
:1038200069636B202D3E2050726576696F75732039
:103830006D6F64650D0A00005B25755D204348418E
:103840005247494E473A204C6F6E672D7072657330
:1038500073202D3E20536C6565700D0A000000003A
:103860005B25755D204252494748544E4553533AB3
:103870002053696E676C652D636C69636B202D3E08
:10388000206379636C65207468652062726967687B
:10389000746E657373206C6576656C730D0A000039
:1038A0001A000020443F00085B25755D20455252F8
:1038B0004F523A20556E6B6E6F776E207374617441
:1038C00065202D3E20526573657420746F2057412A
:1038D0004B455F4359434C450D0A000070B5044603
:1038E0001948005D19490870FEF79EFD0546174806
:1038F0000278294616A0FFF73DFB14480378FF2203
:1039000011461046FEF764FEC820FDF7A7F8002315
:103910001A4619461846FEF75BFEC820FDF79EF8CA
:103920000A480378FF2211461046FEF751FEC820D0
:10393000FDF794F800231A4619461846FEF748FE8C
:10394000C820FDF78BF870BD943900081C000020DA
:103950005B25755D20476C6F62616C2062726967E0
:1039600068746E6573732073657420746F3A2025D4
:10397000640D0A00000000000000000000000000CC
:103980000000000000366E01000000000000000092
:1039900000000000FF804010FF804010CE050000B6
:1039A000600900006009000060090000E9040000EF
:1039B000D007000060090000600900000706000051
:1039C000EB060000600900006009000060090000CB
:1039D00005040000600900006009000060090000A3
:1039E00022050000220500006009000060090000B7
:1039F00060090000E70200006009000025070000E0
:103A0000600900002003000060090000E9040000D4
:103A100060090000EB0600006009000025070000B7
:103A2000250700002507000060090000600900006C
:103A300060090000600900006009000060090000E2
:103A400020030000050400006009000005040000D8
:103A50006009000005040000600900003E04000049
:103A6000400600006009000060090000B206000086
:103A700020030000600900006009000060090000E8
:103A8000E7020000CB0300006009000025070000EA
:103A9000790600009203000060090000CE050000D6
:103AA00060090000CE05000060090000B2060000B9
:103AB000B20600006009000060090000000000007C
:103AC000000000000000000060090000456E746501
:103AD000725F4465657053746F704D6F646500006C
:103AE00000000000000000000000000000000000D6
:103AF00000000000000000000000000000000000C6
:103B000001000000020000000300000004000000AB
:103B10000600000007000000080000000900000087
:103B20000000000000000000000000000000000095
:103B3000010000000200000003000000040000007B
:103B40000000000000000000000000000000000075
:103B500000366E01000000000000000000000000C0
:103B60008C00007E0011710023630034560046482B
:103B700000573B00692D007A20008B12009D050044
:103B8000AE000FA8002597003B86005274006863C2
:103B9000007E5100944000AB2E00C11D00D70C05E3
:103BA000DE0012C80020B2002D9C003B8600486F4A
:103BB00000565900634300712D007E17008C0000F1
:103BC000726A00746A00746A00746A00746A003869
:103BD0006A00386A00386A00386A00386A00006A89
:103BE00084006A84006A84006A84006A8400008415
:103BF00000008400008400008400008438008438C1
:103C00000084380084380084380084740084740090
:103C10008474008474008474008474000074000050
:103C20000000000000000000000000000000000094
:103C300000000100000200000400000700000B006B
:103C4000001200001B00002900003B000053000090
:103C50007200009A0000B32000C83B00DA5100E96E
:103C60006400F47100FB7B00FF7F00FF8300FF9383
:103C700000FFAA00FFC800FFEB00FFFF11FFFFFFDE
:103C80004000504300524900595400676200777366
:103C9000008B80009A800592800C7F8016678020C0
:103CA0004D802D31803C13804800805A0080700583
:103CB000808007807B0580700580660280580080C8
:103CC0004400803400802800801602800A027A00B6
:103CD0000C6800215900314D003D45004640004B25
:103CE00080859A6F739A5F629A50529A3E419A2EDB
:103CF000309A1F1E9A0F0F9A00009A000F88001E1C
:103D00007500306000414D00523B00622500731386
:103D100000850000731300622500523B00414D00F6
:103D20003060001E75000F8800009A0F0F9A1F1E4A
:103D30009A2E309A3E419A50529A5F629A6F739AC5
:103D40000000000000000000000000000000000073
:103D50000000000000000000000000000000000063
:103D60000000000000000000000000000000000053
:103D70000000000000000000000000000000000043
:103D80000000000000000000000000000000000033
:103D90000000000000000000000000000000000023
:103DA0000000000000000000000000000000000013
:103DB0000000000000000000000000000000000003
:103DC00000000000000000000000000000000000F3
:103DD00000000000000000000000000000000000E3
:103DE00000000000000000000000000000000000D3
:103DF00000000000000000000000000000000000C3
:103E0000FF0000FF8000FFFF0000FF0000FFFF0039
:103E100040FF8000FFFF00FFFF4000FF0040FF0069
:103E200080FF00FF8000FFFF00FFFF0080FF0040D9
:103E3000FF0000FF4000FF8000FFFF00FFFFFFFFCB
:103E4000FF00FF8000FF40000000FF0080FF00FF38
:103E5000FF80FFFFFFFFFF80FFFF00FFFF0080FFED
:103E6000FF000000FF000000FFFF000000FF000057
:103E700000FFFF000000FF0090004B00AE94905741
:103E80000047AE004052A500B0964D8B006300A3E2
:103E90007D00466400007828005A4100009600002A
:103EA00073730000B43C00AA3C3C3C0000000100DD
:103EB0002000E204010120001E0001022000180081
:103EC000010320001E00010420001400020008006D
:103ED0001E00020108001E00020208001E0002036C
:103EE00008001E00020408001E0003000200A609CC
:103EF00003010200A60903020200A609030302004F
:103F0000A6090000010000000001010000000002FD
:103F10000100000000030100000000040100000097
:103F2000000501000000000601000000000701007C
:103F3000000000080100000000090100000000006E
:103F4000180000005B25755D204252494748544ED9
:103F50004553533A204C6F6E672D70726573732012
:103F60002D3E207361766520616E6420636F6E66FE
:103F700069726D20746865206272696768746E6525
:103F80007373206C6576656C0D0A0000AC3F000809
:103F90000000002054000000B02F0008004000087E
:103FA00054000020A4050000C02F000800000000FD
:103FB00004000000010000000000000000000000FC
:103FC0000000000001000000800000000000000070
:103FD00001000000000000000000000002000000DE
:103FE00001000000000000000000000000000000D0
:103FF00000366E0118000000000000000000000004
:04000005080000C12E
:00000001FF
